{
  "address": "0x87E48a46c58C4943fbA5790B597D21F395733463",
  "abi": [
    {
      "inputs": [
        {
          "internalType": "contract ITerminalDirectory",
          "name": "_terminalDirectory",
          "type": "address"
        },
        {
          "internalType": "uint256",
          "name": "_projectId",
          "type": "uint256"
        },
        {
          "internalType": "string",
          "name": "_memo",
          "type": "string"
        }
      ],
      "stateMutability": "nonpayable",
      "type": "constructor"
    },
    {
      "anonymous": false,
      "inputs": [
        {
          "indexed": true,
          "internalType": "address",
          "name": "payer",
          "type": "address"
        },
        {
          "indexed": true,
          "internalType": "uint256",
          "name": "projectId",
          "type": "uint256"
        },
        {
          "indexed": false,
          "internalType": "address",
          "name": "beneficiary",
          "type": "address"
        },
        {
          "indexed": false,
          "internalType": "uint256",
          "name": "value",
          "type": "uint256"
        },
        {
          "indexed": false,
          "internalType": "string",
          "name": "memo",
          "type": "string"
        },
        {
          "indexed": false,
          "internalType": "bool",
          "name": "preferUnstakedTickets",
          "type": "bool"
        }
      ],
      "name": "Forward",
      "type": "event"
    },
    {
      "inputs": [],
      "name": "memo",
      "outputs": [
        {
          "internalType": "string",
          "name": "",
          "type": "string"
        }
      ],
      "stateMutability": "view",
      "type": "function"
    },
    {
      "inputs": [],
      "name": "projectId",
      "outputs": [
        {
          "internalType": "uint256",
          "name": "",
          "type": "uint256"
        }
      ],
      "stateMutability": "view",
      "type": "function"
    },
    {
      "inputs": [],
      "name": "terminalDirectory",
      "outputs": [
        {
          "internalType": "contract ITerminalDirectory",
          "name": "",
          "type": "address"
        }
      ],
      "stateMutability": "view",
      "type": "function"
    },
    {
      "stateMutability": "payable",
      "type": "receive"
    }
  ],
  "transactionHash": "0xdec4f9b9f9a2d5cf0dc8fcfc27500c65ab3c43b3024e02aca2b5632cf0e7c7d1",
  "args": [
    "0x4533f15d4D83a9c8050Cd4BCf4186b4853A3b525",
    "12",
    ""
  ],
  "solcInputHash": "b611a48ccf636fef65065ee937e0c17d",
  "bytecode": "0x60c06040523480156200001157600080fd5b5060405162000ae138038062000ae1833981016040819052620000349162000110565b6001600160601b0319606084901b1660805260a08290528051620000609060009060208401906200006a565b505050506200026c565b828054620000789062000219565b90600052602060002090601f0160209004810192826200009c5760008555620000e7565b82601f10620000b757805160ff1916838001178555620000e7565b82800160010185558215620000e7579182015b82811115620000e7578251825591602001919060010190620000ca565b50620000f5929150620000f9565b5090565b5b80821115620000f55760008155600101620000fa565b6000806000606084860312156200012657600080fd5b83516001600160a01b03811681146200013e57600080fd5b60208581015160408701519295509350906001600160401b03808211156200016557600080fd5b818701915087601f8301126200017a57600080fd5b8151818111156200018f576200018f62000256565b604051601f8201601f19908116603f01168101908382118183101715620001ba57620001ba62000256565b816040528281528a86848701011115620001d357600080fd5b600093505b82841015620001f75784840186015181850187015292850192620001d8565b82841115620002095760008684830101525b8096505050505050509250925092565b600181811c908216806200022e57607f821691505b602082108114156200025057634e487b7160e01b600052602260045260246000fd5b50919050565b634e487b7160e01b600052604160045260246000fd5b60805160601c60a051610823620002be60003960008181610213015281816102e9015281816103800152610410015260008181606e0152818161016f0152818161023c015261047901526108236000f3fe6080604052600436106100385760003560e01c80633fafa127146103fe57806358c3b870146104455780636abcf8e31461046757600080fd5b366103f9576040517fba7bffd30000000000000000000000000000000000000000000000000000000081523360048201526000907f000000000000000000000000000000000000000000000000000000000000000073ffffffffffffffffffffffffffffffffffffffff169063ba7bffd390602401602060405180830381600087803b1580156100c757600080fd5b505af11580156100db573d6000803e3d6000fd5b505050506040513d601f19601f820116820180604052508101906100ff919061054e565b9050600073ffffffffffffffffffffffffffffffffffffffff82166101245733610126565b815b6040517f9dcbf9d600000000000000000000000000000000000000000000000000000000815233600482015290915060009073ffffffffffffffffffffffffffffffffffffffff7f00000000000000000000000000000000000000000000000000000000000000001690639dcbf9d690602401602060405180830381600087803b1580156101b357600080fd5b505af11580156101c7573d6000803e3d6000fd5b505050506040513d601f19601f820116820180604052508101906101eb9190610572565b6040517f4fe0eced0000000000000000000000000000000000000000000000000000000081527f000000000000000000000000000000000000000000000000000000000000000060048201529091507f000000000000000000000000000000000000000000000000000000000000000073ffffffffffffffffffffffffffffffffffffffff1690634fe0eced9060240160206040518083038186803b15801561029357600080fd5b505afa1580156102a7573d6000803e3d6000fd5b505050506040513d601f19601f820116820180604052508101906102cb919061054e565b73ffffffffffffffffffffffffffffffffffffffff166302c8986f347f0000000000000000000000000000000000000000000000000000000000000000856000866040518663ffffffff1660e01b815260040161032b949392919061073f565b6020604051808303818588803b15801561034457600080fd5b505af1158015610358573d6000803e3d6000fd5b50505050506040513d601f19601f8201168201806040525081019061037d9190610594565b507f00000000000000000000000000000000000000000000000000000000000000003373ffffffffffffffffffffffffffffffffffffffff167f73c0c8eb2e5343fd4f621dee6cc0dd1f91a240b7a6245465fa884753efd7cab384346000866040516103ec9493929190610684565b60405180910390a3505050005b600080fd5b34801561040a57600080fd5b506104327f000000000000000000000000000000000000000000000000000000000000000081565b6040519081526020015b60405180910390f35b34801561045157600080fd5b5061045a6104c0565b60405161043c91906106cc565b34801561047357600080fd5b5061049b7f000000000000000000000000000000000000000000000000000000000000000081565b60405173ffffffffffffffffffffffffffffffffffffffff909116815260200161043c565b600080546104cd90610774565b80601f01602080910402602001604051908101604052809291908181526020018280546104f990610774565b80156105465780601f1061051b57610100808354040283529160200191610546565b820191906000526020600020905b81548152906001019060200180831161052957829003601f168201915b505050505081565b60006020828403121561056057600080fd5b815161056b816107c8565b9392505050565b60006020828403121561058457600080fd5b8151801515811461056b57600080fd5b6000602082840312156105a657600080fd5b5051919050565b8054600090600181811c90808316806105c757607f831692505b6020808410821415610602577f4e487b7100000000000000000000000000000000000000000000000000000000600052602260045260246000fd5b8388526020880182801561061d576001811461064c57610677565b7fffffffffffffffffffffffffffffffffffffffffffffffffffffffffffffff00871682528282019750610677565b60008981526020902060005b8781101561067157815484820152908601908401610658565b83019850505b5050505050505092915050565b73ffffffffffffffffffffffffffffffffffffffff851681528360208201526080604082015260006106b960808301856105ad565b9050821515606083015295945050505050565b600060208083528351808285015260005b818110156106f9578581018301518582016040015282016106dd565b8181111561070b576000604083870101525b50601f017fffffffffffffffffffffffffffffffffffffffffffffffffffffffffffffffe016929092016040019392505050565b84815273ffffffffffffffffffffffffffffffffffffffff841660208201526080604082015260006106b960808301856105ad565b600181811c9082168061078857607f821691505b602082108114156107c2577f4e487b7100000000000000000000000000000000000000000000000000000000600052602260045260246000fd5b50919050565b73ffffffffffffffffffffffffffffffffffffffff811681146107ea57600080fd5b5056fea26469706673582212208dbcb6e1eecfe6176c6421e3252a0ab5bd3087a91b3a41bd5d7762dd4963de1764736f6c63430008060033",
  "devdoc": {
    "kind": "dev",
    "methods": {
      "constructor": {
        "params": {
          "_memo": "The memo to use when this contract forwards a payment to a terminal.",
          "_projectId": "The ID of the project to pay when this contract receives funds.",
          "_terminalDirectory": "A directory of a project's current Juicebox terminal to receive payments in."
        }
      }
    },
    "version": 1
  },
  "userdoc": {
    "kind": "user",
    "methods": {
      "memo()": {
        "notice": "The memo to use when this contract forwards a payment to a terminal."
      },
      "projectId()": {
        "notice": "The ID of the project to pay when this contract receives funds."
      },
      "terminalDirectory()": {
        "notice": "The directory to use when resolving which terminal to send the payment to."
      }
    },
    "notice": "A contract that can receive funds directly and forward to a project's current terminal.",
    "version": 1
  },
  "storageLayout": {
    "storage": [
      {
        "astId": 4216,
        "contract": "contracts/DirectPaymentAddress.sol:DirectPaymentAddress",
        "label": "memo",
        "offset": 0,
        "slot": "0",
        "type": "t_string_storage"
      }
    ],
    "types": {
      "t_string_storage": {
        "encoding": "bytes",
        "label": "string",
        "numberOfBytes": "32"
      }
    }
  }
}