{
  "address": "0x463f389e406E030f52A1EC204ea7bC0784978d8B",
  "abi": [
    {
      "inputs": [
        {
          "internalType": "contract IProjects",
          "name": "_projects",
          "type": "address"
        },
        {
          "internalType": "contract IOperatorStore",
          "name": "_operatorStore",
          "type": "address"
        },
        {
          "internalType": "contract ITerminalDirectory",
          "name": "_terminalDirectory",
          "type": "address"
        }
      ],
      "stateMutability": "nonpayable",
      "type": "constructor"
    },
    {
      "anonymous": false,
      "inputs": [
        {
          "indexed": true,
          "internalType": "uint256",
          "name": "projectId",
          "type": "uint256"
        },
        {
          "indexed": true,
          "internalType": "uint256",
          "name": "configuration",
          "type": "uint256"
        },
        {
          "components": [
            {
              "internalType": "bool",
              "name": "preferUnstaked",
              "type": "bool"
            },
            {
              "internalType": "uint16",
              "name": "percent",
              "type": "uint16"
            },
            {
              "internalType": "uint48",
              "name": "lockedUntil",
              "type": "uint48"
            },
            {
              "internalType": "address payable",
              "name": "beneficiary",
              "type": "address"
            },
            {
              "internalType": "contract IModAllocator",
              "name": "allocator",
              "type": "address"
            },
            {
              "internalType": "uint56",
              "name": "projectId",
              "type": "uint56"
            }
          ],
          "indexed": false,
          "internalType": "struct PayoutMod",
          "name": "mods",
          "type": "tuple"
        },
        {
          "indexed": false,
          "internalType": "address",
          "name": "caller",
          "type": "address"
        }
      ],
      "name": "SetPayoutMod",
      "type": "event"
    },
    {
      "anonymous": false,
      "inputs": [
        {
          "indexed": true,
          "internalType": "uint256",
          "name": "projectId",
          "type": "uint256"
        },
        {
          "indexed": true,
          "internalType": "uint256",
          "name": "configuration",
          "type": "uint256"
        },
        {
          "components": [
            {
              "internalType": "bool",
              "name": "preferUnstaked",
              "type": "bool"
            },
            {
              "internalType": "uint16",
              "name": "percent",
              "type": "uint16"
            },
            {
              "internalType": "uint48",
              "name": "lockedUntil",
              "type": "uint48"
            },
            {
              "internalType": "address payable",
              "name": "beneficiary",
              "type": "address"
            }
          ],
          "indexed": false,
          "internalType": "struct TicketMod",
          "name": "mods",
          "type": "tuple"
        },
        {
          "indexed": false,
          "internalType": "address",
          "name": "caller",
          "type": "address"
        }
      ],
      "name": "SetTicketMod",
      "type": "event"
    },
    {
      "inputs": [],
      "name": "operatorStore",
      "outputs": [
        {
          "internalType": "contract IOperatorStore",
          "name": "",
          "type": "address"
        }
      ],
      "stateMutability": "view",
      "type": "function"
    },
    {
      "inputs": [
        {
          "internalType": "uint256",
          "name": "_projectId",
          "type": "uint256"
        },
        {
          "internalType": "uint256",
          "name": "_configuration",
          "type": "uint256"
        }
      ],
      "name": "payoutModsOf",
      "outputs": [
        {
          "components": [
            {
              "internalType": "bool",
              "name": "preferUnstaked",
              "type": "bool"
            },
            {
              "internalType": "uint16",
              "name": "percent",
              "type": "uint16"
            },
            {
              "internalType": "uint48",
              "name": "lockedUntil",
              "type": "uint48"
            },
            {
              "internalType": "address payable",
              "name": "beneficiary",
              "type": "address"
            },
            {
              "internalType": "contract IModAllocator",
              "name": "allocator",
              "type": "address"
            },
            {
              "internalType": "uint56",
              "name": "projectId",
              "type": "uint56"
            }
          ],
          "internalType": "struct PayoutMod[]",
          "name": "",
          "type": "tuple[]"
        }
      ],
      "stateMutability": "view",
      "type": "function"
    },
    {
      "inputs": [],
      "name": "projects",
      "outputs": [
        {
          "internalType": "contract IProjects",
          "name": "",
          "type": "address"
        }
      ],
      "stateMutability": "view",
      "type": "function"
    },
    {
      "inputs": [
        {
          "internalType": "uint256",
          "name": "_projectId",
          "type": "uint256"
        },
        {
          "internalType": "uint256",
          "name": "_configuration",
          "type": "uint256"
        },
        {
          "components": [
            {
              "internalType": "bool",
              "name": "preferUnstaked",
              "type": "bool"
            },
            {
              "internalType": "uint16",
              "name": "percent",
              "type": "uint16"
            },
            {
              "internalType": "uint48",
              "name": "lockedUntil",
              "type": "uint48"
            },
            {
              "internalType": "address payable",
              "name": "beneficiary",
              "type": "address"
            },
            {
              "internalType": "contract IModAllocator",
              "name": "allocator",
              "type": "address"
            },
            {
              "internalType": "uint56",
              "name": "projectId",
              "type": "uint56"
            }
          ],
          "internalType": "struct PayoutMod[]",
          "name": "_mods",
          "type": "tuple[]"
        }
      ],
      "name": "setPayoutMods",
      "outputs": [],
      "stateMutability": "nonpayable",
      "type": "function"
    },
    {
      "inputs": [
        {
          "internalType": "uint256",
          "name": "_projectId",
          "type": "uint256"
        },
        {
          "internalType": "uint256",
          "name": "_configuration",
          "type": "uint256"
        },
        {
          "components": [
            {
              "internalType": "bool",
              "name": "preferUnstaked",
              "type": "bool"
            },
            {
              "internalType": "uint16",
              "name": "percent",
              "type": "uint16"
            },
            {
              "internalType": "uint48",
              "name": "lockedUntil",
              "type": "uint48"
            },
            {
              "internalType": "address payable",
              "name": "beneficiary",
              "type": "address"
            }
          ],
          "internalType": "struct TicketMod[]",
          "name": "_mods",
          "type": "tuple[]"
        }
      ],
      "name": "setTicketMods",
      "outputs": [],
      "stateMutability": "nonpayable",
      "type": "function"
    },
    {
      "inputs": [],
      "name": "terminalDirectory",
      "outputs": [
        {
          "internalType": "contract ITerminalDirectory",
          "name": "",
          "type": "address"
        }
      ],
      "stateMutability": "view",
      "type": "function"
    },
    {
      "inputs": [
        {
          "internalType": "uint256",
          "name": "_projectId",
          "type": "uint256"
        },
        {
          "internalType": "uint256",
          "name": "_configuration",
          "type": "uint256"
        }
      ],
      "name": "ticketModsOf",
      "outputs": [
        {
          "components": [
            {
              "internalType": "bool",
              "name": "preferUnstaked",
              "type": "bool"
            },
            {
              "internalType": "uint16",
              "name": "percent",
              "type": "uint16"
            },
            {
              "internalType": "uint48",
              "name": "lockedUntil",
              "type": "uint48"
            },
            {
              "internalType": "address payable",
              "name": "beneficiary",
              "type": "address"
            }
          ],
          "internalType": "struct TicketMod[]",
          "name": "",
          "type": "tuple[]"
        }
      ],
      "stateMutability": "view",
      "type": "function"
    }
  ],
  "transactionHash": "0x3c7225078ddb2402e6ffea2df651cba601f0abd82f2657d704e6f7662d15529a",
  "args": [
    "0x4209E149F3c9A0F1AFd87AE305968dEa1c7e658e",
    "0x6146588A8Ef03bf8dcBb0519Cc23c7187C7d5026",
    "0x4533f15d4D83a9c8050Cd4BCf4186b4853A3b525"
  ],
  "solcInputHash": "b611a48ccf636fef65065ee937e0c17d",
  "bytecode": "0x60e06040523480156200001157600080fd5b50604051620021733803806200217383398101604081905262000034916200005c565b6001600160601b0319606092831b811660805290821b811660a05291901b1660c052620000c9565b6000806000606084860312156200007257600080fd5b83516200007f81620000b0565b60208501519093506200009281620000b0565b6040850151909250620000a581620000b0565b809150509250925092565b6001600160a01b0381168114620000c657600080fd5b50565b60805160601c60a05160601c60c05160601c6120486200012b6000396000818161011c015281816103710152610ef101526000818160b0015281816104490152610fc90152600081816101580152818161053b01526110bb01526120486000f3fe608060405234801561001057600080fd5b506004361061007d5760003560e01c80638b79543c1161005b5780638b79543c14610117578063a67e210a1461013e578063ad007d6314610153578063ebe352a41461017a57600080fd5b80634833b512146100825780636abcf8e3146100ab5780637559aaaa146100f7575b600080fd5b610095610090366004611a0e565b61018d565b6040516100a29190611d25565b60405180910390f35b6100d27f000000000000000000000000000000000000000000000000000000000000000081565b60405173ffffffffffffffffffffffffffffffffffffffff90911681526020016100a2565b61010a610105366004611a0e565b610251565b6040516100a29190611c6f565b6100d27f000000000000000000000000000000000000000000000000000000000000000081565b61015161014c366004611a30565b610342565b005b6100d27f000000000000000000000000000000000000000000000000000000000000000081565b610151610188366004611b6b565b610ec2565b60008281526001602090815260408083208484528252808320805482518185028101850190935280835260609492939192909184015b82821015610245576000848152602090819020604080516080810182529185015460ff811615158352610100810461ffff16838501526301000000810465ffffffffffff16918301919091526901000000000000000000900473ffffffffffffffffffffffffffffffffffffffff1660608201528252600190920191016101c3565b50505050905092915050565b6000828152602081815260408083208484528252808320805482518185028101850190935280835260609492939192909184015b828210156102455760008481526020908190206040805160c08101825260028602909201805460ff811615158452610100810461ffff16848601526301000000810465ffffffffffff1692840192909252690100000000000000000090910473ffffffffffffffffffffffffffffffffffffffff9081166060840152600191820154908116608084015274010000000000000000000000000000000000000000900466ffffffffffffff1660a08301529083529092019101610285565b6040517f6352211e000000000000000000000000000000000000000000000000000000008152600481018490527f000000000000000000000000000000000000000000000000000000000000000073ffffffffffffffffffffffffffffffffffffffff1690636352211e9060240160206040518083038186803b1580156103c857600080fd5b505afa1580156103dc573d6000803e3d6000fd5b505050506040513d601f19601f8201168201806040525081019061040091906119cd565b6040517f4fe0eced000000000000000000000000000000000000000000000000000000008152600481018590528490600e9073ffffffffffffffffffffffffffffffffffffffff7f00000000000000000000000000000000000000000000000000000000000000001690634fe0eced9060240160206040518083038186803b15801561048b57600080fd5b505afa15801561049f573d6000803e3d6000fd5b505050506040513d601f19601f820116820180604052508101906104c391906119cd565b3373ffffffffffffffffffffffffffffffffffffffff851614806105b557506040517fc161c93f00000000000000000000000000000000000000000000000000000000815233600482015273ffffffffffffffffffffffffffffffffffffffff858116602483015260448201859052606482018490527f0000000000000000000000000000000000000000000000000000000000000000169063c161c93f9060840160206040518083038186803b15801561057d57600080fd5b505afa158015610591573d6000803e3d6000fd5b505050506040513d601f19601f820116820180604052508101906105b591906119f1565b806105d557503373ffffffffffffffffffffffffffffffffffffffff8216145b6106265760405162461bcd60e51b815260206004820152601860248201527f4f706572617461626c653a20554e415554484f52495a4544000000000000000060448201526064015b60405180910390fd5b60008551116106775760405162461bcd60e51b815260206004820152601e60248201527f4d6f6453746f72653a3a7365745061796f75744d6f64733a204e4f5f4f500000604482015260640161061d565b600087815260208181526040808320898452825280832080548251818502810185019093528083529192909190849084015b828210156107665760008481526020908190206040805160c08101825260028602909201805460ff811615158452610100810461ffff16848601526301000000810465ffffffffffff1692840192909252690100000000000000000090910473ffffffffffffffffffffffffffffffffffffffff9081166060840152600191820154908116608084015274010000000000000000000000000000000000000000900466ffffffffffffff1660a083015290835290920191016106a9565b50505050905060005b8151811015610a295781818151811061078a5761078a611f84565b60200260200101516040015165ffffffffffff16421015610a17576000805b88518110156109a2578383815181106107c4576107c4611f84565b60200260200101516020015161ffff168982815181106107e6576107e6611f84565b60200260200101516020015161ffff16148015610868575083838151811061081057610810611f84565b60200260200101516060015173ffffffffffffffffffffffffffffffffffffffff1689828151811061084457610844611f84565b60200260200101516060015173ffffffffffffffffffffffffffffffffffffffff16145b80156108d9575083838151811061088157610881611f84565b60200260200101516080015173ffffffffffffffffffffffffffffffffffffffff168982815181106108b5576108b5611f84565b60200260200101516080015173ffffffffffffffffffffffffffffffffffffffff16145b801561093057508383815181106108f2576108f2611f84565b602002602001015160a0015166ffffffffffffff1689828151811061091957610919611f84565b602002602001015160a0015166ffffffffffffff16145b8015610986575083838151811061094957610949611f84565b60200260200101516040015165ffffffffffff1689828151811061096f5761096f611f84565b60200260200101516040015165ffffffffffff1610155b1561099057600191505b8061099a81611f1c565b9150506107a9565b5080610a155760405162461bcd60e51b8152602060048201526024808201527f4d6f6453746f72653a3a7365745061796f75744d6f64733a20534f4d455f4c4f60448201527f434b454400000000000000000000000000000000000000000000000000000000606482015260840161061d565b505b80610a2181611f1c565b91505061076f565b506000888152602081815260408083208a84529091528120610a4a916118c2565b6000805b8751811015610eb6576000888281518110610a6b57610a6b611f84565b60200260200101516020015161ffff1611610aee5760405162461bcd60e51b815260206004820152602860248201527f4d6f6453746f72653a3a7365745061796f75744d6f64733a204241445f4d4f4460448201527f5f50455243454e54000000000000000000000000000000000000000000000000606482015260840161061d565b878181518110610b0057610b00611f84565b60200260200101516020015161ffff1682610b1b9190611f04565b9150612710821115610b955760405162461bcd60e51b815260206004820152602a60248201527f4d6f6453746f72653a3a7365745061796f75744d6f64733a204241445f544f5460448201527f414c5f50455243454e5400000000000000000000000000000000000000000000606482015260840161061d565b600073ffffffffffffffffffffffffffffffffffffffff16888281518110610bbf57610bbf611f84565b60200260200101516080015173ffffffffffffffffffffffffffffffffffffffff16141580610c385750600073ffffffffffffffffffffffffffffffffffffffff16888281518110610c1357610c13611f84565b60200260200101516060015173ffffffffffffffffffffffffffffffffffffffff1614155b610caa5760405162461bcd60e51b815260206004820152602560248201527f4d6f6453746f72653a3a7365745061796f75744d6f64733a205a45524f5f414460448201527f4452455353000000000000000000000000000000000000000000000000000000606482015260840161061d565b60008a8152602081815260408083208c845290915290208851899083908110610cd557610cd5611f84565b6020908102919091018101518254600180820185556000948552938390208251600290920201805493830151604084015160608501517fffffffffffffffffffffffffffffffffffffffffffffffffffffffffff0000009096169315157fffffffffffffffffffffffffffffffffffffffffffffffffffffffffff0000ff169390931761010061ffff90921691909102177fffffff0000000000000000000000000000000000000000000000000000ffffff16630100000065ffffffffffff909316929092027fffffff0000000000000000000000000000000000000000ffffffffffffffffff1691909117690100000000000000000073ffffffffffffffffffffffffffffffffffffffff9485160217815560808201519301805460a090920151939092167fffffffffff000000000000000000000000000000000000000000000000000000909116177401000000000000000000000000000000000000000066ffffffffffffff90931692909202919091179055875189908b907f11d093e1f86a50d3e49cd68b453d3dc4ea6c3785bf9d407f4ba2fcc44b0acbbd908b9085908110610e8557610e85611f84565b602002602001015133604051610e9c929190611dac565b60405180910390a380610eae81611f1c565b915050610a4e565b50505050505050505050565b6040517f6352211e000000000000000000000000000000000000000000000000000000008152600481018490527f000000000000000000000000000000000000000000000000000000000000000073ffffffffffffffffffffffffffffffffffffffff1690636352211e9060240160206040518083038186803b158015610f4857600080fd5b505afa158015610f5c573d6000803e3d6000fd5b505050506040513d601f19601f82011682018060405250810190610f8091906119cd565b6040517f4fe0eced000000000000000000000000000000000000000000000000000000008152600481018590528490600f9073ffffffffffffffffffffffffffffffffffffffff7f00000000000000000000000000000000000000000000000000000000000000001690634fe0eced9060240160206040518083038186803b15801561100b57600080fd5b505afa15801561101f573d6000803e3d6000fd5b505050506040513d601f19601f8201168201806040525081019061104391906119cd565b3373ffffffffffffffffffffffffffffffffffffffff8516148061113557506040517fc161c93f00000000000000000000000000000000000000000000000000000000815233600482015273ffffffffffffffffffffffffffffffffffffffff858116602483015260448201859052606482018490527f0000000000000000000000000000000000000000000000000000000000000000169063c161c93f9060840160206040518083038186803b1580156110fd57600080fd5b505afa158015611111573d6000803e3d6000fd5b505050506040513d601f19601f8201168201806040525081019061113591906119f1565b8061115557503373ffffffffffffffffffffffffffffffffffffffff8216145b6111a15760405162461bcd60e51b815260206004820152601860248201527f4f706572617461626c653a20554e415554484f52495a45440000000000000000604482015260640161061d565b60008551116111f25760405162461bcd60e51b815260206004820152601e60248201527f4d6f6453746f72653a3a7365745469636b65744d6f64733a204e4f5f4f500000604482015260640161061d565b6000878152600160209081526040808320898452825280832080548251818502810185019093528083529192909190849084015b828210156112a8576000848152602090819020604080516080810182529185015460ff811615158352610100810461ffff16838501526301000000810465ffffffffffff16918301919091526901000000000000000000900473ffffffffffffffffffffffffffffffffffffffff166060820152825260019092019101611226565b50505050905060005b81518110156114a3578181815181106112cc576112cc611f84565b60200260200101516040015165ffffffffffff16421015611491576000805b885181101561141c5783838151811061130657611306611f84565b60200260200101516020015161ffff1689828151811061132857611328611f84565b60200260200101516020015161ffff161480156113aa575083838151811061135257611352611f84565b60200260200101516060015173ffffffffffffffffffffffffffffffffffffffff1689828151811061138657611386611f84565b60200260200101516060015173ffffffffffffffffffffffffffffffffffffffff16145b801561140057508383815181106113c3576113c3611f84565b60200260200101516040015165ffffffffffff168982815181106113e9576113e9611f84565b60200260200101516040015165ffffffffffff1610155b1561140a57600191505b8061141481611f1c565b9150506112eb565b508061148f5760405162461bcd60e51b8152602060048201526024808201527f4d6f6453746f72653a3a7365745469636b65744d6f64733a20534f4d455f4c4f60448201527f434b454400000000000000000000000000000000000000000000000000000000606482015260840161061d565b505b8061149b81611f1c565b9150506112b1565b5060008881526001602090815260408083208a845290915281206114c6916118e6565b6000805b8751811015610eb65760008882815181106114e7576114e7611f84565b60200260200101516020015161ffff161161156a5760405162461bcd60e51b815260206004820152602860248201527f4d6f6453746f72653a3a7365745469636b65744d6f64733a204241445f4d4f4460448201527f5f50455243454e54000000000000000000000000000000000000000000000000606482015260840161061d565b87818151811061157c5761157c611f84565b60200260200101516020015161ffff16826115979190611f04565b91506127108211156116115760405162461bcd60e51b815260206004820152602a60248201527f4d6f6453746f72653a3a7365745469636b65744d6f64733a204241445f544f5460448201527f414c5f50455243454e5400000000000000000000000000000000000000000000606482015260840161061d565b600073ffffffffffffffffffffffffffffffffffffffff1688828151811061163b5761163b611f84565b60200260200101516060015173ffffffffffffffffffffffffffffffffffffffff1614156116d15760405162461bcd60e51b815260206004820152602560248201527f4d6f6453746f72653a3a7365745469636b65744d6f64733a205a45524f5f414460448201527f4452455353000000000000000000000000000000000000000000000000000000606482015260840161061d565b60008a81526001602090815260408083208c8452909152902088518990839081106116fe576116fe611f84565b60209081029190910181015182546001810184556000938452928290208151930180549282015160408301516060909301517fffffffffffffffffffffffffffffffffffffffffffffffffffffffffff0000009094169415157fffffffffffffffffffffffffffffffffffffffffffffffffffffffffff0000ff169490941761010061ffff90951694909402939093177fffffff0000000000000000000000000000000000000000000000000000ffffff16630100000065ffffffffffff909216919091027fffffff0000000000000000000000000000000000000000ffffffffffffffffff1617690100000000000000000073ffffffffffffffffffffffffffffffffffffffff90921691909102179055875189908b907fbe6dc180c545b9c03d152e2058d9c71d2c7a2f1b897461cd0a4a161ba011c1c3908b908590811061184a5761184a611f84565b602090810291909101810151604080518251151581528284015161ffff16938101939093528082015165ffffffffffff169083015260609081015173ffffffffffffffffffffffffffffffffffffffff169082015233608082015260a00160405180910390a3806118ba81611f1c565b9150506114ca565b50805460008255600202906000526020600020908101906118e39190611904565b50565b50805460008255906000526020600020908101906118e39190611969565b5b808211156119655780547fffffff00000000000000000000000000000000000000000000000000000000001681556001810180547fffffffffff000000000000000000000000000000000000000000000000000000169055600201611905565b5090565b5b808211156119655780547fffffff000000000000000000000000000000000000000000000000000000000016815560010161196a565b803561ffff811681146119b257600080fd5b919050565b803565ffffffffffff811681146119b257600080fd5b6000602082840312156119df57600080fd5b81516119ea81611fe2565b9392505050565b600060208284031215611a0357600080fd5b81516119ea81612004565b60008060408385031215611a2157600080fd5b50508035926020909101359150565b60008060006060808587031215611a4657600080fd5b84359350602080860135935060408087013567ffffffffffffffff811115611a6d57600080fd5b8701601f81018913611a7e57600080fd5b8035611a91611a8c82611ee0565b611e91565b8181528481019083860160c0808502860188018e1015611ab057600080fd5b600095505b84861015611b585780828f031215611acc57600080fd5b611ad4611e45565b8235611adf81612004565b8152611aec838a016119a0565b89820152611afb8884016119b7565b8882015289830135611b0c81611fe2565b818b0152608083810135611b1f81611fe2565b9082015260a08381013566ffffffffffffff81168114611b3e57600080fd5b908201528452600195909501949287019290810190611ab5565b5050809750505050505050509250925092565b600080600060608486031215611b8057600080fd5b83359250602080850135925060408086013567ffffffffffffffff811115611ba757600080fd5b8601601f81018813611bb857600080fd5b8035611bc6611a8c82611ee0565b8082825285820191508584018b878560071b8701011115611be657600080fd5b60009450845b84811015611c5d57608080838f031215611c04578687fd5b611c0c611e6e565b8335611c1781612004565b8152611c24848b016119a0565b8a820152611c338985016119b7565b898201526060840135611c4581611fe2565b60608201528552938801939190910190600101611bec565b50508096505050505050509250925092565b6020808252825182820181905260009190848201906040850190845b81811015611d1957611d0683855180511515825261ffff602082015116602083015265ffffffffffff6040820151166040830152606081015173ffffffffffffffffffffffffffffffffffffffff8082166060850152806080840151166080850152505066ffffffffffffff60a08201511660a08301525050565b9284019260c09290920191600101611c8b565b50909695505050505050565b6020808252825182820181905260009190848201906040850190845b81811015611d1957611d9983855180511515825261ffff602082015116602083015265ffffffffffff604082015116604083015273ffffffffffffffffffffffffffffffffffffffff60608201511660608301525050565b9284019260809290920191600101611d41565b60e08101611e22828580511515825261ffff602082015116602083015265ffffffffffff6040820151166040830152606081015173ffffffffffffffffffffffffffffffffffffffff8082166060850152806080840151166080850152505066ffffffffffffff60a08201511660a08301525050565b73ffffffffffffffffffffffffffffffffffffffff831660c08301529392505050565b60405160c0810167ffffffffffffffff81118282101715611e6857611e68611fb3565b60405290565b6040516080810167ffffffffffffffff81118282101715611e6857611e68611fb3565b604051601f82017fffffffffffffffffffffffffffffffffffffffffffffffffffffffffffffffe016810167ffffffffffffffff81118282101715611ed857611ed8611fb3565b604052919050565b600067ffffffffffffffff821115611efa57611efa611fb3565b5060051b60200190565b60008219821115611f1757611f17611f55565b500190565b60007fffffffffffffffffffffffffffffffffffffffffffffffffffffffffffffffff821415611f4e57611f4e611f55565b5060010190565b7f4e487b7100000000000000000000000000000000000000000000000000000000600052601160045260246000fd5b7f4e487b7100000000000000000000000000000000000000000000000000000000600052603260045260246000fd5b7f4e487b7100000000000000000000000000000000000000000000000000000000600052604160045260246000fd5b73ffffffffffffffffffffffffffffffffffffffff811681146118e357600080fd5b80151581146118e357600080fdfea26469706673582212205a5d32816c169d2198e4f46658296e6f48ab4f0be10c87771a1cd86bed7449a764736f6c63430008060033",
  "devdoc": {
    "details": "Mods can be used to distribute a percentage of payments or tickets to preconfigured beneficiaries.",
    "kind": "dev",
    "methods": {
      "constructor": {
        "params": {
          "_operatorStore": "A contract storing operator assignments.",
          "_projects": "The contract storing project information",
          "_terminalDirectory": "A directory of a project's current Juicebox terminal to receive payments in."
        }
      },
      "payoutModsOf(uint256,uint256)": {
        "params": {
          "_configuration": "The configuration to get mods for.",
          "_projectId": "The ID of the project to get mods for."
        },
        "returns": {
          "_0": "An array of all mods for the project."
        }
      },
      "setPayoutMods(uint256,uint256,(bool,uint16,uint48,address,address,uint56)[])": {
        "details": "Only the owner or operator of a project can make this call, or the current terminal of the project.",
        "params": {
          "_configuration": "The configuration to set the mods to be active during.",
          "_mods": "The payout mods to set.",
          "_projectId": "The project to add a mod to."
        }
      },
      "setTicketMods(uint256,uint256,(bool,uint16,uint48,address)[])": {
        "details": "Only the owner or operator of a project can make this call, or the current terminal of the project.",
        "params": {
          "_configuration": "The configuration to set the mods to be active during.",
          "_mods": "The ticket mods to set.",
          "_projectId": "The project to add a mod to."
        }
      },
      "ticketModsOf(uint256,uint256)": {
        "params": {
          "_configuration": "The configuration to get mods for.",
          "_projectId": "The ID of the project to get mods for."
        },
        "returns": {
          "_0": "An array of all mods for the project."
        }
      }
    },
    "version": 1
  },
  "userdoc": {
    "kind": "user",
    "methods": {
      "operatorStore()": {
        "notice": "A contract storing operator assignments."
      },
      "payoutModsOf(uint256,uint256)": {
        "notice": " Get all payout mods for the specified project ID."
      },
      "projects()": {
        "notice": "The contract storing project information."
      },
      "setPayoutMods(uint256,uint256,(bool,uint16,uint48,address,address,uint56)[])": {
        "notice": " Adds a mod to the payout mods list."
      },
      "setTicketMods(uint256,uint256,(bool,uint16,uint48,address)[])": {
        "notice": " Adds a mod to the ticket mods list."
      },
      "terminalDirectory()": {
        "notice": "The direct deposit terminals."
      },
      "ticketModsOf(uint256,uint256)": {
        "notice": " Get all ticket mods for the specified project ID."
      }
    },
    "notice": "Stores mods for each project.",
    "version": 1
  },
  "storageLayout": {
    "storage": [
      {
        "astId": 6993,
        "contract": "contracts/ModStore.sol:ModStore",
        "label": "_payoutModsOf",
        "offset": 0,
        "slot": "0",
        "type": "t_mapping(t_uint256,t_mapping(t_uint256,t_array(t_struct(PayoutMod)16496_storage)dyn_storage))"
      },
      {
        "astId": 7001,
        "contract": "contracts/ModStore.sol:ModStore",
        "label": "_ticketModsOf",
        "offset": 0,
        "slot": "1",
        "type": "t_mapping(t_uint256,t_mapping(t_uint256,t_array(t_struct(TicketMod)16505_storage)dyn_storage))"
      }
    ],
    "types": {
      "t_address_payable": {
        "encoding": "inplace",
        "label": "address payable",
        "numberOfBytes": "20"
      },
      "t_array(t_struct(PayoutMod)16496_storage)dyn_storage": {
        "base": "t_struct(PayoutMod)16496_storage",
        "encoding": "dynamic_array",
        "label": "struct PayoutMod[]",
        "numberOfBytes": "32"
      },
      "t_array(t_struct(TicketMod)16505_storage)dyn_storage": {
        "base": "t_struct(TicketMod)16505_storage",
        "encoding": "dynamic_array",
        "label": "struct TicketMod[]",
        "numberOfBytes": "32"
      },
      "t_bool": {
        "encoding": "inplace",
        "label": "bool",
        "numberOfBytes": "1"
      },
      "t_contract(IModAllocator)16477": {
        "encoding": "inplace",
        "label": "contract IModAllocator",
        "numberOfBytes": "20"
      },
      "t_mapping(t_uint256,t_array(t_struct(PayoutMod)16496_storage)dyn_storage)": {
        "encoding": "mapping",
        "key": "t_uint256",
        "label": "mapping(uint256 => struct PayoutMod[])",
        "numberOfBytes": "32",
        "value": "t_array(t_struct(PayoutMod)16496_storage)dyn_storage"
      },
      "t_mapping(t_uint256,t_array(t_struct(TicketMod)16505_storage)dyn_storage)": {
        "encoding": "mapping",
        "key": "t_uint256",
        "label": "mapping(uint256 => struct TicketMod[])",
        "numberOfBytes": "32",
        "value": "t_array(t_struct(TicketMod)16505_storage)dyn_storage"
      },
      "t_mapping(t_uint256,t_mapping(t_uint256,t_array(t_struct(PayoutMod)16496_storage)dyn_storage))": {
        "encoding": "mapping",
        "key": "t_uint256",
        "label": "mapping(uint256 => mapping(uint256 => struct PayoutMod[]))",
        "numberOfBytes": "32",
        "value": "t_mapping(t_uint256,t_array(t_struct(PayoutMod)16496_storage)dyn_storage)"
      },
      "t_mapping(t_uint256,t_mapping(t_uint256,t_array(t_struct(TicketMod)16505_storage)dyn_storage))": {
        "encoding": "mapping",
        "key": "t_uint256",
        "label": "mapping(uint256 => mapping(uint256 => struct TicketMod[]))",
        "numberOfBytes": "32",
        "value": "t_mapping(t_uint256,t_array(t_struct(TicketMod)16505_storage)dyn_storage)"
      },
      "t_struct(PayoutMod)16496_storage": {
        "encoding": "inplace",
        "label": "struct PayoutMod",
        "members": [
          {
            "astId": 16484,
            "contract": "contracts/ModStore.sol:ModStore",
            "label": "preferUnstaked",
            "offset": 0,
            "slot": "0",
            "type": "t_bool"
          },
          {
            "astId": 16486,
            "contract": "contracts/ModStore.sol:ModStore",
            "label": "percent",
            "offset": 1,
            "slot": "0",
            "type": "t_uint16"
          },
          {
            "astId": 16488,
            "contract": "contracts/ModStore.sol:ModStore",
            "label": "lockedUntil",
            "offset": 3,
            "slot": "0",
            "type": "t_uint48"
          },
          {
            "astId": 16490,
            "contract": "contracts/ModStore.sol:ModStore",
            "label": "beneficiary",
            "offset": 9,
            "slot": "0",
            "type": "t_address_payable"
          },
          {
            "astId": 16493,
            "contract": "contracts/ModStore.sol:ModStore",
            "label": "allocator",
            "offset": 0,
            "slot": "1",
            "type": "t_contract(IModAllocator)16477"
          },
          {
            "astId": 16495,
            "contract": "contracts/ModStore.sol:ModStore",
            "label": "projectId",
            "offset": 20,
            "slot": "1",
            "type": "t_uint56"
          }
        ],
        "numberOfBytes": "64"
      },
      "t_struct(TicketMod)16505_storage": {
        "encoding": "inplace",
        "label": "struct TicketMod",
        "members": [
          {
            "astId": 16498,
            "contract": "contracts/ModStore.sol:ModStore",
            "label": "preferUnstaked",
            "offset": 0,
            "slot": "0",
            "type": "t_bool"
          },
          {
            "astId": 16500,
            "contract": "contracts/ModStore.sol:ModStore",
            "label": "percent",
            "offset": 1,
            "slot": "0",
            "type": "t_uint16"
          },
          {
            "astId": 16502,
            "contract": "contracts/ModStore.sol:ModStore",
            "label": "lockedUntil",
            "offset": 3,
            "slot": "0",
            "type": "t_uint48"
          },
          {
            "astId": 16504,
            "contract": "contracts/ModStore.sol:ModStore",
            "label": "beneficiary",
            "offset": 9,
            "slot": "0",
            "type": "t_address_payable"
          }
        ],
        "numberOfBytes": "32"
      },
      "t_uint16": {
        "encoding": "inplace",
        "label": "uint16",
        "numberOfBytes": "2"
      },
      "t_uint256": {
        "encoding": "inplace",
        "label": "uint256",
        "numberOfBytes": "32"
      },
      "t_uint48": {
        "encoding": "inplace",
        "label": "uint48",
        "numberOfBytes": "6"
      },
      "t_uint56": {
        "encoding": "inplace",
        "label": "uint56",
        "numberOfBytes": "7"
      }
    }
  }
}