{
  "address": "0x4209E149F3c9A0F1AFd87AE305968dEa1c7e658e",
  "abi": [
    {
      "inputs": [
        {
          "internalType": "contract IOperatorStore",
          "name": "_operatorStore",
          "type": "address"
        }
      ],
      "stateMutability": "nonpayable",
      "type": "constructor"
    },
    {
      "anonymous": false,
      "inputs": [
        {
          "indexed": true,
          "internalType": "address",
          "name": "owner",
          "type": "address"
        },
        {
          "indexed": true,
          "internalType": "address",
          "name": "approved",
          "type": "address"
        },
        {
          "indexed": true,
          "internalType": "uint256",
          "name": "tokenId",
          "type": "uint256"
        }
      ],
      "name": "Approval",
      "type": "event"
    },
    {
      "anonymous": false,
      "inputs": [
        {
          "indexed": true,
          "internalType": "address",
          "name": "owner",
          "type": "address"
        },
        {
          "indexed": true,
          "internalType": "address",
          "name": "operator",
          "type": "address"
        },
        {
          "indexed": false,
          "internalType": "bool",
          "name": "approved",
          "type": "bool"
        }
      ],
      "name": "ApprovalForAll",
      "type": "event"
    },
    {
      "anonymous": false,
      "inputs": [
        {
          "indexed": true,
          "internalType": "bytes32",
          "name": "handle",
          "type": "bytes32"
        },
        {
          "indexed": false,
          "internalType": "uint256",
          "name": "challengeExpiry",
          "type": "uint256"
        },
        {
          "indexed": false,
          "internalType": "address",
          "name": "caller",
          "type": "address"
        }
      ],
      "name": "ChallengeHandle",
      "type": "event"
    },
    {
      "anonymous": false,
      "inputs": [
        {
          "indexed": true,
          "internalType": "address",
          "name": "account",
          "type": "address"
        },
        {
          "indexed": true,
          "internalType": "uint256",
          "name": "projectId",
          "type": "uint256"
        },
        {
          "indexed": true,
          "internalType": "bytes32",
          "name": "handle",
          "type": "bytes32"
        },
        {
          "indexed": false,
          "internalType": "address",
          "name": "caller",
          "type": "address"
        }
      ],
      "name": "ClaimHandle",
      "type": "event"
    },
    {
      "anonymous": false,
      "inputs": [
        {
          "indexed": true,
          "internalType": "uint256",
          "name": "projectId",
          "type": "uint256"
        },
        {
          "indexed": true,
          "internalType": "address",
          "name": "owner",
          "type": "address"
        },
        {
          "indexed": true,
          "internalType": "bytes32",
          "name": "handle",
          "type": "bytes32"
        },
        {
          "indexed": false,
          "internalType": "string",
          "name": "uri",
          "type": "string"
        },
        {
          "indexed": false,
          "internalType": "contract ITerminal",
          "name": "terminal",
          "type": "address"
        },
        {
          "indexed": false,
          "internalType": "address",
          "name": "caller",
          "type": "address"
        }
      ],
      "name": "Create",
      "type": "event"
    },
    {
      "anonymous": false,
      "inputs": [
        {
          "indexed": true,
          "internalType": "bytes32",
          "name": "handle",
          "type": "bytes32"
        },
        {
          "indexed": true,
          "internalType": "uint256",
          "name": "projectId",
          "type": "uint256"
        },
        {
          "indexed": false,
          "internalType": "address",
          "name": "caller",
          "type": "address"
        }
      ],
      "name": "RenewHandle",
      "type": "event"
    },
    {
      "anonymous": false,
      "inputs": [
        {
          "indexed": true,
          "internalType": "uint256",
          "name": "projectId",
          "type": "uint256"
        },
        {
          "indexed": true,
          "internalType": "bytes32",
          "name": "handle",
          "type": "bytes32"
        },
        {
          "indexed": false,
          "internalType": "address",
          "name": "caller",
          "type": "address"
        }
      ],
      "name": "SetHandle",
      "type": "event"
    },
    {
      "anonymous": false,
      "inputs": [
        {
          "indexed": true,
          "internalType": "uint256",
          "name": "projectId",
          "type": "uint256"
        },
        {
          "indexed": false,
          "internalType": "string",
          "name": "uri",
          "type": "string"
        },
        {
          "indexed": false,
          "internalType": "address",
          "name": "caller",
          "type": "address"
        }
      ],
      "name": "SetUri",
      "type": "event"
    },
    {
      "anonymous": false,
      "inputs": [
        {
          "indexed": true,
          "internalType": "address",
          "name": "from",
          "type": "address"
        },
        {
          "indexed": true,
          "internalType": "address",
          "name": "to",
          "type": "address"
        },
        {
          "indexed": true,
          "internalType": "uint256",
          "name": "tokenId",
          "type": "uint256"
        }
      ],
      "name": "Transfer",
      "type": "event"
    },
    {
      "anonymous": false,
      "inputs": [
        {
          "indexed": true,
          "internalType": "uint256",
          "name": "projectId",
          "type": "uint256"
        },
        {
          "indexed": true,
          "internalType": "address",
          "name": "to",
          "type": "address"
        },
        {
          "indexed": true,
          "internalType": "bytes32",
          "name": "handle",
          "type": "bytes32"
        },
        {
          "indexed": false,
          "internalType": "bytes32",
          "name": "newHandle",
          "type": "bytes32"
        },
        {
          "indexed": false,
          "internalType": "address",
          "name": "caller",
          "type": "address"
        }
      ],
      "name": "TransferHandle",
      "type": "event"
    },
    {
      "inputs": [
        {
          "internalType": "address",
          "name": "to",
          "type": "address"
        },
        {
          "internalType": "uint256",
          "name": "tokenId",
          "type": "uint256"
        }
      ],
      "name": "approve",
      "outputs": [],
      "stateMutability": "nonpayable",
      "type": "function"
    },
    {
      "inputs": [
        {
          "internalType": "address",
          "name": "owner",
          "type": "address"
        }
      ],
      "name": "balanceOf",
      "outputs": [
        {
          "internalType": "uint256",
          "name": "",
          "type": "uint256"
        }
      ],
      "stateMutability": "view",
      "type": "function"
    },
    {
      "inputs": [
        {
          "internalType": "bytes32",
          "name": "",
          "type": "bytes32"
        }
      ],
      "name": "challengeExpiryOf",
      "outputs": [
        {
          "internalType": "uint256",
          "name": "",
          "type": "uint256"
        }
      ],
      "stateMutability": "view",
      "type": "function"
    },
    {
      "inputs": [
        {
          "internalType": "bytes32",
          "name": "_handle",
          "type": "bytes32"
        }
      ],
      "name": "challengeHandle",
      "outputs": [],
      "stateMutability": "nonpayable",
      "type": "function"
    },
    {
      "inputs": [
        {
          "internalType": "bytes32",
          "name": "_handle",
          "type": "bytes32"
        },
        {
          "internalType": "address",
          "name": "_for",
          "type": "address"
        },
        {
          "internalType": "uint256",
          "name": "_projectId",
          "type": "uint256"
        }
      ],
      "name": "claimHandle",
      "outputs": [],
      "stateMutability": "nonpayable",
      "type": "function"
    },
    {
      "inputs": [],
      "name": "count",
      "outputs": [
        {
          "internalType": "uint256",
          "name": "",
          "type": "uint256"
        }
      ],
      "stateMutability": "view",
      "type": "function"
    },
    {
      "inputs": [
        {
          "internalType": "address",
          "name": "_owner",
          "type": "address"
        },
        {
          "internalType": "bytes32",
          "name": "_handle",
          "type": "bytes32"
        },
        {
          "internalType": "string",
          "name": "_uri",
          "type": "string"
        },
        {
          "internalType": "contract ITerminal",
          "name": "_terminal",
          "type": "address"
        }
      ],
      "name": "create",
      "outputs": [
        {
          "internalType": "uint256",
          "name": "",
          "type": "uint256"
        }
      ],
      "stateMutability": "nonpayable",
      "type": "function"
    },
    {
      "inputs": [
        {
          "internalType": "uint256",
          "name": "_projectId",
          "type": "uint256"
        }
      ],
      "name": "exists",
      "outputs": [
        {
          "internalType": "bool",
          "name": "",
          "type": "bool"
        }
      ],
      "stateMutability": "view",
      "type": "function"
    },
    {
      "inputs": [
        {
          "internalType": "uint256",
          "name": "tokenId",
          "type": "uint256"
        }
      ],
      "name": "getApproved",
      "outputs": [
        {
          "internalType": "address",
          "name": "",
          "type": "address"
        }
      ],
      "stateMutability": "view",
      "type": "function"
    },
    {
      "inputs": [
        {
          "internalType": "uint256",
          "name": "",
          "type": "uint256"
        }
      ],
      "name": "handleOf",
      "outputs": [
        {
          "internalType": "bytes32",
          "name": "",
          "type": "bytes32"
        }
      ],
      "stateMutability": "view",
      "type": "function"
    },
    {
      "inputs": [
        {
          "internalType": "address",
          "name": "owner",
          "type": "address"
        },
        {
          "internalType": "address",
          "name": "operator",
          "type": "address"
        }
      ],
      "name": "isApprovedForAll",
      "outputs": [
        {
          "internalType": "bool",
          "name": "",
          "type": "bool"
        }
      ],
      "stateMutability": "view",
      "type": "function"
    },
    {
      "inputs": [],
      "name": "name",
      "outputs": [
        {
          "internalType": "string",
          "name": "",
          "type": "string"
        }
      ],
      "stateMutability": "view",
      "type": "function"
    },
    {
      "inputs": [],
      "name": "operatorStore",
      "outputs": [
        {
          "internalType": "contract IOperatorStore",
          "name": "",
          "type": "address"
        }
      ],
      "stateMutability": "view",
      "type": "function"
    },
    {
      "inputs": [
        {
          "internalType": "uint256",
          "name": "tokenId",
          "type": "uint256"
        }
      ],
      "name": "ownerOf",
      "outputs": [
        {
          "internalType": "address",
          "name": "",
          "type": "address"
        }
      ],
      "stateMutability": "view",
      "type": "function"
    },
    {
      "inputs": [
        {
          "internalType": "bytes32",
          "name": "",
          "type": "bytes32"
        }
      ],
      "name": "projectFor",
      "outputs": [
        {
          "internalType": "uint256",
          "name": "",
          "type": "uint256"
        }
      ],
      "stateMutability": "view",
      "type": "function"
    },
    {
      "inputs": [
        {
          "internalType": "uint256",
          "name": "_projectId",
          "type": "uint256"
        }
      ],
      "name": "renewHandle",
      "outputs": [],
      "stateMutability": "nonpayable",
      "type": "function"
    },
    {
      "inputs": [
        {
          "internalType": "address",
          "name": "from",
          "type": "address"
        },
        {
          "internalType": "address",
          "name": "to",
          "type": "address"
        },
        {
          "internalType": "uint256",
          "name": "tokenId",
          "type": "uint256"
        }
      ],
      "name": "safeTransferFrom",
      "outputs": [],
      "stateMutability": "nonpayable",
      "type": "function"
    },
    {
      "inputs": [
        {
          "internalType": "address",
          "name": "from",
          "type": "address"
        },
        {
          "internalType": "address",
          "name": "to",
          "type": "address"
        },
        {
          "internalType": "uint256",
          "name": "tokenId",
          "type": "uint256"
        },
        {
          "internalType": "bytes",
          "name": "_data",
          "type": "bytes"
        }
      ],
      "name": "safeTransferFrom",
      "outputs": [],
      "stateMutability": "nonpayable",
      "type": "function"
    },
    {
      "inputs": [
        {
          "internalType": "address",
          "name": "operator",
          "type": "address"
        },
        {
          "internalType": "bool",
          "name": "approved",
          "type": "bool"
        }
      ],
      "name": "setApprovalForAll",
      "outputs": [],
      "stateMutability": "nonpayable",
      "type": "function"
    },
    {
      "inputs": [
        {
          "internalType": "uint256",
          "name": "_projectId",
          "type": "uint256"
        },
        {
          "internalType": "bytes32",
          "name": "_handle",
          "type": "bytes32"
        }
      ],
      "name": "setHandle",
      "outputs": [],
      "stateMutability": "nonpayable",
      "type": "function"
    },
    {
      "inputs": [
        {
          "internalType": "uint256",
          "name": "_projectId",
          "type": "uint256"
        },
        {
          "internalType": "string",
          "name": "_uri",
          "type": "string"
        }
      ],
      "name": "setUri",
      "outputs": [],
      "stateMutability": "nonpayable",
      "type": "function"
    },
    {
      "inputs": [
        {
          "internalType": "bytes4",
          "name": "interfaceId",
          "type": "bytes4"
        }
      ],
      "name": "supportsInterface",
      "outputs": [
        {
          "internalType": "bool",
          "name": "",
          "type": "bool"
        }
      ],
      "stateMutability": "view",
      "type": "function"
    },
    {
      "inputs": [],
      "name": "symbol",
      "outputs": [
        {
          "internalType": "string",
          "name": "",
          "type": "string"
        }
      ],
      "stateMutability": "view",
      "type": "function"
    },
    {
      "inputs": [
        {
          "internalType": "uint256",
          "name": "tokenId",
          "type": "uint256"
        }
      ],
      "name": "tokenURI",
      "outputs": [
        {
          "internalType": "string",
          "name": "",
          "type": "string"
        }
      ],
      "stateMutability": "view",
      "type": "function"
    },
    {
      "inputs": [
        {
          "internalType": "bytes32",
          "name": "",
          "type": "bytes32"
        }
      ],
      "name": "transferAddressFor",
      "outputs": [
        {
          "internalType": "address",
          "name": "",
          "type": "address"
        }
      ],
      "stateMutability": "view",
      "type": "function"
    },
    {
      "inputs": [
        {
          "internalType": "address",
          "name": "from",
          "type": "address"
        },
        {
          "internalType": "address",
          "name": "to",
          "type": "address"
        },
        {
          "internalType": "uint256",
          "name": "tokenId",
          "type": "uint256"
        }
      ],
      "name": "transferFrom",
      "outputs": [],
      "stateMutability": "nonpayable",
      "type": "function"
    },
    {
      "inputs": [
        {
          "internalType": "uint256",
          "name": "_projectId",
          "type": "uint256"
        },
        {
          "internalType": "address",
          "name": "_to",
          "type": "address"
        },
        {
          "internalType": "bytes32",
          "name": "_newHandle",
          "type": "bytes32"
        }
      ],
      "name": "transferHandle",
      "outputs": [
        {
          "internalType": "bytes32",
          "name": "_handle",
          "type": "bytes32"
        }
      ],
      "stateMutability": "nonpayable",
      "type": "function"
    },
    {
      "inputs": [
        {
          "internalType": "uint256",
          "name": "",
          "type": "uint256"
        }
      ],
      "name": "uriOf",
      "outputs": [
        {
          "internalType": "string",
          "name": "",
          "type": "string"
        }
      ],
      "stateMutability": "view",
      "type": "function"
    }
  ],
  "transactionHash": "0xf144ce7ff3d701b6b4d00543fc6b56393667b17018d94f6d5edcaec65062378a",
  "args": [
    "0x6146588A8Ef03bf8dcBb0519Cc23c7187C7d5026"
  ],
  "solcInputHash": "b611a48ccf636fef65065ee937e0c17d",
  "bytecode": "0x60a060405260006006553480156200001657600080fd5b50604051620031953803806200319583398101604081905262000039916200017a565b806040518060400160405280601081526020016f129d5a58d9589bde081c1c9bda9958dd60821b8152506040518060400160405280601081526020016f12955250d15093d608141493d29150d560821b8152508160009080519060200190620000a4929190620000d4565b508051620000ba906001906020840190620000d4565b50505060601b6001600160601b03191660805250620001e9565b828054620000e290620001ac565b90600052602060002090601f01602090048101928262000106576000855562000151565b82601f106200012157805160ff191683800117855562000151565b8280016001018555821562000151579182015b828111156200015157825182559160200191906001019062000134565b506200015f92915062000163565b5090565b5b808211156200015f576000815560010162000164565b6000602082840312156200018d57600080fd5b81516001600160a01b0381168114620001a557600080fd5b9392505050565b600181811c90821680620001c157607f821691505b60208210811415620001e357634e487b7160e01b600052602260045260246000fd5b50919050565b60805160601c612f5c62000239600039600081816103a10152818161083f01528181610e430152818161113f015281816113e7015281816119e601528181611ab20152611be20152612f5c6000f3fe608060405234801561001057600080fd5b50600436106101c45760003560e01c806375549979116100f9578063ad007d6311610097578063c87b56dd11610071578063c87b56dd146103f6578063d39afed914610409578063e985e9c514610432578063fc1dd6de1461046e57600080fd5b8063ad007d631461039c578063b88d4fde146103c3578063ba8e8c1d146103d657600080fd5b806395402960116100d3578063954029601461034e57806395d89b411461036e578063a22cb46514610376578063a312889b1461038957600080fd5b80637554997914610315578063782f08ae146103285780637b0230141461033b57600080fd5b806323b872dd116101665780634f558e79116101405780634f558e79146102c95780636352211e146102dc57806370a08231146102ef57806370ea45f51461030257600080fd5b806323b872dd1461028357806342842e0e1461029657806349491987146102a957600080fd5b8063081812fc116101a2578063081812fc1461021d578063095ea7b3146102485780630ddf6aee1461025d57806317753c461461027057600080fd5b806301ffc9a7146101c957806306661abd146101f157806306fdde0314610208575b600080fd5b6101dc6101d7366004612ace565b610481565b60405190151581526020015b60405180910390f35b6101fa60065481565b6040519081526020016101e8565b610210610566565b6040516101e89190612cf3565b61023061022b366004612a8e565b6105f8565b6040516001600160a01b0390911681526020016101e8565b61025b610256366004612a45565b6106a3565b005b61025b61026b366004612a8e565b6107d5565b6101fa61027e3660046129d1565b610960565b61025b610291366004612864565b610bf1565b61025b6102a4366004612864565b610c78565b6101fa6102b7366004612a8e565b60086020526000908152604090205481565b6101dc6102d7366004612a8e565b610c93565b6102306102ea366004612a8e565b610cb2565b6101fa6102fd36600461280e565b610d3d565b6101fa610310366004612aa7565b610dd7565b61025b610323366004612b25565b6110d5565b61025b610336366004612b47565b61137d565b61025b610349366004612a8e565b61150b565b6101fa61035c366004612a8e565b60096020526000908152604090205481565b610210611674565b61025b6103843660046129a3565b611683565b610210610397366004612a8e565b611766565b6102307f000000000000000000000000000000000000000000000000000000000000000081565b61025b6103d13660046128a5565b611800565b6101fa6103e4366004612a8e565b600b6020526000908152604090205481565b610210610404366004612a8e565b61188e565b610230610417366004612a8e565b600a602052600090815260409020546001600160a01b031681565b6101dc61044036600461282b565b6001600160a01b03918216600090815260056020908152604080832093909416825291909152205460ff1690565b61025b61047c366004612aa7565b611984565b60007fffffffff0000000000000000000000000000000000000000000000000000000082167f80ac58cd00000000000000000000000000000000000000000000000000000000148061051457507fffffffff0000000000000000000000000000000000000000000000000000000082167f5b5e139f00000000000000000000000000000000000000000000000000000000145b8061056057507f01ffc9a7000000000000000000000000000000000000000000000000000000007fffffffff000000000000000000000000000000000000000000000000000000008316145b92915050565b60606000805461057590612d75565b80601f01602080910402602001604051908101604052809291908181526020018280546105a190612d75565b80156105ee5780601f106105c3576101008083540402835291602001916105ee565b820191906000526020600020905b8154815290600101906020018083116105d157829003601f168201915b5050505050905090565b6000818152600260205260408120546001600160a01b03166106875760405162461bcd60e51b815260206004820152602c60248201527f4552433732313a20617070726f76656420717565727920666f72206e6f6e657860448201527f697374656e7420746f6b656e000000000000000000000000000000000000000060648201526084015b60405180910390fd5b506000908152600460205260409020546001600160a01b031690565b60006106ae82610cb2565b9050806001600160a01b0316836001600160a01b031614156107385760405162461bcd60e51b815260206004820152602160248201527f4552433732313a20617070726f76616c20746f2063757272656e74206f776e6560448201527f7200000000000000000000000000000000000000000000000000000000000000606482015260840161067e565b336001600160a01b038216148061075457506107548133610440565b6107c65760405162461bcd60e51b815260206004820152603860248201527f4552433732313a20617070726f76652063616c6c6572206973206e6f74206f7760448201527f6e6572206e6f7220617070726f76656420666f7220616c6c0000000000000000606482015260840161067e565b6107d08383611e14565b505050565b6107de81610cb2565b816008336001600160a01b03841614806108b957506040517fc161c93f0000000000000000000000000000000000000000000000000000000081523360048201526001600160a01b03848116602483015260448201849052606482018390527f0000000000000000000000000000000000000000000000000000000000000000169063c161c93f9060840160206040518083038186803b15801561088157600080fd5b505afa158015610895573d6000803e3d6000fd5b505050506040513d601f19601f820116820180604052508101906108b99190612a71565b6109055760405162461bcd60e51b815260206004820152601860248201527f4f706572617461626c653a20554e415554484f52495a45440000000000000000604482015260640161067e565b600084815260086020908152604080832054808452600b83528184209390935551338152869183917f6eec1e60946fbfd12ab0bde53c7c27478f3c07b42ffea7d25a719af24590eebf91015b60405180910390a35050505050565b6000846109af5760405162461bcd60e51b815260206004820152601e60248201527f50726f6a656374733a3a6372656174653a20454d5054595f48414e444c450000604482015260640161067e565b6000858152600960205260409020541580156109e057506000858152600a60205260409020546001600160a01b0316155b610a2c5760405162461bcd60e51b815260206004820152601e60248201527f50726f6a656374733a3a6372656174653a2048414e444c455f54414b454e0000604482015260640161067e565b60068054906000610a3c83612dc9565b9190505550610a4d86600654611e9a565b60068054600090815260086020908152604080832089905592548883526009909152919020558215610a97576006546000908152600760205260409020610a9590858561270e565b505b6001600160a01b03821615610b9957816001600160a01b0316636abcf8e36040518163ffffffff1660e01b815260040160206040518083038186803b158015610adf57600080fd5b505afa158015610af3573d6000803e3d6000fd5b505050506040513d601f19601f82011682018060405250810190610b179190612b08565b6006546040517f9fc9ea4700000000000000000000000000000000000000000000000000000000815260048101919091526001600160a01b0384811660248301529190911690639fc9ea4790604401600060405180830381600087803b158015610b8057600080fd5b505af1158015610b94573d6000803e3d6000fd5b505050505b84866001600160a01b03166006547f06e07e862bc5e6be67193c75556d1659653327c7846a45ee9921c917717395d887878733604051610bdc9493929190612cbe565b60405180910390a45060065495945050505050565b610bfb3382611eb8565b610c6d5760405162461bcd60e51b815260206004820152603160248201527f4552433732313a207472616e736665722063616c6c6572206973206e6f74206f60448201527f776e6572206e6f7220617070726f766564000000000000000000000000000000606482015260840161067e565b6107d0838383611fc0565b6107d083838360405180602001604052806000815250611800565b6000818152600260205260408120546001600160a01b03161515610560565b6000818152600260205260408120546001600160a01b0316806105605760405162461bcd60e51b815260206004820152602960248201527f4552433732313a206f776e657220717565727920666f72206e6f6e657869737460448201527f656e7420746f6b656e0000000000000000000000000000000000000000000000606482015260840161067e565b60006001600160a01b038216610dbb5760405162461bcd60e51b815260206004820152602a60248201527f4552433732313a2062616c616e636520717565727920666f7220746865207a6560448201527f726f206164647265737300000000000000000000000000000000000000000000606482015260840161067e565b506001600160a01b031660009081526003602052604090205490565b6000610de284610cb2565b846005336001600160a01b0384161480610ebd57506040517fc161c93f0000000000000000000000000000000000000000000000000000000081523360048201526001600160a01b03848116602483015260448201849052606482018390527f0000000000000000000000000000000000000000000000000000000000000000169063c161c93f9060840160206040518083038186803b158015610e8557600080fd5b505afa158015610e99573d6000803e3d6000fd5b505050506040513d601f19601f82011682018060405250810190610ebd9190612a71565b610f095760405162461bcd60e51b815260206004820152601860248201527f4f706572617461626c653a20554e415554484f52495a45440000000000000000604482015260640161067e565b84610f7c5760405162461bcd60e51b815260206004820152602660248201527f50726f6a656374733a3a7472616e7366657248616e646c653a20454d5054595f60448201527f48414e444c450000000000000000000000000000000000000000000000000000606482015260840161067e565b600085815260096020526040902054158015610fad57506000848152600a60205260409020546001600160a01b0316155b61101f5760405162461bcd60e51b815260206004820152602660248201527f50726f6a656374733a3a7472616e7366657248616e646c653a2048414e444c4560448201527f5f54414b454e0000000000000000000000000000000000000000000000000000606482015260840161067e565b60008781526008602090815260408083208054808552600984528285208590558985528285208c905590899055808452600a83529281902080547fffffffffffffffffffffffff0000000000000000000000000000000000000000166001600160a01b038b16908117909155815189815233938101939093529296508692918a917fd46a8ff77c59c98b930d834768ba8d0983b5a0b99ebbd12af00f2f182eeeeee1910160405180910390a45050509392505050565b6110de82610cb2565b826005336001600160a01b03841614806111b957506040517fc161c93f0000000000000000000000000000000000000000000000000000000081523360048201526001600160a01b03848116602483015260448201849052606482018390527f0000000000000000000000000000000000000000000000000000000000000000169063c161c93f9060840160206040518083038186803b15801561118157600080fd5b505afa158015611195573d6000803e3d6000fd5b505050506040513d601f19601f820116820180604052508101906111b99190612a71565b6112055760405162461bcd60e51b815260206004820152601860248201527f4f706572617461626c653a20554e415554484f52495a45440000000000000000604482015260640161067e565b836112785760405162461bcd60e51b815260206004820152602160248201527f50726f6a656374733a3a73657448616e646c653a20454d5054595f48414e444c60448201527f4500000000000000000000000000000000000000000000000000000000000000606482015260840161067e565b6000848152600960205260409020541580156112a957506000848152600a60205260409020546001600160a01b0316155b61131b5760405162461bcd60e51b815260206004820152602160248201527f50726f6a656374733a3a73657448616e646c653a2048414e444c455f54414b4560448201527f4e00000000000000000000000000000000000000000000000000000000000000606482015260840161067e565b600085815260086020818152604080842080548552600983528185208590558885528185208a9055938990529181529186905551338152859187917e079d7af084def275bc880ac88a2e556cf9a2001231b27a71d0082607876ac59101610951565b61138683610cb2565b836006336001600160a01b038416148061146157506040517fc161c93f0000000000000000000000000000000000000000000000000000000081523360048201526001600160a01b03848116602483015260448201849052606482018390527f0000000000000000000000000000000000000000000000000000000000000000169063c161c93f9060840160206040518083038186803b15801561142957600080fd5b505afa15801561143d573d6000803e3d6000fd5b505050506040513d601f19601f820116820180604052508101906114619190612a71565b6114ad5760405162461bcd60e51b815260206004820152601860248201527f4f706572617461626c653a20554e415554484f52495a45440000000000000000604482015260640161067e565b60008681526007602052604090206114c690868661270e565b50857f0f3d240fe5efaeda774d27bf0425f932ddd2098297b26de8070d6c8bef534b168686336040516114fb93929190612c91565b60405180910390a2505050505050565b60008181526009602052604090205461158c5760405162461bcd60e51b815260206004820152602560248201527f50726f6a656374733a3a6368616c6c656e67653a2048414e444c455f4e4f545f60448201527f54414b454e000000000000000000000000000000000000000000000000000000606482015260840161067e565b6000818152600b60205260409020541561160e5760405162461bcd60e51b815260206004820152603460248201527f50726f6a656374733a3a6368616c6c656e67653a2048414e444c455f414c524560448201527f4144595f4245494e475f4348414c4c454e474544000000000000000000000000606482015260840161067e565b600061161e6301e1338042612d06565b6000838152600b60209081526040918290208390558151838152339181019190915291925083917faf2127fffe00ce10845b5f12864ad13e3dee324decf80640437b2414f095cba2910160405180910390a25050565b60606001805461057590612d75565b6001600160a01b0382163314156116dc5760405162461bcd60e51b815260206004820152601960248201527f4552433732313a20617070726f766520746f2063616c6c657200000000000000604482015260640161067e565b3360008181526005602090815260408083206001600160a01b0387168085529083529281902080547fffffffffffffffffffffffffffffffffffffffffffffffffffffffffffffff001686151590811790915590519081529192917f17307eab39ab6107e8899845ad3d59bd9653f200f220920489ca2b5937696c31910160405180910390a35050565b6007602052600090815260409020805461177f90612d75565b80601f01602080910402602001604051908101604052809291908181526020018280546117ab90612d75565b80156117f85780601f106117cd576101008083540402835291602001916117f8565b820191906000526020600020905b8154815290600101906020018083116117db57829003601f168201915b505050505081565b61180a3383611eb8565b61187c5760405162461bcd60e51b815260206004820152603160248201527f4552433732313a207472616e736665722063616c6c6572206973206e6f74206f60448201527f776e6572206e6f7220617070726f766564000000000000000000000000000000606482015260840161067e565b611888848484846121a5565b50505050565b6000818152600260205260409020546060906001600160a01b031661191b5760405162461bcd60e51b815260206004820152602f60248201527f4552433732314d657461646174613a2055524920717565727920666f72206e6f60448201527f6e6578697374656e7420746f6b656e0000000000000000000000000000000000606482015260840161067e565b600061193260408051602081019091526000815290565b90506000815111611952576040518060200160405280600081525061197d565b8061195c8461222e565b60405160200161196d929190612c26565b6040516020818303038152906040525b9392505050565b81816007336001600160a01b0384161480611a6057506040517fc161c93f0000000000000000000000000000000000000000000000000000000081523360048201526001600160a01b03848116602483015260448201849052606482018390527f0000000000000000000000000000000000000000000000000000000000000000169063c161c93f9060840160206040518083038186803b158015611a2857600080fd5b505afa158015611a3c573d6000803e3d6000fd5b505050506040513d601f19601f82011682018060405250810190611a609190612a71565b80611b2c57506040517fc161c93f0000000000000000000000000000000000000000000000000000000081523360048201526001600160a01b03848116602483015260006044830152606482018390527f0000000000000000000000000000000000000000000000000000000000000000169063c161c93f9060840160206040518083038186803b158015611af457600080fd5b505afa158015611b08573d6000803e3d6000fd5b505050506040513d601f19601f82011682018060405250810190611b2c9190612a71565b611b785760405162461bcd60e51b815260206004820152601860248201527f4f706572617461626c653a20554e415554484f52495a45440000000000000000604482015260640161067e565b611b8184610cb2565b846007336001600160a01b0384161480611c5c57506040517fc161c93f0000000000000000000000000000000000000000000000000000000081523360048201526001600160a01b03848116602483015260448201849052606482018390527f0000000000000000000000000000000000000000000000000000000000000000169063c161c93f9060840160206040518083038186803b158015611c2457600080fd5b505afa158015611c38573d6000803e3d6000fd5b505050506040513d601f19601f82011682018060405250810190611c5c9190612a71565b611ca85760405162461bcd60e51b815260206004820152601860248201527f4f706572617461626c653a20554e415554484f52495a45440000000000000000604482015260640161067e565b6000898152600a60205260409020546001600160a01b0389811691161480611cf557506000898152600b602052604090205415801590611cf557506000898152600b602052604090205442115b611d675760405162461bcd60e51b815260206004820152602360248201527f50726f6a656374733a3a636c61696d48616e646c653a20554e415554484f524960448201527f5a45440000000000000000000000000000000000000000000000000000000000606482015260840161067e565b600087815260086020908152604080832080548452600983528184208490558c84528184208b90558c9055600a825280832080547fffffffffffffffffffffffff0000000000000000000000000000000000000000169055600b82528083209290925590513381528a9189916001600160a01b038c16917f4279bc2ed0274fe67b68b23fa01625aeb258bd08c0b98aab7064f44a5666388b910160405180910390a4505050505050505050565b600081815260046020526040902080547fffffffffffffffffffffffff0000000000000000000000000000000000000000166001600160a01b0384169081179091558190611e6182610cb2565b6001600160a01b03167f8c5be1e5ebec7d5bd14f71427d1e84f3dd0314c0f7b2291e5b200ac8c7c3b92560405160405180910390a45050565b611eb4828260405180602001604052806000815250612360565b5050565b6000818152600260205260408120546001600160a01b0316611f425760405162461bcd60e51b815260206004820152602c60248201527f4552433732313a206f70657261746f7220717565727920666f72206e6f6e657860448201527f697374656e7420746f6b656e0000000000000000000000000000000000000000606482015260840161067e565b6000611f4d83610cb2565b9050806001600160a01b0316846001600160a01b03161480611f885750836001600160a01b0316611f7d846105f8565b6001600160a01b0316145b80611fb857506001600160a01b0380821660009081526005602090815260408083209388168352929052205460ff165b949350505050565b826001600160a01b0316611fd382610cb2565b6001600160a01b03161461204f5760405162461bcd60e51b815260206004820152602960248201527f4552433732313a207472616e73666572206f6620746f6b656e2074686174206960448201527f73206e6f74206f776e0000000000000000000000000000000000000000000000606482015260840161067e565b6001600160a01b0382166120ca5760405162461bcd60e51b8152602060048201526024808201527f4552433732313a207472616e7366657220746f20746865207a65726f2061646460448201527f7265737300000000000000000000000000000000000000000000000000000000606482015260840161067e565b6120d5600082611e14565b6001600160a01b03831660009081526003602052604081208054600192906120fe908490612d32565b90915550506001600160a01b038216600090815260036020526040812080546001929061212c908490612d06565b909155505060008181526002602052604080822080547fffffffffffffffffffffffff0000000000000000000000000000000000000000166001600160a01b0386811691821790925591518493918716917fddf252ad1be2c89b69c2b068fc378daa952ba7f163c4a11628f55a4df523b3ef91a4505050565b6121b0848484611fc0565b6121bc848484846123e9565b6118885760405162461bcd60e51b815260206004820152603260248201527f4552433732313a207472616e7366657220746f206e6f6e20455243373231526560448201527f63656976657220696d706c656d656e7465720000000000000000000000000000606482015260840161067e565b60608161226e57505060408051808201909152600181527f3000000000000000000000000000000000000000000000000000000000000000602082015290565b8160005b8115612298578061228281612dc9565b91506122919050600a83612d1e565b9150612272565b60008167ffffffffffffffff8111156122b3576122b3612ea3565b6040519080825280601f01601f1916602001820160405280156122dd576020820181803683370190505b5090505b8415611fb8576122f2600183612d32565b91506122ff600a86612e02565b61230a906030612d06565b60f81b81838151811061231f5761231f612e74565b60200101907effffffffffffffffffffffffffffffffffffffffffffffffffffffffffffff1916908160001a905350612359600a86612d1e565b94506122e1565b61236a83836125b4565b61237760008484846123e9565b6107d05760405162461bcd60e51b815260206004820152603260248201527f4552433732313a207472616e7366657220746f206e6f6e20455243373231526560448201527f63656976657220696d706c656d656e7465720000000000000000000000000000606482015260840161067e565b60006001600160a01b0384163b156125a9576040517f150b7a020000000000000000000000000000000000000000000000000000000081526001600160a01b0385169063150b7a0290612446903390899088908890600401612c55565b602060405180830381600087803b15801561246057600080fd5b505af19250505080156124ae575060408051601f3d9081017fffffffffffffffffffffffffffffffffffffffffffffffffffffffffffffffe01682019092526124ab91810190612aeb565b60015b61255e573d8080156124dc576040519150601f19603f3d011682016040523d82523d6000602084013e6124e1565b606091505b5080516125565760405162461bcd60e51b815260206004820152603260248201527f4552433732313a207472616e7366657220746f206e6f6e20455243373231526560448201527f63656976657220696d706c656d656e7465720000000000000000000000000000606482015260840161067e565b805181602001fd5b7fffffffff00000000000000000000000000000000000000000000000000000000167f150b7a0200000000000000000000000000000000000000000000000000000000149050611fb8565b506001949350505050565b6001600160a01b03821661260a5760405162461bcd60e51b815260206004820181905260248201527f4552433732313a206d696e7420746f20746865207a65726f2061646472657373604482015260640161067e565b6000818152600260205260409020546001600160a01b03161561266f5760405162461bcd60e51b815260206004820152601c60248201527f4552433732313a20746f6b656e20616c7265616479206d696e74656400000000604482015260640161067e565b6001600160a01b0382166000908152600360205260408120805460019290612698908490612d06565b909155505060008181526002602052604080822080547fffffffffffffffffffffffff0000000000000000000000000000000000000000166001600160a01b03861690811790915590518392907fddf252ad1be2c89b69c2b068fc378daa952ba7f163c4a11628f55a4df523b3ef908290a45050565b82805461271a90612d75565b90600052602060002090601f01602090048101928261273c57600085556127a0565b82601f10612773578280017fffffffffffffffffffffffffffffffffffffffffffffffffffffffffffffff008235161785556127a0565b828001600101855582156127a0579182015b828111156127a0578235825591602001919060010190612785565b506127ac9291506127b0565b5090565b5b808211156127ac57600081556001016127b1565b60008083601f8401126127d757600080fd5b50813567ffffffffffffffff8111156127ef57600080fd5b60208301915083602082850101111561280757600080fd5b9250929050565b60006020828403121561282057600080fd5b813561197d81612ed2565b6000806040838503121561283e57600080fd5b823561284981612ed2565b9150602083013561285981612ed2565b809150509250929050565b60008060006060848603121561287957600080fd5b833561288481612ed2565b9250602084013561289481612ed2565b929592945050506040919091013590565b600080600080608085870312156128bb57600080fd5b84356128c681612ed2565b935060208501356128d681612ed2565b925060408501359150606085013567ffffffffffffffff808211156128fa57600080fd5b818701915087601f83011261290e57600080fd5b81358181111561292057612920612ea3565b604051601f82017fffffffffffffffffffffffffffffffffffffffffffffffffffffffffffffffe0908116603f0116810190838211818310171561296657612966612ea3565b816040528281528a602084870101111561297f57600080fd5b82602086016020830137600060208483010152809550505050505092959194509250565b600080604083850312156129b657600080fd5b82356129c181612ed2565b9150602083013561285981612eea565b6000806000806000608086880312156129e957600080fd5b85356129f481612ed2565b945060208601359350604086013567ffffffffffffffff811115612a1757600080fd5b612a23888289016127c5565b9094509250506060860135612a3781612ed2565b809150509295509295909350565b60008060408385031215612a5857600080fd5b8235612a6381612ed2565b946020939093013593505050565b600060208284031215612a8357600080fd5b815161197d81612eea565b600060208284031215612aa057600080fd5b5035919050565b600080600060608486031215612abc57600080fd5b83359250602084013561289481612ed2565b600060208284031215612ae057600080fd5b813561197d81612ef8565b600060208284031215612afd57600080fd5b815161197d81612ef8565b600060208284031215612b1a57600080fd5b815161197d81612ed2565b60008060408385031215612b3857600080fd5b50508035926020909101359150565b600080600060408486031215612b5c57600080fd5b83359250602084013567ffffffffffffffff811115612b7a57600080fd5b612b86868287016127c5565b9497909650939450505050565b60008151808452612bab816020860160208601612d49565b601f017fffffffffffffffffffffffffffffffffffffffffffffffffffffffffffffffe0169290920160200192915050565b8183528181602085013750600060208284010152600060207fffffffffffffffffffffffffffffffffffffffffffffffffffffffffffffffe0601f840116840101905092915050565b60008351612c38818460208801612d49565b835190830190612c4c818360208801612d49565b01949350505050565b60006001600160a01b03808716835280861660208401525083604083015260806060830152612c876080830184612b93565b9695505050505050565b604081526000612ca5604083018587612bdd565b90506001600160a01b0383166020830152949350505050565b606081526000612cd2606083018688612bdd565b6001600160a01b039485166020840152929093166040909101529392505050565b60208152600061197d6020830184612b93565b60008219821115612d1957612d19612e16565b500190565b600082612d2d57612d2d612e45565b500490565b600082821015612d4457612d44612e16565b500390565b60005b83811015612d64578181015183820152602001612d4c565b838111156118885750506000910152565b600181811c90821680612d8957607f821691505b60208210811415612dc3577f4e487b7100000000000000000000000000000000000000000000000000000000600052602260045260246000fd5b50919050565b60007fffffffffffffffffffffffffffffffffffffffffffffffffffffffffffffffff821415612dfb57612dfb612e16565b5060010190565b600082612e1157612e11612e45565b500690565b7f4e487b7100000000000000000000000000000000000000000000000000000000600052601160045260246000fd5b7f4e487b7100000000000000000000000000000000000000000000000000000000600052601260045260246000fd5b7f4e487b7100000000000000000000000000000000000000000000000000000000600052603260045260246000fd5b7f4e487b7100000000000000000000000000000000000000000000000000000000600052604160045260246000fd5b6001600160a01b0381168114612ee757600080fd5b50565b8015158114612ee757600080fd5b7fffffffff0000000000000000000000000000000000000000000000000000000081168114612ee757600080fdfea26469706673582212206ff3774d141eac1b0d6b9f2652ee22b98f9b173fe0607c085f45527d26b93ec764736f6c63430008060033",
  "devdoc": {
    "details": "Projects are represented as ERC-721's.",
    "kind": "dev",
    "methods": {
      "approve(address,uint256)": {
        "details": "See {IERC721-approve}."
      },
      "balanceOf(address)": {
        "details": "See {IERC721-balanceOf}."
      },
      "challengeHandle(bytes32)": {
        "params": {
          "_handle": "The handle to challenge."
        }
      },
      "claimHandle(bytes32,address,uint256)": {
        "details": " Only a project's owner or operator can claim a handle onto it.",
        "params": {
          "_for": "The address that the handle has been transfered to.",
          "_handle": "The handle being claimed.",
          "_projectId": "The ID of the project to use the claimed handle."
        }
      },
      "constructor": {
        "params": {
          "_operatorStore": "A contract storing operator assignments."
        }
      },
      "create(address,bytes32,string,address)": {
        "details": " Anyone can create a project on an owner's behalf.",
        "params": {
          "_handle": "A unique handle for the project.",
          "_owner": "The owner of the project.",
          "_terminal": "The terminal to set for this project so that it can start receiving payments.",
          "_uri": "An ipfs CID to more info about the project."
        },
        "returns": {
          "_0": "The new project's ID."
        }
      },
      "exists(uint256)": {
        "params": {
          "_projectId": "The project to check the existence of."
        },
        "returns": {
          "_0": "A flag indicating if the project exists."
        }
      },
      "getApproved(uint256)": {
        "details": "See {IERC721-getApproved}."
      },
      "isApprovedForAll(address,address)": {
        "details": "See {IERC721-isApprovedForAll}."
      },
      "name()": {
        "details": "See {IERC721Metadata-name}."
      },
      "ownerOf(uint256)": {
        "details": "See {IERC721-ownerOf}."
      },
      "renewHandle(uint256)": {
        "details": " Only a project's owner or operator can renew its handle.",
        "params": {
          "_projectId": "The ID of the project that current has the handle being renewed."
        }
      },
      "safeTransferFrom(address,address,uint256)": {
        "details": "See {IERC721-safeTransferFrom}."
      },
      "safeTransferFrom(address,address,uint256,bytes)": {
        "details": "See {IERC721-safeTransferFrom}."
      },
      "setApprovalForAll(address,bool)": {
        "details": "See {IERC721-setApprovalForAll}."
      },
      "setHandle(uint256,bytes32)": {
        "details": " Only a project's owner or operator can set its handle.",
        "params": {
          "_handle": "The new unique handle for the project.",
          "_projectId": "The ID of the project."
        }
      },
      "setUri(uint256,string)": {
        "details": " Only a project's owner or operator can set its uri.",
        "params": {
          "_projectId": "The ID of the project.",
          "_uri": "An ipfs CDN to more info about the project. Don't include the leading ipfs://"
        }
      },
      "supportsInterface(bytes4)": {
        "details": "See {IERC165-supportsInterface}."
      },
      "symbol()": {
        "details": "See {IERC721Metadata-symbol}."
      },
      "tokenURI(uint256)": {
        "details": "See {IERC721Metadata-tokenURI}."
      },
      "transferFrom(address,address,uint256)": {
        "details": "See {IERC721-transferFrom}."
      },
      "transferHandle(uint256,address,bytes32)": {
        "details": " Only a project's owner or operator can transfer its handle.",
        "params": {
          "_newHandle": "The new unique handle for the project that will replace the transfered one.",
          "_projectId": "The ID of the project to transfer the handle from.",
          "_to": "The address that can now reallocate the handle."
        }
      }
    },
    "version": 1
  },
  "userdoc": {
    "kind": "user",
    "methods": {
      "challengeExpiryOf(bytes32)": {
        "notice": "The timestamps when each handle is claimable. A value of 0 means a handle isn't being challenged."
      },
      "challengeHandle(bytes32)": {
        "notice": "Allows anyone to challenge a project's handle. After one year, the handle can be claimed by the public if the challenge isn't answered by the handle's project. This can be used to make sure a handle belonging to an unattended to project isn't lost forever."
      },
      "claimHandle(bytes32,address,uint256)": {
        "notice": " Allows an address to claim and handle that has been transfered to them and apply it to a project of theirs."
      },
      "count()": {
        "notice": "A running count of project IDs."
      },
      "create(address,bytes32,string,address)": {
        "notice": " Create a new project."
      },
      "exists(uint256)": {
        "notice": " Whether the specified project exists."
      },
      "handleOf(uint256)": {
        "notice": "Each project's handle."
      },
      "operatorStore()": {
        "notice": "A contract storing operator assignments."
      },
      "projectFor(bytes32)": {
        "notice": "The project that each unique handle represents."
      },
      "renewHandle(uint256)": {
        "notice": "Allows a project to renew its handle so it can't be claimed until a year after its challenged again."
      },
      "setHandle(uint256,bytes32)": {
        "notice": " Allows a project owner to set the project's handle."
      },
      "setUri(uint256,string)": {
        "notice": " Allows a project owner to set the project's uri."
      },
      "transferAddressFor(bytes32)": {
        "notice": "Handles that have been transfered to the specified address."
      },
      "transferHandle(uint256,address,bytes32)": {
        "notice": " Allows a project owner to transfer its handle to another address."
      },
      "uriOf(uint256)": {
        "notice": "Optional mapping for project URIs"
      }
    },
    "notice": " Stores project ownership and identifying information.",
    "version": 1
  },
  "storageLayout": {
    "storage": [
      {
        "astId": 1293,
        "contract": "contracts/Projects.sol:Projects",
        "label": "_name",
        "offset": 0,
        "slot": "0",
        "type": "t_string_storage"
      },
      {
        "astId": 1295,
        "contract": "contracts/Projects.sol:Projects",
        "label": "_symbol",
        "offset": 0,
        "slot": "1",
        "type": "t_string_storage"
      },
      {
        "astId": 1299,
        "contract": "contracts/Projects.sol:Projects",
        "label": "_owners",
        "offset": 0,
        "slot": "2",
        "type": "t_mapping(t_uint256,t_address)"
      },
      {
        "astId": 1303,
        "contract": "contracts/Projects.sol:Projects",
        "label": "_balances",
        "offset": 0,
        "slot": "3",
        "type": "t_mapping(t_address,t_uint256)"
      },
      {
        "astId": 1307,
        "contract": "contracts/Projects.sol:Projects",
        "label": "_tokenApprovals",
        "offset": 0,
        "slot": "4",
        "type": "t_mapping(t_uint256,t_address)"
      },
      {
        "astId": 1313,
        "contract": "contracts/Projects.sol:Projects",
        "label": "_operatorApprovals",
        "offset": 0,
        "slot": "5",
        "type": "t_mapping(t_address,t_mapping(t_address,t_bool))"
      },
      {
        "astId": 7977,
        "contract": "contracts/Projects.sol:Projects",
        "label": "count",
        "offset": 0,
        "slot": "6",
        "type": "t_uint256"
      },
      {
        "astId": 7983,
        "contract": "contracts/Projects.sol:Projects",
        "label": "uriOf",
        "offset": 0,
        "slot": "7",
        "type": "t_mapping(t_uint256,t_string_storage)"
      },
      {
        "astId": 7989,
        "contract": "contracts/Projects.sol:Projects",
        "label": "handleOf",
        "offset": 0,
        "slot": "8",
        "type": "t_mapping(t_uint256,t_bytes32)"
      },
      {
        "astId": 7995,
        "contract": "contracts/Projects.sol:Projects",
        "label": "projectFor",
        "offset": 0,
        "slot": "9",
        "type": "t_mapping(t_bytes32,t_uint256)"
      },
      {
        "astId": 8001,
        "contract": "contracts/Projects.sol:Projects",
        "label": "transferAddressFor",
        "offset": 0,
        "slot": "10",
        "type": "t_mapping(t_bytes32,t_address)"
      },
      {
        "astId": 8007,
        "contract": "contracts/Projects.sol:Projects",
        "label": "challengeExpiryOf",
        "offset": 0,
        "slot": "11",
        "type": "t_mapping(t_bytes32,t_uint256)"
      }
    ],
    "types": {
      "t_address": {
        "encoding": "inplace",
        "label": "address",
        "numberOfBytes": "20"
      },
      "t_bool": {
        "encoding": "inplace",
        "label": "bool",
        "numberOfBytes": "1"
      },
      "t_bytes32": {
        "encoding": "inplace",
        "label": "bytes32",
        "numberOfBytes": "32"
      },
      "t_mapping(t_address,t_bool)": {
        "encoding": "mapping",
        "key": "t_address",
        "label": "mapping(address => bool)",
        "numberOfBytes": "32",
        "value": "t_bool"
      },
      "t_mapping(t_address,t_mapping(t_address,t_bool))": {
        "encoding": "mapping",
        "key": "t_address",
        "label": "mapping(address => mapping(address => bool))",
        "numberOfBytes": "32",
        "value": "t_mapping(t_address,t_bool)"
      },
      "t_mapping(t_address,t_uint256)": {
        "encoding": "mapping",
        "key": "t_address",
        "label": "mapping(address => uint256)",
        "numberOfBytes": "32",
        "value": "t_uint256"
      },
      "t_mapping(t_bytes32,t_address)": {
        "encoding": "mapping",
        "key": "t_bytes32",
        "label": "mapping(bytes32 => address)",
        "numberOfBytes": "32",
        "value": "t_address"
      },
      "t_mapping(t_bytes32,t_uint256)": {
        "encoding": "mapping",
        "key": "t_bytes32",
        "label": "mapping(bytes32 => uint256)",
        "numberOfBytes": "32",
        "value": "t_uint256"
      },
      "t_mapping(t_uint256,t_address)": {
        "encoding": "mapping",
        "key": "t_uint256",
        "label": "mapping(uint256 => address)",
        "numberOfBytes": "32",
        "value": "t_address"
      },
      "t_mapping(t_uint256,t_bytes32)": {
        "encoding": "mapping",
        "key": "t_uint256",
        "label": "mapping(uint256 => bytes32)",
        "numberOfBytes": "32",
        "value": "t_bytes32"
      },
      "t_mapping(t_uint256,t_string_storage)": {
        "encoding": "mapping",
        "key": "t_uint256",
        "label": "mapping(uint256 => string)",
        "numberOfBytes": "32",
        "value": "t_string_storage"
      },
      "t_string_storage": {
        "encoding": "bytes",
        "label": "string",
        "numberOfBytes": "32"
      },
      "t_uint256": {
        "encoding": "inplace",
        "label": "uint256",
        "numberOfBytes": "32"
      }
    }
  }
}