{
  "address": "0x016fF45EEBD8952e8416dcF4fC4a3B2cFbAbBD74",
  "abi": [
    {
      "inputs": [
        {
          "internalType": "contract IProjects",
          "name": "_projects",
          "type": "address"
        },
        {
          "internalType": "contract IFundingCycles",
          "name": "_fundingCycles",
          "type": "address"
        },
        {
          "internalType": "contract ITicketBooth",
          "name": "_ticketBooth",
          "type": "address"
        },
        {
          "internalType": "contract IOperatorStore",
          "name": "_operatorStore",
          "type": "address"
        },
        {
          "internalType": "contract IModStore",
          "name": "_modStore",
          "type": "address"
        },
        {
          "internalType": "contract IPrices",
          "name": "_prices",
          "type": "address"
        },
        {
          "internalType": "contract ITerminalDirectory",
          "name": "_terminalDirectory",
          "type": "address"
        },
        {
          "internalType": "address payable",
          "name": "_governance",
          "type": "address"
        }
      ],
      "stateMutability": "nonpayable",
      "type": "constructor"
    },
    {
      "inputs": [
        {
          "internalType": "uint256",
          "name": "prod1",
          "type": "uint256"
        }
      ],
      "name": "PRBMath__MulDivFixedPointOverflow",
      "type": "error"
    },
    {
      "inputs": [
        {
          "internalType": "uint256",
          "name": "prod1",
          "type": "uint256"
        },
        {
          "internalType": "uint256",
          "name": "denominator",
          "type": "uint256"
        }
      ],
      "name": "PRBMath__MulDivOverflow",
      "type": "error"
    },
    {
      "anonymous": false,
      "inputs": [
        {
          "indexed": false,
          "internalType": "address",
          "name": "governance",
          "type": "address"
        }
      ],
      "name": "AcceptGovernance",
      "type": "event"
    },
    {
      "anonymous": false,
      "inputs": [
        {
          "indexed": true,
          "internalType": "uint256",
          "name": "projectId",
          "type": "uint256"
        },
        {
          "indexed": false,
          "internalType": "uint256",
          "name": "value",
          "type": "uint256"
        },
        {
          "indexed": false,
          "internalType": "address",
          "name": "caller",
          "type": "address"
        }
      ],
      "name": "AddToBalance",
      "type": "event"
    },
    {
      "anonymous": false,
      "inputs": [
        {
          "indexed": false,
          "internalType": "contract ITerminal",
          "name": "allowed",
          "type": "address"
        }
      ],
      "name": "AllowMigration",
      "type": "event"
    },
    {
      "anonymous": false,
      "inputs": [
        {
          "indexed": false,
          "internalType": "address",
          "name": "governance",
          "type": "address"
        }
      ],
      "name": "AppointGovernance",
      "type": "event"
    },
    {
      "anonymous": false,
      "inputs": [
        {
          "indexed": true,
          "internalType": "uint256",
          "name": "fundingCycleId",
          "type": "uint256"
        },
        {
          "indexed": true,
          "internalType": "uint256",
          "name": "projectId",
          "type": "uint256"
        },
        {
          "indexed": false,
          "internalType": "address",
          "name": "caller",
          "type": "address"
        }
      ],
      "name": "Configure",
      "type": "event"
    },
    {
      "anonymous": false,
      "inputs": [
        {
          "indexed": false,
          "internalType": "uint256",
          "name": "amount",
          "type": "uint256"
        }
      ],
      "name": "Deposit",
      "type": "event"
    },
    {
      "anonymous": false,
      "inputs": [
        {
          "indexed": true,
          "internalType": "uint256",
          "name": "fundingCycleId",
          "type": "uint256"
        },
        {
          "indexed": true,
          "internalType": "uint256",
          "name": "projectId",
          "type": "uint256"
        },
        {
          "components": [
            {
              "internalType": "bool",
              "name": "preferUnstaked",
              "type": "bool"
            },
            {
              "internalType": "uint16",
              "name": "percent",
              "type": "uint16"
            },
            {
              "internalType": "uint48",
              "name": "lockedUntil",
              "type": "uint48"
            },
            {
              "internalType": "address payable",
              "name": "beneficiary",
              "type": "address"
            },
            {
              "internalType": "contract IModAllocator",
              "name": "allocator",
              "type": "address"
            },
            {
              "internalType": "uint56",
              "name": "projectId",
              "type": "uint56"
            }
          ],
          "indexed": false,
          "internalType": "struct PayoutMod",
          "name": "mod",
          "type": "tuple"
        },
        {
          "indexed": false,
          "internalType": "uint256",
          "name": "modCut",
          "type": "uint256"
        },
        {
          "indexed": false,
          "internalType": "address",
          "name": "caller",
          "type": "address"
        }
      ],
      "name": "DistributeToPayoutMod",
      "type": "event"
    },
    {
      "anonymous": false,
      "inputs": [
        {
          "indexed": true,
          "internalType": "uint256",
          "name": "fundingCycleId",
          "type": "uint256"
        },
        {
          "indexed": true,
          "internalType": "uint256",
          "name": "projectId",
          "type": "uint256"
        },
        {
          "components": [
            {
              "internalType": "bool",
              "name": "preferUnstaked",
              "type": "bool"
            },
            {
              "internalType": "uint16",
              "name": "percent",
              "type": "uint16"
            },
            {
              "internalType": "uint48",
              "name": "lockedUntil",
              "type": "uint48"
            },
            {
              "internalType": "address payable",
              "name": "beneficiary",
              "type": "address"
            }
          ],
          "indexed": false,
          "internalType": "struct TicketMod",
          "name": "mod",
          "type": "tuple"
        },
        {
          "indexed": false,
          "internalType": "uint256",
          "name": "modCut",
          "type": "uint256"
        },
        {
          "indexed": false,
          "internalType": "address",
          "name": "caller",
          "type": "address"
        }
      ],
      "name": "DistributeToTicketMod",
      "type": "event"
    },
    {
      "anonymous": false,
      "inputs": [
        {
          "indexed": false,
          "internalType": "uint256",
          "name": "target",
          "type": "uint256"
        }
      ],
      "name": "EnsureTargetLocalWei",
      "type": "event"
    },
    {
      "anonymous": false,
      "inputs": [
        {
          "indexed": true,
          "internalType": "uint256",
          "name": "projectId",
          "type": "uint256"
        },
        {
          "indexed": true,
          "internalType": "contract ITerminal",
          "name": "to",
          "type": "address"
        },
        {
          "indexed": false,
          "internalType": "uint256",
          "name": "_amount",
          "type": "uint256"
        },
        {
          "indexed": false,
          "internalType": "address",
          "name": "caller",
          "type": "address"
        }
      ],
      "name": "Migrate",
      "type": "event"
    },
    {
      "anonymous": false,
      "inputs": [
        {
          "indexed": true,
          "internalType": "uint256",
          "name": "fundingCycleId",
          "type": "uint256"
        },
        {
          "indexed": true,
          "internalType": "uint256",
          "name": "projectId",
          "type": "uint256"
        },
        {
          "indexed": true,
          "internalType": "address",
          "name": "beneficiary",
          "type": "address"
        },
        {
          "indexed": false,
          "internalType": "uint256",
          "name": "amount",
          "type": "uint256"
        },
        {
          "indexed": false,
          "internalType": "string",
          "name": "note",
          "type": "string"
        },
        {
          "indexed": false,
          "internalType": "address",
          "name": "caller",
          "type": "address"
        }
      ],
      "name": "Pay",
      "type": "event"
    },
    {
      "anonymous": false,
      "inputs": [
        {
          "indexed": true,
          "internalType": "uint256",
          "name": "projectId",
          "type": "uint256"
        },
        {
          "indexed": true,
          "internalType": "address",
          "name": "beneficiary",
          "type": "address"
        },
        {
          "indexed": false,
          "internalType": "uint256",
          "name": "amount",
          "type": "uint256"
        },
        {
          "indexed": false,
          "internalType": "uint256",
          "name": "currency",
          "type": "uint256"
        },
        {
          "indexed": false,
          "internalType": "string",
          "name": "memo",
          "type": "string"
        },
        {
          "indexed": false,
          "internalType": "address",
          "name": "caller",
          "type": "address"
        }
      ],
      "name": "PrintPreminedTickets",
      "type": "event"
    },
    {
      "anonymous": false,
      "inputs": [
        {
          "indexed": true,
          "internalType": "uint256",
          "name": "fundingCycleId",
          "type": "uint256"
        },
        {
          "indexed": true,
          "internalType": "uint256",
          "name": "projectId",
          "type": "uint256"
        },
        {
          "indexed": true,
          "internalType": "address",
          "name": "beneficiary",
          "type": "address"
        },
        {
          "indexed": false,
          "internalType": "uint256",
          "name": "count",
          "type": "uint256"
        },
        {
          "indexed": false,
          "internalType": "uint256",
          "name": "beneficiaryTicketAmount",
          "type": "uint256"
        },
        {
          "indexed": false,
          "internalType": "address",
          "name": "caller",
          "type": "address"
        }
      ],
      "name": "PrintReserveTickets",
      "type": "event"
    },
    {
      "anonymous": false,
      "inputs": [
        {
          "indexed": true,
          "internalType": "address",
          "name": "holder",
          "type": "address"
        },
        {
          "indexed": true,
          "internalType": "address",
          "name": "beneficiary",
          "type": "address"
        },
        {
          "indexed": true,
          "internalType": "uint256",
          "name": "_projectId",
          "type": "uint256"
        },
        {
          "indexed": false,
          "internalType": "uint256",
          "name": "amount",
          "type": "uint256"
        },
        {
          "indexed": false,
          "internalType": "uint256",
          "name": "returnAmount",
          "type": "uint256"
        },
        {
          "indexed": false,
          "internalType": "address",
          "name": "caller",
          "type": "address"
        }
      ],
      "name": "Redeem",
      "type": "event"
    },
    {
      "anonymous": false,
      "inputs": [
        {
          "indexed": false,
          "internalType": "uint256",
          "name": "_amount",
          "type": "uint256"
        }
      ],
      "name": "SetFee",
      "type": "event"
    },
    {
      "anonymous": false,
      "inputs": [
        {
          "indexed": false,
          "internalType": "uint256",
          "name": "amount",
          "type": "uint256"
        }
      ],
      "name": "SetTargetLocalWei",
      "type": "event"
    },
    {
      "anonymous": false,
      "inputs": [
        {
          "indexed": false,
          "internalType": "contract IYielder",
          "name": "newYielder",
          "type": "address"
        }
      ],
      "name": "SetYielder",
      "type": "event"
    },
    {
      "anonymous": false,
      "inputs": [
        {
          "indexed": true,
          "internalType": "uint256",
          "name": "fundingCycleId",
          "type": "uint256"
        },
        {
          "indexed": true,
          "internalType": "uint256",
          "name": "projectId",
          "type": "uint256"
        },
        {
          "indexed": true,
          "internalType": "address",
          "name": "beneficiary",
          "type": "address"
        },
        {
          "indexed": false,
          "internalType": "uint256",
          "name": "amount",
          "type": "uint256"
        },
        {
          "indexed": false,
          "internalType": "uint256",
          "name": "currency",
          "type": "uint256"
        },
        {
          "indexed": false,
          "internalType": "uint256",
          "name": "netTransferAmount",
          "type": "uint256"
        },
        {
          "indexed": false,
          "internalType": "uint256",
          "name": "beneficiaryTransferAmount",
          "type": "uint256"
        },
        {
          "indexed": false,
          "internalType": "uint256",
          "name": "govFeeAmount",
          "type": "uint256"
        },
        {
          "indexed": false,
          "internalType": "address",
          "name": "caller",
          "type": "address"
        }
      ],
      "name": "Tap",
      "type": "event"
    },
    {
      "inputs": [],
      "name": "acceptGovernance",
      "outputs": [],
      "stateMutability": "nonpayable",
      "type": "function"
    },
    {
      "inputs": [
        {
          "internalType": "uint256",
          "name": "_projectId",
          "type": "uint256"
        }
      ],
      "name": "addToBalance",
      "outputs": [],
      "stateMutability": "payable",
      "type": "function"
    },
    {
      "inputs": [
        {
          "internalType": "contract ITerminal",
          "name": "_contract",
          "type": "address"
        }
      ],
      "name": "allowMigration",
      "outputs": [],
      "stateMutability": "nonpayable",
      "type": "function"
    },
    {
      "inputs": [
        {
          "internalType": "address payable",
          "name": "_pendingGovernance",
          "type": "address"
        }
      ],
      "name": "appointGovernance",
      "outputs": [],
      "stateMutability": "nonpayable",
      "type": "function"
    },
    {
      "inputs": [
        {
          "internalType": "uint256",
          "name": "",
          "type": "uint256"
        }
      ],
      "name": "balanceOf",
      "outputs": [
        {
          "internalType": "uint256",
          "name": "",
          "type": "uint256"
        }
      ],
      "stateMutability": "view",
      "type": "function"
    },
    {
      "inputs": [
        {
          "internalType": "uint256",
          "name": "_projectId",
          "type": "uint256"
        }
      ],
      "name": "canPrintPreminedTickets",
      "outputs": [
        {
          "internalType": "bool",
          "name": "",
          "type": "bool"
        }
      ],
      "stateMutability": "view",
      "type": "function"
    },
    {
      "inputs": [
        {
          "internalType": "address",
          "name": "_account",
          "type": "address"
        },
        {
          "internalType": "uint256",
          "name": "_projectId",
          "type": "uint256"
        },
        {
          "internalType": "uint256",
          "name": "_count",
          "type": "uint256"
        }
      ],
      "name": "claimableOverflowOf",
      "outputs": [
        {
          "internalType": "uint256",
          "name": "",
          "type": "uint256"
        }
      ],
      "stateMutability": "view",
      "type": "function"
    },
    {
      "inputs": [
        {
          "internalType": "uint256",
          "name": "_projectId",
          "type": "uint256"
        },
        {
          "components": [
            {
              "internalType": "uint256",
              "name": "target",
              "type": "uint256"
            },
            {
              "internalType": "uint256",
              "name": "currency",
              "type": "uint256"
            },
            {
              "internalType": "uint256",
              "name": "duration",
              "type": "uint256"
            },
            {
              "internalType": "uint256",
              "name": "cycleLimit",
              "type": "uint256"
            },
            {
              "internalType": "uint256",
              "name": "discountRate",
              "type": "uint256"
            },
            {
              "internalType": "contract IFundingCycleBallot",
              "name": "ballot",
              "type": "address"
            }
          ],
          "internalType": "struct FundingCycleProperties",
          "name": "_properties",
          "type": "tuple"
        },
        {
          "components": [
            {
              "internalType": "uint256",
              "name": "reservedRate",
              "type": "uint256"
            },
            {
              "internalType": "uint256",
              "name": "bondingCurveRate",
              "type": "uint256"
            },
            {
              "internalType": "uint256",
              "name": "reconfigurationBondingCurveRate",
              "type": "uint256"
            }
          ],
          "internalType": "struct FundingCycleMetadata",
          "name": "_metadata",
          "type": "tuple"
        },
        {
          "components": [
            {
              "internalType": "bool",
              "name": "preferUnstaked",
              "type": "bool"
            },
            {
              "internalType": "uint16",
              "name": "percent",
              "type": "uint16"
            },
            {
              "internalType": "uint48",
              "name": "lockedUntil",
              "type": "uint48"
            },
            {
              "internalType": "address payable",
              "name": "beneficiary",
              "type": "address"
            },
            {
              "internalType": "contract IModAllocator",
              "name": "allocator",
              "type": "address"
            },
            {
              "internalType": "uint56",
              "name": "projectId",
              "type": "uint56"
            }
          ],
          "internalType": "struct PayoutMod[]",
          "name": "_payoutMods",
          "type": "tuple[]"
        },
        {
          "components": [
            {
              "internalType": "bool",
              "name": "preferUnstaked",
              "type": "bool"
            },
            {
              "internalType": "uint16",
              "name": "percent",
              "type": "uint16"
            },
            {
              "internalType": "uint48",
              "name": "lockedUntil",
              "type": "uint48"
            },
            {
              "internalType": "address payable",
              "name": "beneficiary",
              "type": "address"
            }
          ],
          "internalType": "struct TicketMod[]",
          "name": "_ticketMods",
          "type": "tuple[]"
        }
      ],
      "name": "configure",
      "outputs": [
        {
          "internalType": "uint256",
          "name": "",
          "type": "uint256"
        }
      ],
      "stateMutability": "nonpayable",
      "type": "function"
    },
    {
      "inputs": [
        {
          "internalType": "uint256",
          "name": "_projectId",
          "type": "uint256"
        }
      ],
      "name": "currentOverflowOf",
      "outputs": [
        {
          "internalType": "uint256",
          "name": "overflow",
          "type": "uint256"
        }
      ],
      "stateMutability": "view",
      "type": "function"
    },
    {
      "inputs": [
        {
          "internalType": "address",
          "name": "_owner",
          "type": "address"
        },
        {
          "internalType": "bytes32",
          "name": "_handle",
          "type": "bytes32"
        },
        {
          "internalType": "string",
          "name": "_uri",
          "type": "string"
        },
        {
          "components": [
            {
              "internalType": "uint256",
              "name": "target",
              "type": "uint256"
            },
            {
              "internalType": "uint256",
              "name": "currency",
              "type": "uint256"
            },
            {
              "internalType": "uint256",
              "name": "duration",
              "type": "uint256"
            },
            {
              "internalType": "uint256",
              "name": "cycleLimit",
              "type": "uint256"
            },
            {
              "internalType": "uint256",
              "name": "discountRate",
              "type": "uint256"
            },
            {
              "internalType": "contract IFundingCycleBallot",
              "name": "ballot",
              "type": "address"
            }
          ],
          "internalType": "struct FundingCycleProperties",
          "name": "_properties",
          "type": "tuple"
        },
        {
          "components": [
            {
              "internalType": "uint256",
              "name": "reservedRate",
              "type": "uint256"
            },
            {
              "internalType": "uint256",
              "name": "bondingCurveRate",
              "type": "uint256"
            },
            {
              "internalType": "uint256",
              "name": "reconfigurationBondingCurveRate",
              "type": "uint256"
            }
          ],
          "internalType": "struct FundingCycleMetadata",
          "name": "_metadata",
          "type": "tuple"
        },
        {
          "components": [
            {
              "internalType": "bool",
              "name": "preferUnstaked",
              "type": "bool"
            },
            {
              "internalType": "uint16",
              "name": "percent",
              "type": "uint16"
            },
            {
              "internalType": "uint48",
              "name": "lockedUntil",
              "type": "uint48"
            },
            {
              "internalType": "address payable",
              "name": "beneficiary",
              "type": "address"
            },
            {
              "internalType": "contract IModAllocator",
              "name": "allocator",
              "type": "address"
            },
            {
              "internalType": "uint56",
              "name": "projectId",
              "type": "uint56"
            }
          ],
          "internalType": "struct PayoutMod[]",
          "name": "_payoutMods",
          "type": "tuple[]"
        },
        {
          "components": [
            {
              "internalType": "bool",
              "name": "preferUnstaked",
              "type": "bool"
            },
            {
              "internalType": "uint16",
              "name": "percent",
              "type": "uint16"
            },
            {
              "internalType": "uint48",
              "name": "lockedUntil",
              "type": "uint48"
            },
            {
              "internalType": "address payable",
              "name": "beneficiary",
              "type": "address"
            }
          ],
          "internalType": "struct TicketMod[]",
          "name": "_ticketMods",
          "type": "tuple[]"
        }
      ],
      "name": "deploy",
      "outputs": [],
      "stateMutability": "nonpayable",
      "type": "function"
    },
    {
      "inputs": [],
      "name": "fee",
      "outputs": [
        {
          "internalType": "uint256",
          "name": "",
          "type": "uint256"
        }
      ],
      "stateMutability": "view",
      "type": "function"
    },
    {
      "inputs": [],
      "name": "fundingCycles",
      "outputs": [
        {
          "internalType": "contract IFundingCycles",
          "name": "",
          "type": "address"
        }
      ],
      "stateMutability": "view",
      "type": "function"
    },
    {
      "inputs": [],
      "name": "governance",
      "outputs": [
        {
          "internalType": "address payable",
          "name": "",
          "type": "address"
        }
      ],
      "stateMutability": "view",
      "type": "function"
    },
    {
      "inputs": [
        {
          "internalType": "uint256",
          "name": "_projectId",
          "type": "uint256"
        },
        {
          "internalType": "contract ITerminal",
          "name": "_to",
          "type": "address"
        }
      ],
      "name": "migrate",
      "outputs": [],
      "stateMutability": "nonpayable",
      "type": "function"
    },
    {
      "inputs": [
        {
          "internalType": "contract ITerminal",
          "name": "",
          "type": "address"
        }
      ],
      "name": "migrationIsAllowed",
      "outputs": [
        {
          "internalType": "bool",
          "name": "",
          "type": "bool"
        }
      ],
      "stateMutability": "view",
      "type": "function"
    },
    {
      "inputs": [],
      "name": "modStore",
      "outputs": [
        {
          "internalType": "contract IModStore",
          "name": "",
          "type": "address"
        }
      ],
      "stateMutability": "view",
      "type": "function"
    },
    {
      "inputs": [],
      "name": "operatorStore",
      "outputs": [
        {
          "internalType": "contract IOperatorStore",
          "name": "",
          "type": "address"
        }
      ],
      "stateMutability": "view",
      "type": "function"
    },
    {
      "inputs": [
        {
          "internalType": "uint256",
          "name": "_projectId",
          "type": "uint256"
        },
        {
          "internalType": "address",
          "name": "_beneficiary",
          "type": "address"
        },
        {
          "internalType": "string",
          "name": "_memo",
          "type": "string"
        },
        {
          "internalType": "bool",
          "name": "_preferUnstakedTickets",
          "type": "bool"
        }
      ],
      "name": "pay",
      "outputs": [
        {
          "internalType": "uint256",
          "name": "",
          "type": "uint256"
        }
      ],
      "stateMutability": "payable",
      "type": "function"
    },
    {
      "inputs": [],
      "name": "pendingGovernance",
      "outputs": [
        {
          "internalType": "address payable",
          "name": "",
          "type": "address"
        }
      ],
      "stateMutability": "view",
      "type": "function"
    },
    {
      "inputs": [],
      "name": "prices",
      "outputs": [
        {
          "internalType": "contract IPrices",
          "name": "",
          "type": "address"
        }
      ],
      "stateMutability": "view",
      "type": "function"
    },
    {
      "inputs": [
        {
          "internalType": "uint256",
          "name": "_projectId",
          "type": "uint256"
        },
        {
          "internalType": "uint256",
          "name": "_amount",
          "type": "uint256"
        },
        {
          "internalType": "uint256",
          "name": "_currency",
          "type": "uint256"
        },
        {
          "internalType": "address",
          "name": "_beneficiary",
          "type": "address"
        },
        {
          "internalType": "string",
          "name": "_memo",
          "type": "string"
        },
        {
          "internalType": "bool",
          "name": "_preferUnstakedTickets",
          "type": "bool"
        }
      ],
      "name": "printPreminedTickets",
      "outputs": [],
      "stateMutability": "nonpayable",
      "type": "function"
    },
    {
      "inputs": [
        {
          "internalType": "uint256",
          "name": "_projectId",
          "type": "uint256"
        }
      ],
      "name": "printReservedTickets",
      "outputs": [
        {
          "internalType": "uint256",
          "name": "amount",
          "type": "uint256"
        }
      ],
      "stateMutability": "nonpayable",
      "type": "function"
    },
    {
      "inputs": [],
      "name": "projects",
      "outputs": [
        {
          "internalType": "contract IProjects",
          "name": "",
          "type": "address"
        }
      ],
      "stateMutability": "view",
      "type": "function"
    },
    {
      "inputs": [
        {
          "internalType": "address",
          "name": "_account",
          "type": "address"
        },
        {
          "internalType": "uint256",
          "name": "_projectId",
          "type": "uint256"
        },
        {
          "internalType": "uint256",
          "name": "_count",
          "type": "uint256"
        },
        {
          "internalType": "uint256",
          "name": "_minReturnedWei",
          "type": "uint256"
        },
        {
          "internalType": "address payable",
          "name": "_beneficiary",
          "type": "address"
        },
        {
          "internalType": "bool",
          "name": "_preferUnstaked",
          "type": "bool"
        }
      ],
      "name": "redeem",
      "outputs": [
        {
          "internalType": "uint256",
          "name": "amount",
          "type": "uint256"
        }
      ],
      "stateMutability": "nonpayable",
      "type": "function"
    },
    {
      "inputs": [
        {
          "internalType": "uint256",
          "name": "_projectId",
          "type": "uint256"
        },
        {
          "internalType": "uint256",
          "name": "_reservedRate",
          "type": "uint256"
        }
      ],
      "name": "reservedTicketBalanceOf",
      "outputs": [
        {
          "internalType": "uint256",
          "name": "",
          "type": "uint256"
        }
      ],
      "stateMutability": "view",
      "type": "function"
    },
    {
      "inputs": [
        {
          "internalType": "uint256",
          "name": "_fee",
          "type": "uint256"
        }
      ],
      "name": "setFee",
      "outputs": [],
      "stateMutability": "nonpayable",
      "type": "function"
    },
    {
      "inputs": [
        {
          "internalType": "uint256",
          "name": "_projectId",
          "type": "uint256"
        },
        {
          "internalType": "uint256",
          "name": "_amount",
          "type": "uint256"
        },
        {
          "internalType": "uint256",
          "name": "_currency",
          "type": "uint256"
        },
        {
          "internalType": "uint256",
          "name": "_minReturnedWei",
          "type": "uint256"
        }
      ],
      "name": "tap",
      "outputs": [
        {
          "internalType": "uint256",
          "name": "",
          "type": "uint256"
        }
      ],
      "stateMutability": "nonpayable",
      "type": "function"
    },
    {
      "inputs": [],
      "name": "terminalDirectory",
      "outputs": [
        {
          "internalType": "contract ITerminalDirectory",
          "name": "",
          "type": "address"
        }
      ],
      "stateMutability": "view",
      "type": "function"
    },
    {
      "inputs": [],
      "name": "ticketBooth",
      "outputs": [
        {
          "internalType": "contract ITicketBooth",
          "name": "",
          "type": "address"
        }
      ],
      "stateMutability": "view",
      "type": "function"
    }
  ],
  "transactionHash": "0x356e3d4bb011a038e8733c53059afd399b3bbef553eadeacb9750a13b2cb2f69",
  "args": [
    "0x4209E149F3c9A0F1AFd87AE305968dEa1c7e658e",
    "0x352416F794175b0efAc3df801943560C5006f06b",
    "0x67091E60FD91563D82316C44822994E8d6c27419",
    "0x6146588A8Ef03bf8dcBb0519Cc23c7187C7d5026",
    "0x463f389e406E030f52A1EC204ea7bC0784978d8B",
    "0x7707e2cb8Bb1b1026CF42bf9cf8c6714Ea56Abe8",
    "0x4533f15d4D83a9c8050Cd4BCf4186b4853A3b525",
    "0x95C54D662c31672b2E9C572959AcF93cc883a0A5"
  ],
  "solcInputHash": "b611a48ccf636fef65065ee937e0c17d",
  "bytecode": "0x610160604052600a6004553480156200001757600080fd5b5060405162006262380380620062628339810160408190526200003a9162000191565b6001600160601b0319606086901b1660805260016000556001600160a01b038816158015906200007257506001600160a01b03871615155b80156200008757506001600160a01b03861615155b80156200009c57506001600160a01b03841615155b8015620000b157506001600160a01b03831615155b8015620000c657506001600160a01b03821615155b8015620000db57506001600160a01b03811615155b6200012c5760405162461bcd60e51b815260206004820152601860248201527f5465726d696e616c56313a205a45524f5f414444524553530000000000000000604482015260640160405180910390fd5b606097881b6001600160601b031990811660a05296881b871660c05294871b861660e05291861b851661010052851b84166101205290931b90911661014052600580546001600160a01b0319166001600160a01b03909216919091179055506200026b565b600080600080600080600080610100898b031215620001af57600080fd5b8851620001bc8162000252565b60208a0151909850620001cf8162000252565b60408a0151909750620001e28162000252565b60608a0151909650620001f58162000252565b60808a0151909550620002088162000252565b60a08a01519094506200021b8162000252565b60c08a01519093506200022e8162000252565b60e08a0151909250620002418162000252565b809150509295985092959890939650565b6001600160a01b03811681146200026857600080fd5b50565b60805160601c60a05160601c60c05160601c60e05160601c6101005160601c6101205160601c6101405160601c615e456200041d6000396000818161032e015281816122a20152818161259e01528181613cad0152614142015260008181610586015281816108f40152818161117101526144af0152600081816104ae015281816129e501528181612a7301528181612f6b0152818161301101528181613f53015261498301526000818161041d015281816113e6015281816114db015281816116df01528181611da60152818161242f01528181612c2f01528181612cfd015281816131830152818161341001528181613a9f0152614aae015260008181610362015281816107aa015281816110a5015281816115fa015281816117fa0152818161293201528181612e84015281816130c40152818161350201528181613793015261382a0152600081816103c901528181610ab801528181610b7701528181610e7c015281816120680152818161275d01528181612dda01526133410152600081816104e201528181610f5f015281816119dd01528181611aa90152818161214b01526128400152615e456000f3fe6080604052600436106101c25760003560e01c80638b79543c116100f7578063ad243d1811610095578063ddca3f4311610064578063ddca3f43146105a8578063ddfd414a146105be578063e2c673a5146105de578063f39c38a0146105fe57600080fd5b8063ad243d1814610504578063af82d3be14610524578063b9f1109114610544578063d3419bf31461057457600080fd5b80639cc7f708116100d15780639cc7f7081461043f5780639dda3f911461046c578063a7c3cca11461049c578063ad007d63146104d057600080fd5b80638b79543c146103b757806392ad35f3146103eb5780639b602d601461040b57600080fd5b8063405b84fa116101645780636abcf8e31161013e5780636abcf8e31461031c578063882af667146103505780638955ba17146103845780638a19e355146103a457600080fd5b8063405b84fa146102a45780635aa6e675146102c457806369fe0e2d146102fc57600080fd5b80632be5c650116101a05780632be5c650146102245780632e9d3b8f146102445780633015a5b514610264578063308a20ad1461028457600080fd5b806302c8986f146101c757806308014ddc146101ed578063238efcbc1461020d575b600080fd5b6101da6101d5366004615462565b61061e565b6040519081526020015b60405180910390f35b3480156101f957600080fd5b506101da610208366004615690565b610718565b34801561021957600080fd5b50610222610d5d565b005b34801561023057600080fd5b5061022261023f3660046155bc565b610e4d565b34801561025057600080fd5b506101da61025f366004615022565b611498565b34801561027057600080fd5b506101da61027f366004615057565b611921565b34801561029057600080fd5b5061022261029f366004614f31565b611e72565b3480156102b057600080fd5b506102226102bf3660046154d6565b612039565b3480156102d057600080fd5b506005546102e4906001600160a01b031681565b6040516001600160a01b0390911681526020016101e4565b34801561030857600080fd5b50610222610317366004615449565b61264c565b34801561032857600080fd5b506102e47f000000000000000000000000000000000000000000000000000000000000000081565b34801561035c57600080fd5b506102e47f000000000000000000000000000000000000000000000000000000000000000081565b34801561039057600080fd5b506101da61039f366004615506565b61272b565b6102226103b2366004615449565b612b08565b3480156103c357600080fd5b506102e47f000000000000000000000000000000000000000000000000000000000000000081565b3480156103f757600080fd5b506101da61040636600461559a565b612bea565b34801561041757600080fd5b506102e47f000000000000000000000000000000000000000000000000000000000000000081565b34801561044b57600080fd5b506101da61045a366004615449565b60036020526000908152604090205481565b34801561047857600080fd5b5061048c610487366004615449565b612cbf565b60405190151581526020016101e4565b3480156104a857600080fd5b506102e47f000000000000000000000000000000000000000000000000000000000000000081565b3480156104dc57600080fd5b506102e47f000000000000000000000000000000000000000000000000000000000000000081565b34801561051057600080fd5b5061022261051f366004614f4e565b612dc0565b34801561053057600080fd5b506101da61053f366004615449565b613088565b34801561055057600080fd5b5061048c61055f366004614f31565b60076020526000908152604090205460ff1681565b34801561058057600080fd5b506102e47f000000000000000000000000000000000000000000000000000000000000000081565b3480156105b457600080fd5b506101da60045481565b3480156105ca57600080fd5b506101da6105d9366004615449565b6134c6565b3480156105ea57600080fd5b506102226105f9366004614f31565b613598565b34801561060a57600080fd5b506006546102e4906001600160a01b031681565b60008034116106745760405162461bcd60e51b815260206004820152601b60248201527f5465726d696e616c56313a3a7061793a204241445f414d4f554e54000000000060448201526064015b60405180910390fd5b6001600160a01b0385166106ca5760405162461bcd60e51b815260206004820152601d60248201527f5465726d696e616c56313a3a7061793a205a45524f5f41444452455353000000604482015260640161066b565b61070e86348787878080601f016020809104026020016040519081016040528093929190818152602001838380828437600092019190915250899250613757915050565b9695505050505050565b60006002600054141561076d5760405162461bcd60e51b815260206004820152601f60248201527f5265656e7472616e637947756172643a207265656e7472616e742063616c6c00604482015260640161066b565b600260009081556040517f1ee2c9bf00000000000000000000000000000000000000000000000000000000815260048101879052602481018690527f00000000000000000000000000000000000000000000000000000000000000006001600160a01b031690631ee2c9bf9060440161020060405180830381600087803b1580156107f757600080fd5b505af115801561080b573d6000803e3d6000fd5b505050506040513d601f19601f8201168201806040525081019061082f919061537c565b8051909150610842576000915050610d50565b80610160015184146108bb5760405162461bcd60e51b8152602060048201526024808201527f5465726d696e616c56313a3a7461703a20554e45585045435445445f4355525260448201527f454e435900000000000000000000000000000000000000000000000000000000606482015260840161066b565b6101608101516040517f9fa937230000000000000000000000000000000000000000000000000000000081526000916001600160a01b037f00000000000000000000000000000000000000000000000000000000000000001691639fa937239161092b9160040190815260200190565b60206040518083038186803b15801561094357600080fd5b505afa158015610957573d6000803e3d6000fd5b505050506040513d601f19601f8201168201806040525081019061097b91906152e6565b905060006109898783613c5c565b9050808511156109db5760405162461bcd60e51b815260206004820152601b60248201527f5465726d696e616c56313a3a7461703a20494e41444551554154450000000000604482015260640161066b565b60208084015160009081526003909152604090205480821115610a665760405162461bcd60e51b815260206004820152602360248201527f5465726d696e616c56313a3a7461703a20494e53554646494349454e545f465560448201527f4e44530000000000000000000000000000000000000000000000000000000000606482015260840161066b565b610a708282615c3c565b60008a81526003602090815260408083209390935586015191517f6352211e0000000000000000000000000000000000000000000000000000000081526004810192909252907f00000000000000000000000000000000000000000000000000000000000000006001600160a01b031690636352211e9060240160206040518083038186803b158015610b0257600080fd5b505afa158015610b16573d6000803e3d6000fd5b505050506040513d601f19601f82011682018060405250810190610b3a9190614f14565b6040517f49491987000000000000000000000000000000000000000000000000000000008152600481018c90529091506000906001600160a01b037f00000000000000000000000000000000000000000000000000000000000000001690634949198790602401602060405180830381600087803b158015610bbb57600080fd5b505af1158015610bcf573d6000803e3d6000fd5b505050506040513d601f19601f82011682018060405250810190610bf391906152e6565b905060008087610180015111610c0a576000610c5f565b6101808701516040517f4665652066726f6d2040000000000000000000000000000000000000000000006020820152602a8101849052610c5f9187918690604a01604051602081830303815290604052613c71565b90506000610cb888610c718489615c3c565b6040517f5061796f75742066726f6d2040000000000000000000000000000000000000006020820152602d8101879052604d01604051602081830303815290604052613f0f565b90508015610cca57610cca8482614380565b836001600160a01b0316886020015189600001517fe7f36a5ce6404ca99aa79e20649f15a86eed188b6362c51d0302ba182b7af3b88f8c6101600151878c610d129190615c3c565b6040805193845260208401929092529082015260608101869052608081018790523360a082015260c00160405180910390a450509451955050505050505b6001600055949350505050565b6006546001600160a01b03163314610ddd5760405162461bcd60e51b815260206004820152602a60248201527f5465726d696e616c56313a3a616363657074476f7665726e616e63653a20554e60448201527f415554484f52495a454400000000000000000000000000000000000000000000606482015260840161066b565b600654600580547fffffffffffffffffffffffff0000000000000000000000000000000000000000166001600160a01b0390921691821790556040518181527f0e5e627abed15db8c4841ff7db9a3fb94e105b243564c206bf485362210eee07906020015b60405180910390a150565b6040517f6352211e000000000000000000000000000000000000000000000000000000008152600481018790527f00000000000000000000000000000000000000000000000000000000000000006001600160a01b031690636352211e9060240160206040518083038186803b158015610ec657600080fd5b505afa158015610eda573d6000803e3d6000fd5b505050506040513d601f19601f82011682018060405250810190610efe9190614f14565b866002336001600160a01b0384161480610fd957506040517fc161c93f0000000000000000000000000000000000000000000000000000000081523360048201526001600160a01b03848116602483015260448201849052606482018390527f0000000000000000000000000000000000000000000000000000000000000000169063c161c93f9060840160206040518083038186803b158015610fa157600080fd5b505afa158015610fb5573d6000803e3d6000fd5b505050506040513d601f19601f82011682018060405250810190610fd991906152c9565b6110255760405162461bcd60e51b815260206004820152601860248201527f4f706572617461626c653a20554e415554484f52495a45440000000000000000604482015260640161066b565b6001600160a01b0386166110a15760405162461bcd60e51b815260206004820152602660248201527f5465726d696e616c56313a3a7072696e745469636b6574733a205a45524f5f4160448201527f4444524553530000000000000000000000000000000000000000000000000000606482015260840161066b565b60007f00000000000000000000000000000000000000000000000000000000000000006001600160a01b031663e16fd0ec6040518163ffffffff1660e01b815260040160206040518083038186803b1580156110fc57600080fd5b505afa158015611110573d6000803e3d6000fd5b505050506040513d601f19601f8201168201806040525081019061113491906152e6565b6040517f9fa93723000000000000000000000000000000000000000000000000000000008152600481018a90529091506000906001600160a01b037f00000000000000000000000000000000000000000000000000000000000000001690639fa937239060240160206040518083038186803b1580156111b357600080fd5b505afa1580156111c7573d6000803e3d6000fd5b505050506040513d601f19601f820116820180604052508101906111eb91906152e6565b905060006112026111fc8c84613c5c565b8461449e565b905061120d8c612cbf565b61127f5760405162461bcd60e51b815260206004820152602860248201527f5465726d696e616c56313a3a7072696e745469636b6574733a20414c5245414460448201527f595f414354495645000000000000000000000000000000000000000000000000606482015260840161066b565b60008c81526001602052604081205412806112d4575060008c8152600160205260409020547f7fffffffffffffffffffffffffffffffffffffffffffffffffffffffffffffff906112d1908390615bb0565b11155b6113465760405162461bcd60e51b815260206004820152602b60248201527f5465726d696e616c56313a3a7072696e745469636b6574733a20494e545f4c4960448201527f4d49545f52454143484544000000000000000000000000000000000000000000606482015260840161066b565b60008c815260016020526040902054611360908290615b3c565b60008d815260016020908152604080832093909355600290522054611386908290615bb0565b60008d8152600260205260409081902091909155517fe0826c890000000000000000000000000000000000000000000000000000000081526001600160a01b038a81166004830152602482018e90526044820183905288151560648301527f0000000000000000000000000000000000000000000000000000000000000000169063e0826c8990608401600060405180830381600087803b15801561142a57600080fd5b505af115801561143e573d6000803e3d6000fd5b50505050886001600160a01b03168c7fd20155929e5ac408109c05ee051ce73565dd5cf51983f35b415c007b332254a28d8d8c3360405161148294939291906159fa565b60405180910390a3505050505050505050505050565b6040517efdd58e0000000000000000000000000000000000000000000000000000000081526001600160a01b0384811660048301526024820184905260009183917f0000000000000000000000000000000000000000000000000000000000000000169062fdd58e9060440160206040518083038186803b15801561151c57600080fd5b505afa158015611530573d6000803e3d6000fd5b505050506040513d601f19601f8201168201806040525081019061155491906152e6565b10156115c85760405162461bcd60e51b815260206004820152603360248201527f5465726d696e616c56313a3a636c61696d61626c654f766572666c6f773a204960448201527f4e53554646494349454e545f5449434b45545300000000000000000000000000606482015260840161066b565b6040517f43a266c2000000000000000000000000000000000000000000000000000000008152600481018490526000907f00000000000000000000000000000000000000000000000000000000000000006001600160a01b0316906343a266c2906024016102006040518083038186803b15801561164557600080fd5b505afa158015611659573d6000803e3d6000fd5b505050506040513d601f19601f8201168201806040525081019061167d919061537c565b805190915061169057600091505061191a565b600061169b826144aa565b9050806116ad5760009250505061191a565b6040517f75b0d9cd000000000000000000000000000000000000000000000000000000008152600481018690526000907f00000000000000000000000000000000000000000000000000000000000000006001600160a01b0316906375b0d9cd9060240160206040518083038186803b15801561172957600080fd5b505afa15801561173d573d6000803e3d6000fd5b505050506040513d601f19601f8201168201806040525081019061176191906152e6565b9050600061178f60016000898152602001908152602001600020546008866101e00151901c60ff16846145c0565b905080156117a4576117a18183615bb0565b91505b818614156117b8578294505050505061191a565b60006117c5848885614633565b9050600060016040517fc55f571c000000000000000000000000000000000000000000000000000000008152600481018b90527f00000000000000000000000000000000000000000000000000000000000000006001600160a01b03169063c55f571c9060240160206040518083038186803b15801561184457600080fd5b505afa158015611858573d6000803e3d6000fd5b505050506040513d601f19601f8201168201806040525081019061187c91906152ff565b600381111561188d5761188d615d23565b146118a4576010866101e00151901c60ff166118b2565b6018866101e00151901c60ff165b90508060c814156118ca5750945061191a9350505050565b806118e7576118da828986614633565b965050505050505061191a565b611911826119008a6118fa8560c8615c3c565b88614633565b61190a9084615bb0565b60c8614633565b96505050505050505b9392505050565b6000600260005414156119765760405162461bcd60e51b815260206004820152601f60248201527f5265656e7472616e637947756172643a207265656e7472616e742063616c6c00604482015260640161066b565b600260005586866003336001600160a01b0384161480611a5757506040517fc161c93f0000000000000000000000000000000000000000000000000000000081523360048201526001600160a01b03848116602483015260448201849052606482018390527f0000000000000000000000000000000000000000000000000000000000000000169063c161c93f9060840160206040518083038186803b158015611a1f57600080fd5b505afa158015611a33573d6000803e3d6000fd5b505050506040513d601f19601f82011682018060405250810190611a5791906152c9565b80611b2357506040517fc161c93f0000000000000000000000000000000000000000000000000000000081523360048201526001600160a01b03848116602483015260006044830152606482018390527f0000000000000000000000000000000000000000000000000000000000000000169063c161c93f9060840160206040518083038186803b158015611aeb57600080fd5b505afa158015611aff573d6000803e3d6000fd5b505050506040513d601f19601f82011682018060405250810190611b2391906152c9565b611b6f5760405162461bcd60e51b815260206004820152601860248201527f4f706572617461626c653a20554e415554484f52495a45440000000000000000604482015260640161066b565b60008811611bbf5760405162461bcd60e51b815260206004820152601960248201527f5465726d696e616c56313a3a72656465656d3a204e4f5f4f5000000000000000604482015260640161066b565b6001600160a01b038616611c155760405162461bcd60e51b815260206004820181905260248201527f5465726d696e616c56313a3a72656465656d3a205a45524f5f41444452455353604482015260640161066b565b611c208a8a8a611498565b935060008411611c725760405162461bcd60e51b815260206004820152601960248201527f5465726d696e616c56313a3a72656465656d3a204e4f5f4f5000000000000000604482015260640161066b565b86841015611cc25760405162461bcd60e51b815260206004820152601e60248201527f5465726d696e616c56313a3a72656465656d3a20494e41444551554154450000604482015260640161066b565b600089815260036020526040902054611cdc908590615c3c565b60008a8152600360209081526040808320939093556001905290812054908112611d2957888112611d1657611d118982615bc8565b611d46565b611d20818a615bc8565b611d1190615c8c565b88611d3382615c8c565b611d3d9190615bb0565b611d4690615c8c565b60008b8152600160205260409081902091909155517f65e0d7310000000000000000000000000000000000000000000000000000000081526001600160a01b038c81166004830152602482018c9052604482018b905287151560648301527f000000000000000000000000000000000000000000000000000000000000000016906365e0d73190608401600060405180830381600087803b158015611dea57600080fd5b505af1158015611dfe573d6000803e3d6000fd5b50505050611e0c8786614380565b604080518a815260208101879052338183015290518b916001600160a01b038a811692908f16917f78ce282a3b64e54349642ee14253bf3ca2a4c69b6e479d57d196027f1d0a514e919081900360600190a4505060016000555090979650505050505050565b6005546001600160a01b03163314611ecc5760405162461bcd60e51b815260206004820152601860248201527f5465726d696e616c56313a20554e415554484f52495a45440000000000000000604482015260640161066b565b6001600160a01b038116611f485760405162461bcd60e51b815260206004820152602860248201527f5465726d696e616c56313a3a616c6c6f774d6967726174696f6e3a205a45524f60448201527f5f41444452455353000000000000000000000000000000000000000000000000606482015260840161066b565b6001600160a01b038116301415611fc75760405162461bcd60e51b815260206004820152602160248201527f5465726d696e616c56313a3a616c6c6f774d6967726174696f6e3a204e4f5f4f60448201527f5000000000000000000000000000000000000000000000000000000000000000606482015260840161066b565b6001600160a01b03811660008181526007602090815260409182902080547fffffffffffffffffffffffffffffffffffffffffffffffffffffffffffffff0016600117905590519182527fdbee026e3c3dc50322e5f718d6bf90a96cefdc9e2bfa693436d0e1ddf600d1cc9101610e42565b6040517f6352211e000000000000000000000000000000000000000000000000000000008152600481018390527f00000000000000000000000000000000000000000000000000000000000000006001600160a01b031690636352211e9060240160206040518083038186803b1580156120b257600080fd5b505afa1580156120c6573d6000803e3d6000fd5b505050506040513d601f19601f820116820180604052508101906120ea9190614f14565b826004336001600160a01b03841614806121c557506040517fc161c93f0000000000000000000000000000000000000000000000000000000081523360048201526001600160a01b03848116602483015260448201849052606482018390527f0000000000000000000000000000000000000000000000000000000000000000169063c161c93f9060840160206040518083038186803b15801561218d57600080fd5b505afa1580156121a1573d6000803e3d6000fd5b505050506040513d601f19601f820116820180604052508101906121c591906152c9565b6122115760405162461bcd60e51b815260206004820152601860248201527f4f706572617461626c653a20554e415554484f52495a45440000000000000000604482015260640161066b565b600260005414156122645760405162461bcd60e51b815260206004820152601f60248201527f5265656e7472616e637947756172643a207265656e7472616e742063616c6c00604482015260640161066b565b60026000556040517f4fe0eced0000000000000000000000000000000000000000000000000000000081526004810186905230906001600160a01b037f00000000000000000000000000000000000000000000000000000000000000001690634fe0eced9060240160206040518083038186803b1580156122e457600080fd5b505afa1580156122f8573d6000803e3d6000fd5b505050506040513d601f19601f8201168201806040525081019061231c9190614f14565b6001600160a01b0316146123985760405162461bcd60e51b815260206004820152602160248201527f5465726d696e616c56313a3a6d6967726174653a20554e415554484f52495a4560448201527f4400000000000000000000000000000000000000000000000000000000000000606482015260840161066b565b6001600160a01b03841660009081526007602052604090205460ff166124005760405162461bcd60e51b815260206004820181905260248201527f5465726d696e616c56313a3a6d6967726174653a204e4f545f414c4c4f574544604482015260640161066b565b6040517f75b0d9cd000000000000000000000000000000000000000000000000000000008152600481018690527f00000000000000000000000000000000000000000000000000000000000000006001600160a01b0316906375b0d9cd9060240160206040518083038186803b15801561247957600080fd5b505afa15801561248d573d6000803e3d6000fd5b505050506040513d601f19601f820116820180604052508101906124b191906152e6565b600086815260016020526040902054146124d0576124ce85613088565b505b60008581526003602052604081208054919055801561255f576040517f8a19e355000000000000000000000000000000000000000000000000000000008152600481018790526001600160a01b03861690638a19e3559083906024016000604051808303818588803b15801561254557600080fd5b505af1158015612559573d6000803e3d6000fd5b50505050505b6040517f9fc9ea47000000000000000000000000000000000000000000000000000000008152600481018790526001600160a01b0386811660248301527f00000000000000000000000000000000000000000000000000000000000000001690639fc9ea4790604401600060405180830381600087803b1580156125e257600080fd5b505af11580156125f6573d6000803e3d6000fd5b5050604080518481523360208201526001600160a01b03891693508992507fa7519e5f94697b7f53e97c5eb46a0c730a296ab686ab8fd333835c5f735784eb910160405180910390a35050600160005550505050565b6005546001600160a01b031633146126a65760405162461bcd60e51b815260206004820152601860248201527f5465726d696e616c56313a20554e415554484f52495a45440000000000000000604482015260640161066b565b60c88111156126f75760405162461bcd60e51b815260206004820152601b60248201527f5465726d696e616c56313a3a7365744665653a204241445f4645450000000000604482015260640161066b565b60048190556040518181527e172ddfc5ae88d08b3de01a5a187667c37a5a53989e8c175055cb6c993792a790602001610e42565b6040517f6352211e000000000000000000000000000000000000000000000000000000008152600481018690526000907f00000000000000000000000000000000000000000000000000000000000000006001600160a01b031690636352211e9060240160206040518083038186803b1580156127a757600080fd5b505afa1580156127bb573d6000803e3d6000fd5b505050506040513d601f19601f820116820180604052508101906127df9190614f14565b866001336001600160a01b03841614806128ba57506040517fc161c93f0000000000000000000000000000000000000000000000000000000081523360048201526001600160a01b03848116602483015260448201849052606482018390527f0000000000000000000000000000000000000000000000000000000000000000169063c161c93f9060840160206040518083038186803b15801561288257600080fd5b505afa158015612896573d6000803e3d6000fd5b505050506040513d601f19601f820116820180604052508101906128ba91906152c9565b6129065760405162461bcd60e51b815260206004820152601860248201527f4f706572617461626c653a20554e415554484f52495a45440000000000000000604482015260640161066b565b600061291f61291a368a90038a018a615320565b614738565b9050600061292c8b612cbf565b905060007f00000000000000000000000000000000000000000000000000000000000000006001600160a01b0316638a1b0eb48d8d86600454876040518663ffffffff1660e01b8152600401612986959493929190615850565b61020060405180830381600087803b1580156129a157600080fd5b505af11580156129b5573d6000803e3d6000fd5b505050506040513d601f19601f820116820180604052508101906129d9919061537c565b895190915015612a6a577f00000000000000000000000000000000000000000000000000000000000000006001600160a01b031663a67e210a8d83608001518c6040518463ffffffff1660e01b8152600401612a37939291906158c7565b600060405180830381600087803b158015612a5157600080fd5b505af1158015612a65573d6000803e3d6000fd5b505050505b875115612af8577f00000000000000000000000000000000000000000000000000000000000000006001600160a01b031663ebe352a48d83608001518b6040518463ffffffff1660e01b8152600401612ac593929190615973565b600060405180830381600087803b158015612adf57600080fd5b505af1158015612af3573d6000803e3d6000fd5b505050505b519b9a5050505050505050505050565b60003411612b7d5760405162461bcd60e51b8152602060048201526024808201527f5465726d696e616c56313a3a616464546f42616c616e63653a204241445f414d60448201527f4f554e5400000000000000000000000000000000000000000000000000000000606482015260840161066b565b600081815260036020526040902054612b97903490615bb0565b600082815260036020908152604091829020929092558051348152339281019290925282917f08534c4f6026a713959f9286d994e8430e6d0fd11045360abf782bacaa288d43910160405180910390a250565b6000828152600160205260408082205490517f75b0d9cd00000000000000000000000000000000000000000000000000000000815260048101859052612cb6919084907f00000000000000000000000000000000000000000000000000000000000000006001600160a01b0316906375b0d9cd9060240160206040518083038186803b158015612c7957600080fd5b505afa158015612c8d573d6000803e3d6000fd5b505050506040513d601f19601f82011682018060405250810190612cb191906152e6565b6145c0565b90505b92915050565b6000818152600260205260408082205490517f75b0d9cd000000000000000000000000000000000000000000000000000000008152600481018490527f00000000000000000000000000000000000000000000000000000000000000006001600160a01b0316906375b0d9cd9060240160206040518083038186803b158015612d4757600080fd5b505afa158015612d5b573d6000803e3d6000fd5b505050506040513d601f19601f82011682018060405250810190612d7f91906152e6565b148015612d99575060008281526001602052604081205412155b8015612cb95750506000908152600260209081526040808320546001909252909120541490565b6000612dd461291a36869003860186615320565b905060007f00000000000000000000000000000000000000000000000000000000000000006001600160a01b03166317753c468b8b8b8b306040518663ffffffff1660e01b8152600401612e2c95949392919061570f565b602060405180830381600087803b158015612e4657600080fd5b505af1158015612e5a573d6000803e3d6000fd5b505050506040513d601f19601f82011682018060405250810190612e7e91906152e6565b905060007f00000000000000000000000000000000000000000000000000000000000000006001600160a01b0316638a1b0eb483898660045460016040518663ffffffff1660e01b8152600401612ed9959493929190615850565b61020060405180830381600087803b158015612ef457600080fd5b505af1158015612f08573d6000803e3d6000fd5b505050506040513d601f19601f82011682018060405250810190612f2c919061537c565b855190915015612fd55760808101516040517fa67e210a0000000000000000000000000000000000000000000000000000000081526001600160a01b037f0000000000000000000000000000000000000000000000000000000000000000169163a67e210a91612fa29186918a906004016158c7565b600060405180830381600087803b158015612fbc57600080fd5b505af1158015612fd0573d6000803e3d6000fd5b505050505b83511561307b5760808101516040517febe352a40000000000000000000000000000000000000000000000000000000081526001600160a01b037f0000000000000000000000000000000000000000000000000000000000000000169163ebe352a4916130489186918990600401615973565b600060405180830381600087803b15801561306257600080fd5b505af1158015613076573d6000803e3d6000fd5b505050505b5050505050505050505050565b6040517f43a266c20000000000000000000000000000000000000000000000000000000081526004810182905260009081906001600160a01b037f000000000000000000000000000000000000000000000000000000000000000016906343a266c2906024016102006040518083038186803b15801561310757600080fd5b505afa15801561311b573d6000803e3d6000fd5b505050506040513d601f19601f8201168201806040525081019061313f919061537c565b80519091506131515750600092915050565b6040517f75b0d9cd000000000000000000000000000000000000000000000000000000008152600481018490526000907f00000000000000000000000000000000000000000000000000000000000000006001600160a01b0316906375b0d9cd9060240160206040518083038186803b1580156131cd57600080fd5b505afa1580156131e1573d6000803e3d6000fd5b505050506040513d601f19601f8201168201806040525081019061320591906152e6565b905061323160016000868152602001908152602001600020546008846101e00151901c60ff16836145c0565b92508261323f575050919050565b7f7fffffffffffffffffffffffffffffffffffffffffffffffffffffffffffffff61326a8483615bb0565b11156132de5760405162461bcd60e51b815260206004820152603360248201527f5465726d696e616c56313a3a7072696e7452657365727665645469636b65747360448201527f3a20494e545f4c494d49545f5245414348454400000000000000000000000000606482015260840161066b565b6132e88382615bb0565b600085815260016020526040812091909155613304838561493f565b6040517f6352211e000000000000000000000000000000000000000000000000000000008152600481018790529091506000906001600160a01b037f00000000000000000000000000000000000000000000000000000000000000001690636352211e9060240160206040518083038186803b15801561338357600080fd5b505afa158015613397573d6000803e3d6000fd5b505050506040513d601f19601f820116820180604052508101906133bb9190614f14565b9050811561346d576040517fe0826c890000000000000000000000000000000000000000000000000000000081526001600160a01b0382811660048301526024820188905260448201849052600060648301527f0000000000000000000000000000000000000000000000000000000000000000169063e0826c8990608401600060405180830381600087803b15801561345457600080fd5b505af1158015613468573d6000803e3d6000fd5b505050505b83516040805187815260208101859052338183015290516001600160a01b03841692899290917f54ad84f37b2d6ff349b859f99f05bceaba2ee199cde3b63ae47c38f5d6116c0d9181900360600190a450505050919050565b6040517f43a266c20000000000000000000000000000000000000000000000000000000081526004810182905260009081906001600160a01b037f000000000000000000000000000000000000000000000000000000000000000016906343a266c2906024016102006040518083038186803b15801561354557600080fd5b505afa158015613559573d6000803e3d6000fd5b505050506040513d601f19601f8201168201806040525081019061357d919061537c565b805190915061358f5750600092915050565b61191a816144aa565b6005546001600160a01b031633146135f25760405162461bcd60e51b815260206004820152601860248201527f5465726d696e616c56313a20554e415554484f52495a45440000000000000000604482015260640161066b565b6001600160a01b03811661366e5760405162461bcd60e51b815260206004820152602b60248201527f5465726d696e616c56313a3a6170706f696e74476f7665726e616e63653a205a60448201527f45524f5f41444452455353000000000000000000000000000000000000000000606482015260840161066b565b6005546001600160a01b03828116911614156136f15760405162461bcd60e51b8152602060048201526024808201527f5465726d696e616c56313a3a6170706f696e74476f7665726e616e63653a204e60448201527f4f5f4f5000000000000000000000000000000000000000000000000000000000606482015260840161066b565b600680547fffffffffffffffffffffffff0000000000000000000000000000000000000000166001600160a01b0383169081179091556040519081527fc0cb68cd8dcc1cc96892b4539356b8272b9a07c92e0fbbcd0b85c44d3494d70690602001610e42565b6040517f43a266c20000000000000000000000000000000000000000000000000000000081526004810186905260009081906001600160a01b037f000000000000000000000000000000000000000000000000000000000000000016906343a266c2906024016102006040518083038186803b1580156137d657600080fd5b505afa1580156137ea573d6000803e3d6000fd5b505050506040513d601f19601f8201168201806040525081019061380e919061537c565b905060008160400151600014613828578160c001516138b9565b7f00000000000000000000000000000000000000000000000000000000000000006001600160a01b031663e16fd0ec6040518163ffffffff1660e01b815260040160206040518083038186803b15801561388157600080fd5b505afa158015613895573d6000803e3d6000fd5b505050506040513d601f19601f820116820180604052508101906138b991906152e6565b905060006138c7888361449e565b9050600083604001516000146138e9576008846101e00151901c60ff166138ec565b60005b905060006138ff8361190a8460c8615c3c565b60008c81526003602052604090205490915061391c908b90615bb0565b60008c8152600360205260409020558015613b00576040850151613a515760008b815260016020526040812054128061398f575060008b8152600160205260409020547f7fffffffffffffffffffffffffffffffffffffffffffffffffffffffffffffff9061398c908590615bb0565b11155b613a015760405162461bcd60e51b815260206004820152602b60248201527f5465726d696e616c56313a3a7072696e745469636b6574733a20494e545f4c4960448201527f4d49545f52454143484544000000000000000000000000000000000000000000606482015260840161066b565b60008b815260016020526040902054613a1b908290615b3c565b60008c815260016020908152604080832093909355600290522054613a41908290615bb0565b60008c8152600260205260409020555b6040517fe0826c890000000000000000000000000000000000000000000000000000000081526001600160a01b038a81166004830152602482018d90526044820183905288151560648301527f0000000000000000000000000000000000000000000000000000000000000000169063e0826c8990608401600060405180830381600087803b158015613ae357600080fd5b505af1158015613af7573d6000803e3d6000fd5b50505050613c01565b8215613c015760008b8152600160205260408120541380613b65575060008b8152600160205260409020547f7fffffffffffffffffffffffffffffffffffffffffffffffffffffffffffffff908490613b5890615c8c565b613b629190615bb0565b11155b613bd75760405162461bcd60e51b815260206004820152602b60248201527f5465726d696e616c56313a3a7072696e745469636b6574733a20494e545f4c4960448201527f4d49545f52454143484544000000000000000000000000000000000000000000606482015260840161066b565b60008b815260016020526040902054613bf1908490615bc8565b60008c8152600160205260409020555b886001600160a01b03168b86600001517f3deb3bb81c337489381f7685daa204d30e6a265dac443a718949c258e3e173178d8c33604051613c449392919061581e565b60405180910390a45050915198975050505050505050565b6000612cb683670de0b6b3a764000084614633565b6000613c888560c8613c838782615bb0565b614633565b613c929086615c3c565b905080613ca157506000613f07565b306001600160a01b03167f00000000000000000000000000000000000000000000000000000000000000006001600160a01b0316634fe0eced600560009054906101000a90046001600160a01b03166001600160a01b0316633fafa1276040518163ffffffff1660e01b815260040160206040518083038186803b158015613d2857600080fd5b505afa158015613d3c573d6000803e3d6000fd5b505050506040513d601f19601f82011682018060405250810190613d6091906152e6565b6040518263ffffffff1660e01b8152600401613d7e91815260200190565b60206040518083038186803b158015613d9657600080fd5b505afa158015613daa573d6000803e3d6000fd5b505050506040513d601f19601f82011682018060405250810190613dce9190614f14565b6001600160a01b03161415613e8457600554604080517f3fafa1270000000000000000000000000000000000000000000000000000000081529051613e7e926001600160a01b031691633fafa127916004808301926020929190829003018186803b158015613e3c57600080fd5b505afa158015613e50573d6000803e3d6000fd5b505050506040513d601f19601f82011682018060405250810190613e7491906152e6565b8285856000613757565b50613f07565b6005546040517f897c063e0000000000000000000000000000000000000000000000000000000081526001600160a01b039091169063897c063e908390613ed49087908790600090600401615763565b6000604051808303818588803b158015613eed57600080fd5b505af1158015613f01573d6000803e3d6000fd5b50505050505b949350505050565b602083015160808401516040517f7559aaaa0000000000000000000000000000000000000000000000000000000081526004810192909252602482015282906000907f00000000000000000000000000000000000000000000000000000000000000006001600160a01b031690637559aaaa9060440160006040518083038186803b158015613f9d57600080fd5b505afa158015613fb1573d6000803e3d6000fd5b505050506040513d6000823e601f3d908101601f19168201604052613fd991908101906150be565b9050805160001415613feb575061191a565b60005b815181101561437757600082828151811061400b5761400b615d52565b60200260200101519050600061402c87836020015161ffff16612710614633565b905080156143115760808201516001600160a01b0316156140ef576080820151602089015160a084015160608501516040517fec695ef7000000000000000000000000000000000000000000000000000000008152600481019390935266ffffffffffffff90911660248301526001600160a01b0390811660448301529091169063ec695ef79083906064016000604051808303818588803b1580156140d157600080fd5b505af11580156140e5573d6000803e3d6000fd5b5050505050614311565b60a082015166ffffffffffffff16156143035760a08201516040517f4fe0eced00000000000000000000000000000000000000000000000000000000815266ffffffffffffff90911660048201526000907f00000000000000000000000000000000000000000000000000000000000000006001600160a01b031690634fe0eced9060240160206040518083038186803b15801561418c57600080fd5b505afa1580156141a0573d6000803e3d6000fd5b505050506040513d601f19601f820116820180604052508101906141c49190614f14565b90506001600160a01b03811661421c5760405162461bcd60e51b815260206004820152601860248201527f5465726d696e616c56313a3a7461703a204241445f4d4f440000000000000000604482015260640161066b565b6001600160a01b0381163014156142555761424f8360a0015166ffffffffffffff168385606001518a8760000151613757565b506142fd565b60a0830151606084015184516040517f02c8986f0000000000000000000000000000000000000000000000000000000081526001600160a01b038516936302c8986f9387936142a9938e9190600401615a33565b6020604051808303818588803b1580156142c257600080fd5b505af11580156142d6573d6000803e3d6000fd5b50505050506040513d601f19601f820116820180604052508101906142fb91906152e6565b505b50614311565b614311826060015182614380565b61431b8186615c3c565b9450876020015188600001517fd37e528ac0cd9d9eeaa32903a436be474cce5651f7d3313a580ceacdae5cb34584843360405161435a93929190615797565b60405180910390a35050808061436f90615c53565b915050613fee565b50509392505050565b804710156143d05760405162461bcd60e51b815260206004820152601d60248201527f416464726573733a20696e73756666696369656e742062616c616e6365000000604482015260640161066b565b6000826001600160a01b03168260405160006040518083038185875af1925050503d806000811461441d576040519150601f19603f3d011682016040523d82523d6000602084013e614422565b606091505b50509050806144995760405162461bcd60e51b815260206004820152603a60248201527f416464726573733a20756e61626c6520746f2073656e642076616c75652c207260448201527f6563697069656e74206d61792068617665207265766572746564000000000000606482015260840161066b565b505050565b6000612cb68383614bb7565b6000807f00000000000000000000000000000000000000000000000000000000000000006001600160a01b0316639fa937238461016001516040518263ffffffff1660e01b815260040161450091815260200190565b60206040518083038186803b15801561451857600080fd5b505afa15801561452c573d6000803e3d6000fd5b505050506040513d601f19601f8201168201806040525081019061455091906152e6565b90506000836101c0015184610140015161456a9190615c3c565b9050600081156145835761457e8284613c5c565b614586565b60005b6020808701516000908152600390915260409020549091508181106145b4576145af8282615c3c565b61070e565b60009695505050505050565b60008060008512156145e4576145d585615c8c565b6145df9084615bb0565b6145ee565b6145ee8584615c3c565b9050806145ff57600091505061191a565b8360c8141561460f57905061191a565b806146208160c8613c838882615c3c565b61462a9190615c3c565b95945050505050565b600080807fffffffffffffffffffffffffffffffffffffffffffffffffffffffffffffffff858709858702925082811083820303915050806000141561468c5783828161468257614682615cf4565b049250505061191a565b8381106146cf576040517f773cc18c000000000000000000000000000000000000000000000000000000008152600481018290526024810185905260440161066b565b60008486880960026001871981018816978890046003810283188082028403028082028403028082028403028082028403028082028403029081029092039091026000889003889004909101858311909403939093029303949094049190911702949350505050565b600060c8826000015111156147db5760405162461bcd60e51b815260206004820152604360248201527f5465726d696e616c56313a3a5f76616c6964617465416e645061636b46756e6460448201527f696e674379636c654d657461646174613a204241445f52455345525645445f5260648201527f4154450000000000000000000000000000000000000000000000000000000000608482015260a40161066b565b60c88260200151111561487c5760405162461bcd60e51b815260206004820152604860248201527f5465726d696e616c56313a3a5f76616c6964617465416e645061636b46756e6460448201527f696e674379636c654d657461646174613a204241445f424f4e44494e475f435560648201527f5256455f52415445000000000000000000000000000000000000000000000000608482015260a40161066b565b60c88260400151111561491d5760405162461bcd60e51b815260206004820152605860248201527f5465726d696e616c56313a3a5f76616c6964617465416e645061636b46756e6460448201527f696e674379636c654d657461646174613a204241445f5245434f4e464947555260648201527f4154494f4e5f424f4e44494e475f43555256455f524154450000000000000000608482015260a40161066b565b508051602082015160409092015160181b60109290921b60089190911b171790565b602082015160808301516040517f4833b5120000000000000000000000000000000000000000000000000000000081526004810192909252602482015281906000907f00000000000000000000000000000000000000000000000000000000000000006001600160a01b031690634833b5129060440160006040518083038186803b1580156149cd57600080fd5b505afa1580156149e1573d6000803e3d6000fd5b505050506040513d6000823e601f3d908101601f19168201604052614a0991908101906151d5565b905060005b8151811015614baf576000828281518110614a2b57614a2b615d52565b602002602001015190506000614a4c86836020015161ffff16612710614633565b90508015614b0d576060820151602088015183516040517fe0826c890000000000000000000000000000000000000000000000000000000081526001600160a01b039384166004820152602481019290925260448201849052151560648201527f00000000000000000000000000000000000000000000000000000000000000009091169063e0826c8990608401600060405180830381600087803b158015614af457600080fd5b505af1158015614b08573d6000803e3d6000fd5b505050505b614b178186615c3c565b6020808901518951604080518751151581528785015161ffff16948101949094528087015165ffffffffffff16908401526060808701516001600160a01b031690840152608083018590523360a084015292975091907fe499491e3f5b7f35b5078102c27aa039bbde7ed027b91c996ac41e15d8f87d5c9060c00160405180910390a350508080614ba790615c53565b915050614a0e565b505092915050565b600080807fffffffffffffffffffffffffffffffffffffffffffffffffffffffffffffffff848609848602925082811083820303915050670de0b6b3a76400008110614c32576040517fd31b34020000000000000000000000000000000000000000000000000000000081526004810182905260240161066b565b600080670de0b6b3a76400008688099150506706f05b59d3b1ffff811182614c6c5780670de0b6b3a7640000850401945050505050612cb9565b6204000082850304939091119091037d40000000000000000000000000000000000000000000000000000000000002919091177faccb18165bd6fe31ae1cf318dc5b51eee0e1ba569b88cd74c1773b91fac106690201905092915050565b600082601f830112614cdb57600080fd5b81356020614cf0614ceb83615b18565b615ae7565b8281528181019085830160c080860288018501891015614d0f57600080fd5b6000805b87811015614dad5782848c031215614d29578182fd5b614d31615a77565b8435614d3c81615dc8565b815284880135614d4b81615dd6565b81890152604085810135614d5e81615de6565b90820152606085810135614d7181615db0565b90820152608085810135614d8481615db0565b9082015260a085810135614d9781615dfa565b9082015286529486019492820192600101614d13565b50929998505050505050505050565b600082601f830112614dcd57600080fd5b81356020614ddd614ceb83615b18565b80838252828201915082860187848660071b8901011115614dfd57600080fd5b6000805b86811015614e7857608080848c031215614e19578283fd5b614e21615aa0565b8435614e2c81615dc8565b815284880135614e3b81615dd6565b81890152604085810135614e4e81615de6565b90820152606085810135614e6181615db0565b908201528652948601949290920191600101614e01565b509198975050505050505050565b8035614e9181615dc8565b919050565b8051614e9181615db0565b60008083601f840112614eb357600080fd5b50813567ffffffffffffffff811115614ecb57600080fd5b602083019150836020828501011115614ee357600080fd5b9250929050565b600060608284031215614efc57600080fd5b50919050565b600060c08284031215614efc57600080fd5b600060208284031215614f2657600080fd5b815161191a81615db0565b600060208284031215614f4357600080fd5b813561191a81615db0565b6000806000806000806000806101c0898b031215614f6b57600080fd5b8835614f7681615db0565b975060208901359650604089013567ffffffffffffffff80821115614f9a57600080fd5b614fa68c838d01614ea1565b9098509650869150614fbb8c60608d01614f02565b9550614fcb8c6101208d01614eea565b94506101808b0135915080821115614fe257600080fd5b614fee8c838d01614cca565b93506101a08b013591508082111561500557600080fd5b506150128b828c01614dbc565b9150509295985092959890939650565b60008060006060848603121561503757600080fd5b833561504281615db0565b95602085013595506040909401359392505050565b60008060008060008060c0878903121561507057600080fd5b863561507b81615db0565b955060208701359450604087013593506060870135925060808701356150a081615db0565b915060a08701356150b081615dc8565b809150509295509295509295565b600060208083850312156150d157600080fd5b825167ffffffffffffffff8111156150e857600080fd5b8301601f810185136150f957600080fd5b8051615107614ceb82615b18565b8181528381019083850160c0808502860187018a101561512657600080fd5b60009550855b858110156151c65781838c031215615142578687fd5b61514a615a77565b835161515581615dc8565b81528389015161516481615dd6565b818a015260408481015161517781615de6565b9082015260608481015161518a81615db0565b9082015260808481015161519d81615db0565b9082015260a0848101516151b081615dfa565b908201528552938701939181019160010161512c565b50919998505050505050505050565b600060208083850312156151e857600080fd5b825167ffffffffffffffff8111156151ff57600080fd5b8301601f8101851361521057600080fd5b805161521e614ceb82615b18565b80828252848201915084840188868560071b870101111561523e57600080fd5b60009450845b848110156152bb57608080838c03121561525c578687fd5b615264615aa0565b835161526f81615dc8565b81528389015161527e81615dd6565b818a015260408481015161529181615de6565b908201526060848101516152a481615db0565b908201528552938701939190910190600101615244565b509098975050505050505050565b6000602082840312156152db57600080fd5b815161191a81615dc8565b6000602082840312156152f857600080fd5b5051919050565b60006020828403121561531157600080fd5b81516004811061191a57600080fd5b60006060828403121561533257600080fd5b6040516060810181811067ffffffffffffffff8211171561535557615355615d81565b80604052508235815260208301356020820152604083013560408201528091505092915050565b6000610200828403121561538f57600080fd5b615397615ac3565b825181526020830151602082015260408301516040820152606083015160608201526080830151608082015260a083015160a082015260c083015160c08201526153e360e08401614e96565b60e0820152610100838101519082015261012080840151908201526101408084015190820152610160808401519082015261018080840151908201526101a080840151908201526101c080840151908201526101e0928301519281019290925250919050565b60006020828403121561545b57600080fd5b5035919050565b60008060008060006080868803121561547a57600080fd5b85359450602086013561548c81615db0565b9350604086013567ffffffffffffffff8111156154a857600080fd5b6154b488828901614ea1565b90945092505060608601356154c881615dc8565b809150509295509295909350565b600080604083850312156154e957600080fd5b8235915060208301356154fb81615db0565b809150509250929050565b6000806000806000610180868803121561551f57600080fd5b853594506155308760208801614f02565b935061553f8760e08801614eea565b925061014086013567ffffffffffffffff8082111561555d57600080fd5b61556989838a01614cca565b935061016088013591508082111561558057600080fd5b5061558d88828901614dbc565b9150509295509295909350565b600080604083850312156155ad57600080fd5b50508035926020909101359150565b60008060008060008060c087890312156155d557600080fd5b8635955060208088013595506040880135945060608801356155f681615db0565b9350608088013567ffffffffffffffff8082111561561357600080fd5b818a0191508a601f83011261562757600080fd5b81358181111561563957615639615d81565b61564b84601f19601f84011601615ae7565b91508082528b8482850101111561566157600080fd5b808484018584013760008482840101525080945050505061568460a08801614e86565b90509295509295509295565b600080600080608085870312156156a657600080fd5b5050823594602084013594506040840135936060013592509050565b6000815180845260005b818110156156e8576020818501810151868301820152016156cc565b818111156156fa576000602083870101525b50601f01601f19169290920160200192915050565b60006001600160a01b03808816835286602084015260806040840152846080840152848660a0850137600060a0868501015260a0601f19601f87011684010191508084166060840152509695505050505050565b6001600160a01b038416815260606020820152600061578560608301856156c2565b90508215156040830152949350505050565b6101008101615801828680511515825261ffff602082015116602083015265ffffffffffff604082015116604083015260608101516001600160a01b038082166060850152806080840151166080850152505066ffffffffffffff60a08201511660a08301525050565b8360c08301526001600160a01b03831660e0830152949350505050565b83815260606020820152600061583760608301856156c2565b90506001600160a01b0383166040830152949350505050565b60006101408201905086825285356020830152602086013560408301526040860135606083015260608601356080830152608086013560a083015260a086013561589981615db0565b6001600160a01b031660c083015260e082019490945261010081019290925215156101209091015292915050565b6000606082018583526020858185015260606040850152818551808452608086019150828701935060005b818110156152bb5761596083865180511515825261ffff602082015116602083015265ffffffffffff604082015116604083015260608101516001600160a01b038082166060850152806080840151166080850152505066ffffffffffffff60a08201511660a08301525050565b9383019360c092909201916001016158f2565b600060608201858352602085818501526060604085015281855180845260809350838601915082870160005b828110156151c6576159ea84835180511515825261ffff602082015116602083015265ffffffffffff60408201511660408301526001600160a01b0360608201511660608301525050565b928501929084019060010161599f565b848152836020820152608060408201526000615a1960808301856156c2565b90506001600160a01b038316606083015295945050505050565b66ffffffffffffff851681526001600160a01b0384166020820152608060408201526000615a6460808301856156c2565b9050821515606083015295945050505050565b60405160c0810167ffffffffffffffff81118282101715615a9a57615a9a615d81565b60405290565b6040516080810167ffffffffffffffff81118282101715615a9a57615a9a615d81565b604051610200810167ffffffffffffffff81118282101715615a9a57615a9a615d81565b604051601f8201601f1916810167ffffffffffffffff81118282101715615b1057615b10615d81565b604052919050565b600067ffffffffffffffff821115615b3257615b32615d81565b5060051b60200190565b6000808212827f7fffffffffffffffffffffffffffffffffffffffffffffffffffffffffffffff03841381151615615b7657615b76615cc5565b827f8000000000000000000000000000000000000000000000000000000000000000038412811615615baa57615baa615cc5565b50500190565b60008219821115615bc357615bc3615cc5565b500190565b6000808312837f800000000000000000000000000000000000000000000000000000000000000001831281151615615c0257615c02615cc5565b837f7fffffffffffffffffffffffffffffffffffffffffffffffffffffffffffffff018313811615615c3657615c36615cc5565b50500390565b600082821015615c4e57615c4e615cc5565b500390565b60007fffffffffffffffffffffffffffffffffffffffffffffffffffffffffffffffff821415615c8557615c85615cc5565b5060010190565b60007f8000000000000000000000000000000000000000000000000000000000000000821415615cbe57615cbe615cc5565b5060000390565b7f4e487b7100000000000000000000000000000000000000000000000000000000600052601160045260246000fd5b7f4e487b7100000000000000000000000000000000000000000000000000000000600052601260045260246000fd5b7f4e487b7100000000000000000000000000000000000000000000000000000000600052602160045260246000fd5b7f4e487b7100000000000000000000000000000000000000000000000000000000600052603260045260246000fd5b7f4e487b7100000000000000000000000000000000000000000000000000000000600052604160045260246000fd5b6001600160a01b0381168114615dc557600080fd5b50565b8015158114615dc557600080fd5b61ffff81168114615dc557600080fd5b65ffffffffffff81168114615dc557600080fd5b66ffffffffffffff81168114615dc557600080fdfea2646970667358221220cac858132a22a8c86a2c64d1d7c7f6c8b65d770be0b4ada7138b71934000d01164736f6c63430008060033",
  "devdoc": {
    "details": " A project can transfer its funds, along with the power to reconfigure and mint/burn their Tickets, from this contract to another allowed terminal contract at any time.",
    "kind": "dev",
    "methods": {
      "addToBalance(uint256)": {
        "params": {
          "_projectId": "The ID of the project to which the funds received belong."
        }
      },
      "allowMigration(address)": {
        "details": "Only governance can add a contract to the migration allow list.",
        "params": {
          "_contract": "The contract to allow."
        }
      },
      "appointGovernance(address)": {
        "details": "Only the currency governance can appoint a new governance.This address will have to accept the responsibility in a subsequent transaction.",
        "params": {
          "_pendingGovernance": "The governance to transition power to. "
        }
      },
      "canPrintPreminedTickets(uint256)": {
        "params": {
          "_projectId": "The ID of the project to get the status of."
        },
        "returns": {
          "_0": "Boolean flag."
        }
      },
      "claimableOverflowOf(address,uint256,uint256)": {
        "details": "The _account must have at least _count tickets for the specified project.If there is a funding cycle reconfiguration ballot open for the project, the project's current bonding curve is bypassed.",
        "params": {
          "_account": "The address to get an amount for.",
          "_count": "The number of Tickets that would be redeemed to get the resulting amount.",
          "_projectId": "The ID of the project to get a claimable amount for."
        },
        "returns": {
          "_0": "amount The amount of tokens that can be claimed."
        }
      },
      "configure(uint256,(uint256,uint256,uint256,uint256,uint256,address),(uint256,uint256,uint256),(bool,uint16,uint48,address,address,uint56)[],(bool,uint16,uint48,address)[])": {
        "details": "Only a project's owner or a designated operator can configure its funding cycles._properties.target The amount that the project wants to receive in this funding stage. Sent as a wad._properties.currency The currency of the `target`. Send 0 for ETH or 1 for USD._properties.duration The duration of the funding stage for which the `target` amount is needed. Measured in days. Send 0 for a boundless cycle reconfigurable at any time._properties.cycleLimit The number of cycles that this configuration should last for before going back to the last permanent. This has no effect for a project's first funding cycle._properties.discountRate A number from 0-200 indicating how valuable a contribution to this funding stage is compared to the project's previous funding stage. If it's 200, each funding stage will have equal weight. If the number is 180, a contribution to the next funding stage will only give you 90% of tickets given to a contribution of the same amount during the current funding stage. If the number is 0, an non-recurring funding stage will get made._properties.ballot The new ballot that will be used to approve subsequent reconfigurations._metadata.reservedRate A number from 0-200 indicating the percentage of each contribution's tickets that will be reserved for the project owner._metadata.bondingCurveRate The rate from 0-200 at which a project's Tickets can be redeemed for surplus. The bonding curve formula is https://www.desmos.com/calculator/sp9ru6zbpk where x is _count, o is _currentOverflow, s is _totalSupply, and r is _bondingCurveRate._metadata.reconfigurationBondingCurveRate The bonding curve rate to apply when there is an active ballot.",
        "params": {
          "_metadata": "A struct specifying the TerminalV1 specific params _bondingCurveRate, and _reservedRate.",
          "_projectId": "The ID of the project being reconfigured. ",
          "_properties": "The funding cycle configuration."
        },
        "returns": {
          "_0": "The ID of the funding cycle that was successfully configured."
        }
      },
      "constructor": {
        "params": {
          "_fundingCycles": "A funding cycle configuration store.",
          "_modStore": "A storage for a project's mods.",
          "_operatorStore": "A contract storing operator assignments.",
          "_prices": "A price feed contract to use.",
          "_projects": "A Projects contract which mints ERC-721's that represent project ownership and transfers.",
          "_terminalDirectory": "A directory of a project's current Juicebox terminal to receive payments in.",
          "_ticketBooth": "A contract that manages Ticket printing and redeeming."
        }
      },
      "currentOverflowOf(uint256)": {
        "params": {
          "_projectId": "The ID of the project to get overflow for."
        },
        "returns": {
          "overflow": "The current overflow of funds for the project."
        }
      },
      "deploy(address,bytes32,string,(uint256,uint256,uint256,uint256,uint256,address),(uint256,uint256,uint256),(bool,uint16,uint48,address,address,uint56)[],(bool,uint16,uint48,address)[])": {
        "details": "Each operation withing this transaction can be done in sequence separately.Anyone can deploy a project on an owner's behalf._properties.target The amount that the project wants to receive in this funding cycle. Sent as a wad._properties.currency The currency of the `target`. Send 0 for ETH or 1 for USD._properties.duration The duration of the funding stage for which the `target` amount is needed. Measured in days. Send 0 for a boundless cycle reconfigurable at any time._properties.cycleLimit The number of cycles that this configuration should last for before going back to the last permanent. This has no effect for a project's first funding cycle._properties.discountRate A number from 0-200 indicating how valuable a contribution to this funding stage is compared to the project's previous funding stage. If it's 200, each funding stage will have equal weight. If the number is 180, a contribution to the next funding stage will only give you 90% of tickets given to a contribution of the same amount during the current funding stage. If the number is 0, an non-recurring funding stage will get made._properties.ballot The new ballot that will be used to approve subsequent reconfigurations._metadata.reservedRate A number from 0-200 indicating the percentage of each contribution's tickets that will be reserved for the project owner._metadata.bondingCurveRate The rate from 0-200 at which a project's Tickets can be redeemed for surplus. The bonding curve formula is https://www.desmos.com/calculator/sp9ru6zbpk where x is _count, o is _currentOverflow, s is _totalSupply, and r is _bondingCurveRate._metadata.reconfigurationBondingCurveRate The bonding curve rate to apply when there is an active ballot.",
        "params": {
          "_handle": "The project's unique handle.",
          "_metadata": "A struct specifying the TerminalV1 specific params _bondingCurveRate, and _reservedRate.",
          "_owner": "The address that will own the project.",
          "_payoutMods": "Any payout mods to set.",
          "_properties": "The funding cycle configuration.",
          "_ticketMods": "Any ticket mods to set.",
          "_uri": "A link to information about the project and this funding cycle."
        }
      },
      "migrate(uint256,address)": {
        "details": "Only a project's owner or a designated operator can migrate it.",
        "params": {
          "_projectId": "The ID of the project being migrated.",
          "_to": "The contract that will gain the project's funds."
        }
      },
      "pay(uint256,address,string,bool)": {
        "details": " Print's the project's tickets proportional to the amount of the contribution. The msg.value is the amount of the contribution in wei.",
        "params": {
          "_beneficiary": "The address to print Tickets for. ",
          "_memo": "A memo that will be included in the published event.",
          "_preferUnstakedTickets": "Whether ERC20's should be unstaked automatically if they have been issued.",
          "_projectId": "The ID of the project being contribute to."
        },
        "returns": {
          "_0": "The ID of the funding cycle that the payment was made during."
        }
      },
      "printPreminedTickets(uint256,uint256,uint256,address,string,bool)": {
        "details": " This can only be done if the project hasn't yet received a payment after configuring a funding cycle.Only a project's owner or a designated operator can print premined tickets.",
        "params": {
          "_amount": "The amount to base the ticket premine off of.",
          "_beneficiary": "The address to send the printed tickets to.",
          "_currency": "The currency of the amount to base the ticket premine off of. ",
          "_memo": "A memo to leave with the printing.",
          "_preferUnstakedTickets": "If there is a preference to unstake the printed tickets.",
          "_projectId": "The ID of the project to premine tickets for."
        }
      },
      "printReservedTickets(uint256)": {
        "params": {
          "_projectId": "The ID of the project to which the reserved tickets belong."
        },
        "returns": {
          "amount": "The amount of tickets that are being printed."
        }
      },
      "redeem(address,uint256,uint256,uint256,address,bool)": {
        "details": "Only a ticket's holder or a designated operator can redeem it.",
        "params": {
          "_account": "The account to redeem tickets for.",
          "_beneficiary": "The address to send the ETH to.",
          "_count": "The number of Tickets to redeem.",
          "_minReturnedWei": "The minimum amount of Wei expected in return.",
          "_preferUnstaked": "If the preference is to redeem tickets that have been converted to ERC-20s.",
          "_projectId": "The ID of the project to which the Tickets being redeemed belong."
        },
        "returns": {
          "amount": "The amount of ETH that the tickets were redeemed for."
        }
      },
      "reservedTicketBalanceOf(uint256,uint256)": {
        "params": {
          "_projectId": "The ID of the project to get overflow for.",
          "_reservedRate": "The reserved rate to use to make the calculation."
        },
        "returns": {
          "_0": "amount overflow The current overflow of funds for the project."
        }
      },
      "setFee(uint256)": {
        "details": "Only funding cycle reconfigurations after the new fee is set will use the new fee. All future funding cycles based on configurations made in the past will use the fee that was set at the time of the configuration.Only governance can set a new fee.",
        "params": {
          "_fee": "The new fee percent. Out of 200."
        }
      },
      "tap(uint256,uint256,uint256,uint256)": {
        "details": "Anyone can tap funds on a project's behalf.",
        "params": {
          "_amount": "The amount being tapped, in the funding cycle's currency.",
          "_currency": "The expected currency being tapped.",
          "_minReturnedWei": "The minimum number of wei that the amount should be valued at.",
          "_projectId": "The ID of the project to which the funding cycle being tapped belongs."
        },
        "returns": {
          "_0": "The ID of the funding cycle that was tapped."
        }
      }
    },
    "version": 1
  },
  "userdoc": {
    "errors": {
      "PRBMath__MulDivFixedPointOverflow(uint256)": [
        {
          "notice": "Emitted when the result overflows uint256."
        }
      ],
      "PRBMath__MulDivOverflow(uint256,uint256)": [
        {
          "notice": "Emitted when the result overflows uint256."
        }
      ]
    },
    "kind": "user",
    "methods": {
      "acceptGovernance()": {
        "notice": " Allows contract to accept its appointment as the new governance."
      },
      "addToBalance(uint256)": {
        "notice": " Receives and allocates funds belonging to the specified project."
      },
      "allowMigration(address)": {
        "notice": " Adds to the contract addresses that projects can migrate their Tickets to."
      },
      "appointGovernance(address)": {
        "notice": " Allows governance to transfer its privileges to another contract."
      },
      "balanceOf(uint256)": {
        "notice": "The amount of ETH that each project is responsible for."
      },
      "canPrintPreminedTickets(uint256)": {
        "notice": "Whether or not a project can still print premined tickets."
      },
      "claimableOverflowOf(address,uint256,uint256)": {
        "notice": " The amount of tokens that can be claimed by the given address."
      },
      "configure(uint256,(uint256,uint256,uint256,uint256,uint256,address),(uint256,uint256,uint256),(bool,uint16,uint48,address,address,uint56)[],(bool,uint16,uint48,address)[])": {
        "notice": " Configures the properties of the current funding cycle if the project hasn't distributed tickets yet, or sets the properties of the proposed funding cycle that will take effect once the current one expires if it is approved by the current funding cycle's ballot."
      },
      "currentOverflowOf(uint256)": {
        "notice": " Gets the current overflowed amount for a specified project."
      },
      "deploy(address,bytes32,string,(uint256,uint256,uint256,uint256,uint256,address),(uint256,uint256,uint256),(bool,uint16,uint48,address,address,uint56)[],(bool,uint16,uint48,address)[])": {
        "notice": " Deploys a project. This will mint an ERC-721 into the `_owner`'s account, configure a first funding cycle, and set up any mods."
      },
      "fee()": {
        "notice": "The percent fee the Juicebox project takes from tapped amounts. Out of 200."
      },
      "fundingCycles()": {
        "notice": "The contract storing all funding cycle configurations."
      },
      "governance()": {
        "notice": "The governance of the contract who makes fees and can allow new TerminalV1 contracts to be migrated to by project owners."
      },
      "migrate(uint256,address)": {
        "notice": " Allows a project owner to migrate its funds and operations to a new contract."
      },
      "modStore()": {
        "notice": "The contract that stores mods for each project."
      },
      "operatorStore()": {
        "notice": "A contract storing operator assignments."
      },
      "pay(uint256,address,string,bool)": {
        "notice": " Contribute ETH to a project."
      },
      "pendingGovernance()": {
        "notice": "The governance of the contract who makes fees and can allow new TerminalV1 contracts to be migrated to by project owners."
      },
      "prices()": {
        "notice": "The prices feeds."
      },
      "printPreminedTickets(uint256,uint256,uint256,address,string,bool)": {
        "notice": " Allows a project to print tickets for a specified beneficiary before payments have been received."
      },
      "printReservedTickets(uint256)": {
        "notice": " Prints all reserved tickets for a project."
      },
      "projects()": {
        "notice": "The Projects contract which mints ERC-721's that represent project ownership and transfers."
      },
      "redeem(address,uint256,uint256,uint256,address,bool)": {
        "notice": " Addresses can redeem their Tickets to claim the project's overflowed ETH."
      },
      "reservedTicketBalanceOf(uint256,uint256)": {
        "notice": " Gets the amount of reserved tickets that a project has."
      },
      "setFee(uint256)": {
        "notice": " Allow the admin to change the fee. "
      },
      "tap(uint256,uint256,uint256,uint256)": {
        "notice": " Tap into funds that have been contributed to a project's current funding cycle."
      },
      "terminalDirectory()": {
        "notice": "The directory of terminals."
      },
      "ticketBooth()": {
        "notice": "The contract that manages Ticket printing and redeeming."
      }
    },
    "notice": "             This contract manages the Juicebox ecosystem, serves as a payment terminal, and custodies all funds.",
    "version": 1
  },
  "storageLayout": {
    "storage": [
      {
        "astId": 160,
        "contract": "contracts/TerminalV1.sol:TerminalV1",
        "label": "_status",
        "offset": 0,
        "slot": "0",
        "type": "t_uint256"
      },
      {
        "astId": 9081,
        "contract": "contracts/TerminalV1.sol:TerminalV1",
        "label": "_processedTicketTrackerOf",
        "offset": 0,
        "slot": "1",
        "type": "t_mapping(t_uint256,t_int256)"
      },
      {
        "astId": 9085,
        "contract": "contracts/TerminalV1.sol:TerminalV1",
        "label": "_preconfigureTicketCountOf",
        "offset": 0,
        "slot": "2",
        "type": "t_mapping(t_uint256,t_uint256)"
      },
      {
        "astId": 9121,
        "contract": "contracts/TerminalV1.sol:TerminalV1",
        "label": "balanceOf",
        "offset": 0,
        "slot": "3",
        "type": "t_mapping(t_uint256,t_uint256)"
      },
      {
        "astId": 9126,
        "contract": "contracts/TerminalV1.sol:TerminalV1",
        "label": "fee",
        "offset": 0,
        "slot": "4",
        "type": "t_uint256"
      },
      {
        "astId": 9130,
        "contract": "contracts/TerminalV1.sol:TerminalV1",
        "label": "governance",
        "offset": 0,
        "slot": "5",
        "type": "t_address_payable"
      },
      {
        "astId": 9134,
        "contract": "contracts/TerminalV1.sol:TerminalV1",
        "label": "pendingGovernance",
        "offset": 0,
        "slot": "6",
        "type": "t_address_payable"
      },
      {
        "astId": 9140,
        "contract": "contracts/TerminalV1.sol:TerminalV1",
        "label": "migrationIsAllowed",
        "offset": 0,
        "slot": "7",
        "type": "t_mapping(t_contract(ITerminal)17036,t_bool)"
      }
    ],
    "types": {
      "t_address_payable": {
        "encoding": "inplace",
        "label": "address payable",
        "numberOfBytes": "20"
      },
      "t_bool": {
        "encoding": "inplace",
        "label": "bool",
        "numberOfBytes": "1"
      },
      "t_contract(ITerminal)17036": {
        "encoding": "inplace",
        "label": "contract ITerminal",
        "numberOfBytes": "20"
      },
      "t_int256": {
        "encoding": "inplace",
        "label": "int256",
        "numberOfBytes": "32"
      },
      "t_mapping(t_contract(ITerminal)17036,t_bool)": {
        "encoding": "mapping",
        "key": "t_contract(ITerminal)17036",
        "label": "mapping(contract ITerminal => bool)",
        "numberOfBytes": "32",
        "value": "t_bool"
      },
      "t_mapping(t_uint256,t_int256)": {
        "encoding": "mapping",
        "key": "t_uint256",
        "label": "mapping(uint256 => int256)",
        "numberOfBytes": "32",
        "value": "t_int256"
      },
      "t_mapping(t_uint256,t_uint256)": {
        "encoding": "mapping",
        "key": "t_uint256",
        "label": "mapping(uint256 => uint256)",
        "numberOfBytes": "32",
        "value": "t_uint256"
      },
      "t_uint256": {
        "encoding": "inplace",
        "label": "uint256",
        "numberOfBytes": "32"
      }
    }
  }
}