{
  "address": "0x67091E60FD91563D82316C44822994E8d6c27419",
  "abi": [
    {
      "inputs": [
        {
          "internalType": "contract IProjects",
          "name": "_projects",
          "type": "address"
        },
        {
          "internalType": "contract IOperatorStore",
          "name": "_operatorStore",
          "type": "address"
        },
        {
          "internalType": "contract ITerminalDirectory",
          "name": "_terminalDirectory",
          "type": "address"
        }
      ],
      "stateMutability": "nonpayable",
      "type": "constructor"
    },
    {
      "anonymous": false,
      "inputs": [
        {
          "indexed": true,
          "internalType": "uint256",
          "name": "projectId",
          "type": "uint256"
        },
        {
          "indexed": false,
          "internalType": "string",
          "name": "name",
          "type": "string"
        },
        {
          "indexed": false,
          "internalType": "string",
          "name": "symbol",
          "type": "string"
        },
        {
          "indexed": false,
          "internalType": "address",
          "name": "caller",
          "type": "address"
        }
      ],
      "name": "Issue",
      "type": "event"
    },
    {
      "anonymous": false,
      "inputs": [
        {
          "indexed": true,
          "internalType": "address",
          "name": "holder",
          "type": "address"
        },
        {
          "indexed": true,
          "internalType": "uint256",
          "name": "projectId",
          "type": "uint256"
        },
        {
          "indexed": false,
          "internalType": "uint256",
          "name": "amount",
          "type": "uint256"
        },
        {
          "indexed": false,
          "internalType": "address",
          "name": "caller",
          "type": "address"
        }
      ],
      "name": "Lock",
      "type": "event"
    },
    {
      "anonymous": false,
      "inputs": [
        {
          "indexed": true,
          "internalType": "address",
          "name": "holder",
          "type": "address"
        },
        {
          "indexed": true,
          "internalType": "uint256",
          "name": "projectId",
          "type": "uint256"
        },
        {
          "indexed": false,
          "internalType": "uint256",
          "name": "amount",
          "type": "uint256"
        },
        {
          "indexed": false,
          "internalType": "bool",
          "name": "convertedTickets",
          "type": "bool"
        },
        {
          "indexed": false,
          "internalType": "bool",
          "name": "preferUnstakedTickets",
          "type": "bool"
        },
        {
          "indexed": false,
          "internalType": "address",
          "name": "controller",
          "type": "address"
        }
      ],
      "name": "Print",
      "type": "event"
    },
    {
      "anonymous": false,
      "inputs": [
        {
          "indexed": true,
          "internalType": "address",
          "name": "holder",
          "type": "address"
        },
        {
          "indexed": true,
          "internalType": "uint256",
          "name": "projectId",
          "type": "uint256"
        },
        {
          "indexed": false,
          "internalType": "uint256",
          "name": "amount",
          "type": "uint256"
        },
        {
          "indexed": false,
          "internalType": "uint256",
          "name": "stakedTickets",
          "type": "uint256"
        },
        {
          "indexed": false,
          "internalType": "bool",
          "name": "preferUnstaked",
          "type": "bool"
        },
        {
          "indexed": false,
          "internalType": "address",
          "name": "controller",
          "type": "address"
        }
      ],
      "name": "Redeem",
      "type": "event"
    },
    {
      "anonymous": false,
      "inputs": [
        {
          "indexed": true,
          "internalType": "address",
          "name": "holder",
          "type": "address"
        },
        {
          "indexed": true,
          "internalType": "uint256",
          "name": "projectId",
          "type": "uint256"
        },
        {
          "indexed": false,
          "internalType": "uint256",
          "name": "amount",
          "type": "uint256"
        },
        {
          "indexed": false,
          "internalType": "address",
          "name": "caller",
          "type": "address"
        }
      ],
      "name": "Stake",
      "type": "event"
    },
    {
      "anonymous": false,
      "inputs": [
        {
          "indexed": true,
          "internalType": "address",
          "name": "holder",
          "type": "address"
        },
        {
          "indexed": true,
          "internalType": "uint256",
          "name": "projectId",
          "type": "uint256"
        },
        {
          "indexed": true,
          "internalType": "address",
          "name": "recipient",
          "type": "address"
        },
        {
          "indexed": false,
          "internalType": "uint256",
          "name": "amount",
          "type": "uint256"
        },
        {
          "indexed": false,
          "internalType": "address",
          "name": "caller",
          "type": "address"
        }
      ],
      "name": "Transfer",
      "type": "event"
    },
    {
      "anonymous": false,
      "inputs": [
        {
          "indexed": true,
          "internalType": "address",
          "name": "holder",
          "type": "address"
        },
        {
          "indexed": true,
          "internalType": "uint256",
          "name": "projectId",
          "type": "uint256"
        },
        {
          "indexed": false,
          "internalType": "uint256",
          "name": "amount",
          "type": "uint256"
        },
        {
          "indexed": false,
          "internalType": "address",
          "name": "caller",
          "type": "address"
        }
      ],
      "name": "Unlock",
      "type": "event"
    },
    {
      "anonymous": false,
      "inputs": [
        {
          "indexed": true,
          "internalType": "address",
          "name": "holder",
          "type": "address"
        },
        {
          "indexed": true,
          "internalType": "uint256",
          "name": "projectId",
          "type": "uint256"
        },
        {
          "indexed": false,
          "internalType": "uint256",
          "name": "amount",
          "type": "uint256"
        },
        {
          "indexed": false,
          "internalType": "address",
          "name": "caller",
          "type": "address"
        }
      ],
      "name": "Unstake",
      "type": "event"
    },
    {
      "inputs": [
        {
          "internalType": "address",
          "name": "_holder",
          "type": "address"
        },
        {
          "internalType": "uint256",
          "name": "_projectId",
          "type": "uint256"
        }
      ],
      "name": "balanceOf",
      "outputs": [
        {
          "internalType": "uint256",
          "name": "balance",
          "type": "uint256"
        }
      ],
      "stateMutability": "view",
      "type": "function"
    },
    {
      "inputs": [
        {
          "internalType": "uint256",
          "name": "_projectId",
          "type": "uint256"
        },
        {
          "internalType": "string",
          "name": "_name",
          "type": "string"
        },
        {
          "internalType": "string",
          "name": "_symbol",
          "type": "string"
        }
      ],
      "name": "issue",
      "outputs": [],
      "stateMutability": "nonpayable",
      "type": "function"
    },
    {
      "inputs": [
        {
          "internalType": "address",
          "name": "_holder",
          "type": "address"
        },
        {
          "internalType": "uint256",
          "name": "_projectId",
          "type": "uint256"
        },
        {
          "internalType": "uint256",
          "name": "_amount",
          "type": "uint256"
        }
      ],
      "name": "lock",
      "outputs": [],
      "stateMutability": "nonpayable",
      "type": "function"
    },
    {
      "inputs": [
        {
          "internalType": "address",
          "name": "",
          "type": "address"
        },
        {
          "internalType": "address",
          "name": "",
          "type": "address"
        },
        {
          "internalType": "uint256",
          "name": "",
          "type": "uint256"
        }
      ],
      "name": "lockedBalanceBy",
      "outputs": [
        {
          "internalType": "uint256",
          "name": "",
          "type": "uint256"
        }
      ],
      "stateMutability": "view",
      "type": "function"
    },
    {
      "inputs": [
        {
          "internalType": "address",
          "name": "",
          "type": "address"
        },
        {
          "internalType": "uint256",
          "name": "",
          "type": "uint256"
        }
      ],
      "name": "lockedBalanceOf",
      "outputs": [
        {
          "internalType": "uint256",
          "name": "",
          "type": "uint256"
        }
      ],
      "stateMutability": "view",
      "type": "function"
    },
    {
      "inputs": [],
      "name": "operatorStore",
      "outputs": [
        {
          "internalType": "contract IOperatorStore",
          "name": "",
          "type": "address"
        }
      ],
      "stateMutability": "view",
      "type": "function"
    },
    {
      "inputs": [
        {
          "internalType": "address",
          "name": "_holder",
          "type": "address"
        },
        {
          "internalType": "uint256",
          "name": "_projectId",
          "type": "uint256"
        },
        {
          "internalType": "uint256",
          "name": "_amount",
          "type": "uint256"
        },
        {
          "internalType": "bool",
          "name": "_preferUnstakedTickets",
          "type": "bool"
        }
      ],
      "name": "print",
      "outputs": [],
      "stateMutability": "nonpayable",
      "type": "function"
    },
    {
      "inputs": [],
      "name": "projects",
      "outputs": [
        {
          "internalType": "contract IProjects",
          "name": "",
          "type": "address"
        }
      ],
      "stateMutability": "view",
      "type": "function"
    },
    {
      "inputs": [
        {
          "internalType": "address",
          "name": "_holder",
          "type": "address"
        },
        {
          "internalType": "uint256",
          "name": "_projectId",
          "type": "uint256"
        },
        {
          "internalType": "uint256",
          "name": "_amount",
          "type": "uint256"
        },
        {
          "internalType": "bool",
          "name": "_preferUnstaked",
          "type": "bool"
        }
      ],
      "name": "redeem",
      "outputs": [],
      "stateMutability": "nonpayable",
      "type": "function"
    },
    {
      "inputs": [
        {
          "internalType": "address",
          "name": "_holder",
          "type": "address"
        },
        {
          "internalType": "uint256",
          "name": "_projectId",
          "type": "uint256"
        },
        {
          "internalType": "uint256",
          "name": "_amount",
          "type": "uint256"
        }
      ],
      "name": "stake",
      "outputs": [],
      "stateMutability": "nonpayable",
      "type": "function"
    },
    {
      "inputs": [
        {
          "internalType": "address",
          "name": "",
          "type": "address"
        },
        {
          "internalType": "uint256",
          "name": "",
          "type": "uint256"
        }
      ],
      "name": "stakedBalanceOf",
      "outputs": [
        {
          "internalType": "uint256",
          "name": "",
          "type": "uint256"
        }
      ],
      "stateMutability": "view",
      "type": "function"
    },
    {
      "inputs": [
        {
          "internalType": "uint256",
          "name": "",
          "type": "uint256"
        }
      ],
      "name": "stakedTotalSupplyOf",
      "outputs": [
        {
          "internalType": "uint256",
          "name": "",
          "type": "uint256"
        }
      ],
      "stateMutability": "view",
      "type": "function"
    },
    {
      "inputs": [],
      "name": "terminalDirectory",
      "outputs": [
        {
          "internalType": "contract ITerminalDirectory",
          "name": "",
          "type": "address"
        }
      ],
      "stateMutability": "view",
      "type": "function"
    },
    {
      "inputs": [
        {
          "internalType": "uint256",
          "name": "",
          "type": "uint256"
        }
      ],
      "name": "ticketsOf",
      "outputs": [
        {
          "internalType": "contract ITickets",
          "name": "",
          "type": "address"
        }
      ],
      "stateMutability": "view",
      "type": "function"
    },
    {
      "inputs": [
        {
          "internalType": "uint256",
          "name": "_projectId",
          "type": "uint256"
        }
      ],
      "name": "totalSupplyOf",
      "outputs": [
        {
          "internalType": "uint256",
          "name": "supply",
          "type": "uint256"
        }
      ],
      "stateMutability": "view",
      "type": "function"
    },
    {
      "inputs": [
        {
          "internalType": "address",
          "name": "_holder",
          "type": "address"
        },
        {
          "internalType": "uint256",
          "name": "_projectId",
          "type": "uint256"
        },
        {
          "internalType": "uint256",
          "name": "_amount",
          "type": "uint256"
        },
        {
          "internalType": "address",
          "name": "_recipient",
          "type": "address"
        }
      ],
      "name": "transfer",
      "outputs": [],
      "stateMutability": "nonpayable",
      "type": "function"
    },
    {
      "inputs": [
        {
          "internalType": "address",
          "name": "_holder",
          "type": "address"
        },
        {
          "internalType": "uint256",
          "name": "_projectId",
          "type": "uint256"
        },
        {
          "internalType": "uint256",
          "name": "_amount",
          "type": "uint256"
        }
      ],
      "name": "unlock",
      "outputs": [],
      "stateMutability": "nonpayable",
      "type": "function"
    },
    {
      "inputs": [
        {
          "internalType": "address",
          "name": "_holder",
          "type": "address"
        },
        {
          "internalType": "uint256",
          "name": "_projectId",
          "type": "uint256"
        },
        {
          "internalType": "uint256",
          "name": "_amount",
          "type": "uint256"
        }
      ],
      "name": "unstake",
      "outputs": [],
      "stateMutability": "nonpayable",
      "type": "function"
    }
  ],
  "transactionHash": "0xbe348459dcfe5417c57ef8047a66e7bd174c1380704e4b94cc6bdcfd644813d8",
  "args": [
    "0x4209E149F3c9A0F1AFd87AE305968dEa1c7e658e",
    "0x6146588A8Ef03bf8dcBb0519Cc23c7187C7d5026",
    "0x4533f15d4D83a9c8050Cd4BCf4186b4853A3b525"
  ],
  "solcInputHash": "b611a48ccf636fef65065ee937e0c17d",
  "bytecode": "0x60e06040523480156200001157600080fd5b50604051620045753803806200457583398101604081905262000034916200005d565b6001600160601b0319606091821b811660805291811b821660a0529190911b1660c052620000ca565b6000806000606084860312156200007357600080fd5b83516200008081620000b1565b60208501519093506200009381620000b1565b6040850151909250620000a681620000b1565b809150509250925092565b6001600160a01b0381168114620000c757600080fd5b50565b60805160601c60a05160601c60c05160601c61441e620001576000396000818161028801526113230152600081816102f501528181610504015281816105d5015281816109d101528181610aa20152818161140b015281816117eb015281816118bc0152818161212b01526121fc01526000818161024901528181610e850152611e0c015261441e6000f3fe60806040523480156200001157600080fd5b50600436106200014e5760003560e01c80638b79543c11620000c0578063b5674c68116200008b578063b6f7fdb9116200006e578063b6f7fdb9146200035c578063e0826c891462000390578063e2ab691d14620003a757600080fd5b8063b5674c681462000317578063b656463b146200032e57600080fd5b80638b79543c14620002825780638ef4c80714620002aa578063a2bc66be14620002d8578063ad007d6314620002ef57600080fd5b80635030724e116200011e5780636806ec5911620001015780636806ec59146200022c5780636abcf8e3146200024357806375b0d9cd146200026b57600080fd5b80635030724e14620001f257806365e0d731146200021557600080fd5b8062fdd58e14620001535780630c51b88f146200017d57806333681fb11462000196578063465909fc14620001ad575b600080fd5b6200016a6200016436600462002590565b620003be565b6040519081526020015b60405180910390f35b620001946200018e366004620025bf565b620004a1565b005b62000194620001a7366004620025f7565b6200096e565b620001d9620001be366004620026aa565b6000602081905290815260409020546001600160a01b031681565b6040516001600160a01b03909116815260200162000174565b6200016a62000203366004620026aa565b60026020526000908152604090205481565b620001946200022636600462002646565b62000e4a565b620001946200023d366004620026de565b620012f4565b620001d97f000000000000000000000000000000000000000000000000000000000000000081565b6200016a6200027c366004620026aa565b620016d4565b620001d97f000000000000000000000000000000000000000000000000000000000000000081565b6200016a620002bb36600462002590565b600360209081526000928352604080842090915290825290205481565b62000194620002e9366004620025bf565b62001788565b620001d97f000000000000000000000000000000000000000000000000000000000000000081565b6200019462000328366004620025bf565b62001bea565b6200016a6200033f36600462002590565b600160209081526000928352604080842090915290825290205481565b6200016a6200036d3660046200254a565b600460209081526000938452604080852082529284528284209052825290205481565b62000194620003a136600462002646565b62001dd1565b62000194620003b8366004620025bf565b620020c8565b6001600160a01b038083166000908152600160209081526040808320858452825280832054918390529091205490911680156200049a576040517f70a082310000000000000000000000000000000000000000000000000000000081526001600160a01b0385811660048301528216906370a082319060240160206040518083038186803b1580156200045057600080fd5b505afa15801562000465573d6000803e3d6000fd5b505050506040513d601f19601f820116820180604052508101906200048b9190620026c4565b62000497908362002825565b91505b5092915050565b8282600a336001600160a01b03841614806200058257506040517fc161c93f0000000000000000000000000000000000000000000000000000000081523360048201526001600160a01b03848116602483015260448201849052606482018390527f0000000000000000000000000000000000000000000000000000000000000000169063c161c93f9060840160206040518083038186803b1580156200054757600080fd5b505afa1580156200055c573d6000803e3d6000fd5b505050506040513d601f19601f820116820180604052508101906200058291906200268a565b806200065357506040517fc161c93f0000000000000000000000000000000000000000000000000000000081523360048201526001600160a01b03848116602483015260006044830152606482018390527f0000000000000000000000000000000000000000000000000000000000000000169063c161c93f9060840160206040518083038186803b1580156200061857600080fd5b505afa1580156200062d573d6000803e3d6000fd5b505050506040513d601f19601f820116820180604052508101906200065391906200268a565b620006a55760405162461bcd60e51b815260206004820152601860248201527f4f706572617461626c653a20554e415554484f52495a4544000000000000000060448201526064015b60405180910390fd5b6000858152602081905260409020546001600160a01b0316806200070c5760405162461bcd60e51b815260206004820152601d60248201527f5469636b6574426f6f74683a3a7374616b653a204e4f545f464f554e4400000060448201526064016200069c565b6040517f70a082310000000000000000000000000000000000000000000000000000000081526001600160a01b038881166004830152600091908316906370a082319060240160206040518083038186803b1580156200076b57600080fd5b505afa15801562000780573d6000803e3d6000fd5b505050506040513d601f19601f82011682018060405250810190620007a69190620026c4565b905085811015620008205760405162461bcd60e51b815260206004820152602660248201527f5469636b6574426f6f74683a3a7374616b653a20494e53554646494349454e5460448201527f5f46554e4453000000000000000000000000000000000000000000000000000060648201526084016200069c565b6040517f1e9a69500000000000000000000000000000000000000000000000000000000081526001600160a01b03898116600483015260248201889052831690631e9a695090604401600060405180830381600087803b1580156200088457600080fd5b505af115801562000899573d6000803e3d6000fd5b5050506001600160a01b03891660009081526001602090815260408083208b8452909152902054620008ce9150879062002825565b6001600160a01b03891660009081526001602090815260408083208b84528252808320939093556002905220546200090890879062002825565b600088815260026020908152604091829020929092558051888152339281019290925288916001600160a01b038b16917feb43904edee62537f8f003e791630611e9d7d8b7e0f0c038639ebe7c970dd63091015b60405180910390a35050505050505050565b8383600c336001600160a01b038416148062000a4f57506040517fc161c93f0000000000000000000000000000000000000000000000000000000081523360048201526001600160a01b03848116602483015260448201849052606482018390527f0000000000000000000000000000000000000000000000000000000000000000169063c161c93f9060840160206040518083038186803b15801562000a1457600080fd5b505afa15801562000a29573d6000803e3d6000fd5b505050506040513d601f19601f8201168201806040525081019062000a4f91906200268a565b8062000b2057506040517fc161c93f0000000000000000000000000000000000000000000000000000000081523360048201526001600160a01b03848116602483015260006044830152606482018390527f0000000000000000000000000000000000000000000000000000000000000000169063c161c93f9060840160206040518083038186803b15801562000ae557600080fd5b505afa15801562000afa573d6000803e3d6000fd5b505050506040513d601f19601f8201168201806040525081019062000b2091906200268a565b62000b6e5760405162461bcd60e51b815260206004820152601860248201527f4f706572617461626c653a20554e415554484f52495a4544000000000000000060448201526064016200069c565b6001600160a01b03841662000bec5760405162461bcd60e51b815260206004820152602360248201527f5469636b6574426f6f74683a3a7472616e736665723a205a45524f5f4144445260448201527f455353000000000000000000000000000000000000000000000000000000000060648201526084016200069c565b836001600160a01b0316876001600160a01b0316141562000c505760405162461bcd60e51b815260206004820152601f60248201527f5469636b6574426f6f74683a3a7472616e736665723a204944454e544954590060448201526064016200069c565b6000851162000ca25760405162461bcd60e51b815260206004820152601c60248201527f5469636b6574426f6f74683a3a7472616e736665723a204e4f5f4f500000000060448201526064016200069c565b6001600160a01b03871660008181526003602090815260408083208a8452825280832054938352600182528083208a8452909152812054909162000ce69162002840565b90508086111562000d605760405162461bcd60e51b815260206004820152602960248201527f5469636b6574426f6f74683a3a7472616e736665723a20494e5355464649434960448201527f454e545f46554e4453000000000000000000000000000000000000000000000060648201526084016200069c565b6001600160a01b03881660009081526001602090815260408083208a845290915290205462000d9190879062002840565b6001600160a01b03808a1660009081526001602081815260408084208d8552825280842095909555928916825282528281208a8252909152205462000dd890879062002825565b6001600160a01b0386811660008181526001602090815260408083208d84528252918290209490945580518a8152339481019490945290928a928c16917fae47e55abe3902569528abe4272b889079230a248aec0659a2939a90354982c6910160405180910390a45050505050505050565b6040517f4fe0eced00000000000000000000000000000000000000000000000000000000815260048101849052839033906001600160a01b037f00000000000000000000000000000000000000000000000000000000000000001690634fe0eced9060240160206040518083038186803b15801562000ec857600080fd5b505afa15801562000edd573d6000803e3d6000fd5b505050506040513d601f19601f8201168201806040525081019062000f03919062002523565b6001600160a01b03161462000f5b5760405162461bcd60e51b815260206004820152601d60248201527f5465726d696e616c5574696c6974793a20554e415554484f52495a454400000060448201526064016200069c565b600084815260208181526040808320546001600160a01b03898116808652600385528386208a8752855283862054908652600185528386208a8752909452918420549116929162000fac9162002840565b905060006001600160a01b038316156200105c576040517f70a082310000000000000000000000000000000000000000000000000000000081526001600160a01b0389811660048301528416906370a082319060240160206040518083038186803b1580156200101b57600080fd5b505afa15801562001030573d6000803e3d6000fd5b505050506040513d601f19601f82011682018060405250810190620010569190620026c4565b6200105f565b60005b905080861080156200107057508186105b806200109357508086101580156200109357506200108f818762002840565b8210155b80620010b65750818610158015620010b65750620010b2828762002840565b8110155b6200112a5760405162461bcd60e51b815260206004820152602760248201527f5469636b6574426f6f74683a3a72656465656d3a20494e53554646494349454e60448201527f545f46554e44530000000000000000000000000000000000000000000000000060648201526084016200069c565b6000816200113b575060006200117d565b85156200115c578682101562001152578162001154565b865b90506200117d565b86831015620011775762001171838862002840565b6200117a565b60005b90505b60006200118b828962002840565b9050811562001212576040517f1e9a69500000000000000000000000000000000000000000000000000000000081526001600160a01b038b8116600483015260248201849052861690631e9a695090604401600060405180830381600087803b158015620011f857600080fd5b505af11580156200120d573d6000803e3d6000fd5b505050505b801562001294576001600160a01b038a1660009081526001602090815260408083208c84529091529020546200124a90829062002840565b6001600160a01b038b1660009081526001602090815260408083208d84528252808320939093556002905220546200128490829062002840565b60008a8152600260205260409020555b60408051898152602081018690528815158183015233606082015290518a916001600160a01b038d16917f8c2b9ccc192ca181c0f26a420bbc623e6222ce29c08f6e81b68df4f076f123439181900360800190a350505050505050505050565b6040517f6352211e000000000000000000000000000000000000000000000000000000008152600481018690527f00000000000000000000000000000000000000000000000000000000000000006001600160a01b031690636352211e9060240160206040518083038186803b1580156200136e57600080fd5b505afa15801562001383573d6000803e3d6000fd5b505050506040513d601f19601f82011682018060405250810190620013a9919062002523565b856009336001600160a01b03841614806200148957506040517fc161c93f0000000000000000000000000000000000000000000000000000000081523360048201526001600160a01b03848116602483015260448201849052606482018390527f0000000000000000000000000000000000000000000000000000000000000000169063c161c93f9060840160206040518083038186803b1580156200144e57600080fd5b505afa15801562001463573d6000803e3d6000fd5b505050506040513d601f19601f820116820180604052508101906200148991906200268a565b620014d75760405162461bcd60e51b815260206004820152601860248201527f4f706572617461626c653a20554e415554484f52495a4544000000000000000060448201526064016200069c565b85620015265760405162461bcd60e51b815260206004820152601e60248201527f5469636b6574426f6f74683a3a69737375653a20454d5054595f4e414d45000060448201526064016200069c565b83620015755760405162461bcd60e51b815260206004820181905260248201527f5469636b6574426f6f74683a3a69737375653a20454d5054595f53594d424f4c60448201526064016200069c565b6000888152602081905260409020546001600160a01b031615620016025760405162461bcd60e51b815260206004820152602260248201527f5469636b6574426f6f74683a3a69737375653a20414c52454144595f4953535560448201527f454400000000000000000000000000000000000000000000000000000000000060648201526084016200069c565b868686866040516200161490620024c9565b620016239493929190620027a8565b604051809103906000f08015801562001640573d6000803e3d6000fd5b506000898152602081905260409081902080547fffffffffffffffffffffffff0000000000000000000000000000000000000000166001600160a01b0393909316929092179091555188907f05f79890a2d2c8e15c45a3a79a0ddc2c45db38d489e7f6948593f1fef566c8ec90620016c2908a908a908a908a903390620027de565b60405180910390a25050505050505050565b60008181526002602090815260408083205491839052909120546001600160a01b031680156200178257806001600160a01b03166318160ddd6040518163ffffffff1660e01b815260040160206040518083038186803b1580156200173857600080fd5b505afa1580156200174d573d6000803e3d6000fd5b505050506040513d601f19601f82011682018060405250810190620017739190620026c4565b6200177f908362002825565b91505b50919050565b8282600b336001600160a01b03841614806200186957506040517fc161c93f0000000000000000000000000000000000000000000000000000000081523360048201526001600160a01b03848116602483015260448201849052606482018390527f0000000000000000000000000000000000000000000000000000000000000000169063c161c93f9060840160206040518083038186803b1580156200182e57600080fd5b505afa15801562001843573d6000803e3d6000fd5b505050506040513d601f19601f820116820180604052508101906200186991906200268a565b806200193a57506040517fc161c93f0000000000000000000000000000000000000000000000000000000081523360048201526001600160a01b03848116602483015260006044830152606482018390527f0000000000000000000000000000000000000000000000000000000000000000169063c161c93f9060840160206040518083038186803b158015620018ff57600080fd5b505afa15801562001914573d6000803e3d6000fd5b505050506040513d601f19601f820116820180604052508101906200193a91906200268a565b620019885760405162461bcd60e51b815260206004820152601860248201527f4f706572617461626c653a20554e415554484f52495a4544000000000000000060448201526064016200069c565b6000858152602081905260409020546001600160a01b031680620019ef5760405162461bcd60e51b815260206004820152601f60248201527f5469636b6574426f6f74683a3a756e7374616b653a204e4f545f464f554e440060448201526064016200069c565b6001600160a01b03871660008181526003602090815260408083208a8452825280832054938352600182528083208a8452909152812054909162001a339162002840565b90508581101562001aad5760405162461bcd60e51b815260206004820152602860248201527f5469636b6574426f6f74683a3a756e7374616b653a20494e535546464943494560448201527f4e545f46554e445300000000000000000000000000000000000000000000000060648201526084016200069c565b6001600160a01b03881660009081526001602090815260408083208a845290915290205462001ade90879062002840565b6001600160a01b03891660009081526001602090815260408083208b845282528083209390935560029052205462001b1890879062002840565b6000888152600260205260409081902091909155517fac6855390000000000000000000000000000000000000000000000000000000081526001600160a01b0389811660048301526024820188905283169063ac68553990604401600060405180830381600087803b15801562001b8e57600080fd5b505af115801562001ba3573d6000803e3d6000fd5b5050604080518981523360208201528a93506001600160a01b038c1692507f8b264d23b1bf5d7d34440338fbbf8e868725712186df7862503c9620ea6e958991016200095c565b6000811162001c3c5760405162461bcd60e51b815260206004820152601a60248201527f5469636b6574426f6f74683a3a756e6c6f636b3a204e4f5f4f5000000000000060448201526064016200069c565b3360009081526004602090815260408083206001600160a01b0387168452825280832085845290915290205481111562001cdf5760405162461bcd60e51b815260206004820152602760248201527f5469636b6574426f6f74683a3a756e6c6f636b3a20494e53554646494349454e60448201527f545f46554e44530000000000000000000000000000000000000000000000000060648201526084016200069c565b6001600160a01b038316600090815260036020908152604080832085845290915290205462001d1090829062002840565b6001600160a01b038416600081815260036020908152604080832087845282528083209490945533825260048152838220928252918252828120858252909152205462001d5f90829062002840565b3360008181526004602090815260408083206001600160a01b03891680855290835281842088855283529281902094909455835185815290810192909252849290917f17a47c3640e01bce0ad23c20907bc651cab2af1b0abc543ae1da119b43de8cca910160405180910390a3505050565b6040517f4fe0eced00000000000000000000000000000000000000000000000000000000815260048101849052839033906001600160a01b037f00000000000000000000000000000000000000000000000000000000000000001690634fe0eced9060240160206040518083038186803b15801562001e4f57600080fd5b505afa15801562001e64573d6000803e3d6000fd5b505050506040513d601f19601f8201168201806040525081019062001e8a919062002523565b6001600160a01b03161462001ee25760405162461bcd60e51b815260206004820152601d60248201527f5465726d696e616c5574696c6974793a20554e415554484f52495a454400000060448201526064016200069c565b6000831162001f345760405162461bcd60e51b815260206004820152601960248201527f5469636b6574426f6f74683a3a7072696e743a204e4f5f4f500000000000000060448201526064016200069c565b6000848152602081905260408120546001600160a01b03169083801562001f6357506001600160a01b03821615155b9050801562001fef576040517fac6855390000000000000000000000000000000000000000000000000000000081526001600160a01b0388811660048301526024820187905283169063ac68553990604401600060405180830381600087803b15801562001fd057600080fd5b505af115801562001fe5573d6000803e3d6000fd5b505050506200206a565b6001600160a01b03871660009081526001602090815260408083208984529091529020546200202090869062002825565b6001600160a01b03881660009081526001602090815260408083208a84528252808320939093556002905220546200205a90869062002825565b6000878152600260205260409020555b60408051868152821515602082015285151581830152336060820152905187916001600160a01b038a16917f1d52fee743b6ab8b9037ca51c77fba34120c1ccf69645da4defbb134728698789181900360800190a350505050505050565b8282600d336001600160a01b0384161480620021a957506040517fc161c93f0000000000000000000000000000000000000000000000000000000081523360048201526001600160a01b03848116602483015260448201849052606482018390527f0000000000000000000000000000000000000000000000000000000000000000169063c161c93f9060840160206040518083038186803b1580156200216e57600080fd5b505afa15801562002183573d6000803e3d6000fd5b505050506040513d601f19601f82011682018060405250810190620021a991906200268a565b806200227a57506040517fc161c93f0000000000000000000000000000000000000000000000000000000081523360048201526001600160a01b03848116602483015260006044830152606482018390527f0000000000000000000000000000000000000000000000000000000000000000169063c161c93f9060840160206040518083038186803b1580156200223f57600080fd5b505afa15801562002254573d6000803e3d6000fd5b505050506040513d601f19601f820116820180604052508101906200227a91906200268a565b620022c85760405162461bcd60e51b815260206004820152601860248201527f4f706572617461626c653a20554e415554484f52495a4544000000000000000060448201526064016200069c565b600084116200231a5760405162461bcd60e51b815260206004820152601860248201527f5469636b6574426f6f74683a3a6c6f636b3a204e4f5f4f50000000000000000060448201526064016200069c565b6001600160a01b03861660008181526003602090815260408083208984528252808320549383526001825280832089845290915290205485916200235e9162002840565b1015620023d45760405162461bcd60e51b815260206004820152602560248201527f5469636b6574426f6f74683a3a6c6f636b3a20494e53554646494349454e545f60448201527f46554e445300000000000000000000000000000000000000000000000000000060648201526084016200069c565b6001600160a01b03861660009081526003602090815260408083208884529091529020546200240590859062002825565b6001600160a01b03871660008181526003602090815260408083208a84528252808320949094553382526004815283822092825291825282812088825290915220546200245490859062002825565b3360008181526004602090815260408083206001600160a01b038c168085529083528184208b855283529281902094909455835188815290810192909252879290917f75784e97e4541f1b3d2c44d8c51b419e33fb6de615033cfc6e6810db54ffa4fe910160405180910390a3505050505050565b611b3780620028b283390190565b60008083601f840112620024ea57600080fd5b50813567ffffffffffffffff8111156200250357600080fd5b6020830191508360208285010111156200251c57600080fd5b9250929050565b6000602082840312156200253657600080fd5b8151620025438162002889565b9392505050565b6000806000606084860312156200256057600080fd5b83356200256d8162002889565b925060208401356200257f8162002889565b929592945050506040919091013590565b60008060408385031215620025a457600080fd5b8235620025b18162002889565b946020939093013593505050565b600080600060608486031215620025d557600080fd5b8335620025e28162002889565b95602085013595506040909401359392505050565b600080600080608085870312156200260e57600080fd5b84356200261b8162002889565b9350602085013592506040850135915060608501356200263b8162002889565b939692955090935050565b600080600080608085870312156200265d57600080fd5b84356200266a8162002889565b9350602085013592506040850135915060608501356200263b81620028a2565b6000602082840312156200269d57600080fd5b81516200254381620028a2565b600060208284031215620026bd57600080fd5b5035919050565b600060208284031215620026d757600080fd5b5051919050565b600080600080600060608688031215620026f757600080fd5b85359450602086013567ffffffffffffffff808211156200271757600080fd5b6200272589838a01620024d7565b909650945060408801359150808211156200273f57600080fd5b506200274e88828901620024d7565b969995985093965092949392505050565b8183528181602085013750600060208284010152600060207fffffffffffffffffffffffffffffffffffffffffffffffffffffffffffffffe0601f840116840101905092915050565b604081526000620027be6040830186886200275f565b8281036020840152620027d38185876200275f565b979650505050505050565b606081526000620027f46060830187896200275f565b8281036020840152620028098186886200275f565b9150506001600160a01b03831660408301529695505050505050565b600082198211156200283b576200283b6200285a565b500190565b6000828210156200285557620028556200285a565b500390565b7f4e487b7100000000000000000000000000000000000000000000000000000000600052601160045260246000fd5b6001600160a01b03811681146200289f57600080fd5b50565b80151581146200289f57600080fdfe6101406040527f6e71edae12b1b97f4d1f60370fef10105fa2faae0126114a169c64845d6126c9610120523480156200003757600080fd5b5060405162001b3738038062001b378339810160408190526200005a91620002f6565b8180604051806040016040528060018152602001603160f81b815250848481600390805190602001906200009092919062000199565b508051620000a690600490602084019062000199565b5050825160209384012082519284019290922060c083815260e08290524660a0818152604080517f8b73c3c69bb8fe3d512ecc4cf759cc79239f7b179b0ffacaa9a75d522b39400f818a0181905281830198909852606081019590955260808086019390935230858301528051808603909201825293909201909252805194019390932090925261010052506200013f90503362000147565b5050620003b3565b600680546001600160a01b038381166001600160a01b0319831681179093556040519116919082907f8be0079c531659141344cd1fd0a4f28419497f9722a3daafe3b4186f6b6457e090600090a35050565b828054620001a79062000360565b90600052602060002090601f016020900481019282620001cb576000855562000216565b82601f10620001e657805160ff191683800117855562000216565b8280016001018555821562000216579182015b8281111562000216578251825591602001919060010190620001f9565b506200022492915062000228565b5090565b5b8082111562000224576000815560010162000229565b600082601f8301126200025157600080fd5b81516001600160401b03808211156200026e576200026e6200039d565b604051601f8301601f19908116603f011681019082821181831017156200029957620002996200039d565b81604052838152602092508683858801011115620002b657600080fd5b600091505b83821015620002da5785820183015181830184015290820190620002bb565b83821115620002ec5760008385830101525b9695505050505050565b600080604083850312156200030a57600080fd5b82516001600160401b03808211156200032257600080fd5b62000330868387016200023f565b935060208501519150808211156200034757600080fd5b5062000356858286016200023f565b9150509250929050565b600181811c908216806200037557607f821691505b602082108114156200039757634e487b7160e01b600052602260045260246000fd5b50919050565b634e487b7160e01b600052604160045260246000fd5b60805160a05160c05160e05161010051610120516117346200040360003960006107a601526000610fc60152600061101501526000610ff001526000610f7401526000610f9d01526117346000f3fe608060405234801561001057600080fd5b50600436106101515760003560e01c8063715018a6116100cd578063a9059cbb11610081578063d505accf11610066578063d505accf146102b5578063dd62ed3e146102c8578063f2fde38b1461030e57600080fd5b8063a9059cbb1461028f578063ac685539146102a257600080fd5b80638da5cb5b116100b25780638da5cb5b1461024c57806395d89b4114610274578063a457c2d71461027c57600080fd5b8063715018a6146102315780637ecebe001461023957600080fd5b806323b872dd116101245780633644e515116101095780633644e515146101e057806339509351146101e857806370a08231146101fb57600080fd5b806323b872dd146101be578063313ce567146101d157600080fd5b806306fdde0314610156578063095ea7b31461017457806318160ddd146101975780631e9a6950146101a9575b600080fd5b61015e610321565b60405161016b91906115df565b60405180910390f35b6101876101823660046115b5565b6103b3565b604051901515815260200161016b565b6002545b60405190815260200161016b565b6101bc6101b73660046115b5565b6103c9565b005b6101876101cc366004611506565b610443565b6040516012815260200161016b565b61019b61050f565b6101876101f63660046115b5565b61051e565b61019b6102093660046114b1565b73ffffffffffffffffffffffffffffffffffffffff1660009081526020819052604090205490565b6101bc610567565b61019b6102473660046114b1565b6105da565b60065460405173ffffffffffffffffffffffffffffffffffffffff909116815260200161016b565b61015e610607565b61018761028a3660046115b5565b610616565b61018761029d3660046115b5565b6106d4565b6101bc6102b03660046115b5565b6106e1565b6101bc6102c3366004611542565b610752565b61019b6102d63660046114d3565b73ffffffffffffffffffffffffffffffffffffffff918216600090815260016020908152604080832093909416825291909152205490565b6101bc61031c3660046114b1565b6108dd565b60606003805461033090611681565b80601f016020809104026020016040519081016040528092919081815260200182805461035c90611681565b80156103a95780601f1061037e576101008083540402835291602001916103a9565b820191906000526020600020905b81548152906001019060200180831161038c57829003601f168201915b5050505050905090565b60006103c03384846109d9565b50600192915050565b60065473ffffffffffffffffffffffffffffffffffffffff1633146104355760405162461bcd60e51b815260206004820181905260248201527f4f776e61626c653a2063616c6c6572206973206e6f7420746865206f776e657260448201526064015b60405180910390fd5b61043f8282610b59565b5050565b6000610450848484610d0a565b73ffffffffffffffffffffffffffffffffffffffff84166000908152600160209081526040808320338452909152902054828110156104f75760405162461bcd60e51b815260206004820152602860248201527f45524332303a207472616e7366657220616d6f756e742065786365656473206160448201527f6c6c6f77616e6365000000000000000000000000000000000000000000000000606482015260840161042c565b61050485338584036109d9565b506001949350505050565b6000610519610f70565b905090565b33600081815260016020908152604080832073ffffffffffffffffffffffffffffffffffffffff8716845290915281205490916103c0918590610562908690611652565b6109d9565b60065473ffffffffffffffffffffffffffffffffffffffff1633146105ce5760405162461bcd60e51b815260206004820181905260248201527f4f776e61626c653a2063616c6c6572206973206e6f7420746865206f776e6572604482015260640161042c565b6105d86000611063565b565b73ffffffffffffffffffffffffffffffffffffffff81166000908152600560205260408120545b92915050565b60606004805461033090611681565b33600090815260016020908152604080832073ffffffffffffffffffffffffffffffffffffffff86168452909152812054828110156106bd5760405162461bcd60e51b815260206004820152602560248201527f45524332303a2064656372656173656420616c6c6f77616e63652062656c6f7760448201527f207a65726f000000000000000000000000000000000000000000000000000000606482015260840161042c565b6106ca33858584036109d9565b5060019392505050565b60006103c0338484610d0a565b60065473ffffffffffffffffffffffffffffffffffffffff1633146107485760405162461bcd60e51b815260206004820181905260248201527f4f776e61626c653a2063616c6c6572206973206e6f7420746865206f776e6572604482015260640161042c565b61043f82826110da565b834211156107a25760405162461bcd60e51b815260206004820152601d60248201527f45524332305065726d69743a206578706972656420646561646c696e65000000604482015260640161042c565b60007f00000000000000000000000000000000000000000000000000000000000000008888886107d18c6111e0565b60408051602081019690965273ffffffffffffffffffffffffffffffffffffffff94851690860152929091166060840152608083015260a082015260c0810186905260e001604051602081830303815290604052805190602001209050600061083982611215565b905060006108498287878761127e565b90508973ffffffffffffffffffffffffffffffffffffffff168173ffffffffffffffffffffffffffffffffffffffff16146108c65760405162461bcd60e51b815260206004820152601e60248201527f45524332305065726d69743a20696e76616c6964207369676e61747572650000604482015260640161042c565b6108d18a8a8a6109d9565b50505050505050505050565b60065473ffffffffffffffffffffffffffffffffffffffff1633146109445760405162461bcd60e51b815260206004820181905260248201527f4f776e61626c653a2063616c6c6572206973206e6f7420746865206f776e6572604482015260640161042c565b73ffffffffffffffffffffffffffffffffffffffff81166109cd5760405162461bcd60e51b815260206004820152602660248201527f4f776e61626c653a206e6577206f776e657220697320746865207a65726f206160448201527f6464726573730000000000000000000000000000000000000000000000000000606482015260840161042c565b6109d681611063565b50565b73ffffffffffffffffffffffffffffffffffffffff8316610a615760405162461bcd60e51b8152602060048201526024808201527f45524332303a20617070726f76652066726f6d20746865207a65726f2061646460448201527f7265737300000000000000000000000000000000000000000000000000000000606482015260840161042c565b73ffffffffffffffffffffffffffffffffffffffff8216610aea5760405162461bcd60e51b815260206004820152602260248201527f45524332303a20617070726f766520746f20746865207a65726f20616464726560448201527f7373000000000000000000000000000000000000000000000000000000000000606482015260840161042c565b73ffffffffffffffffffffffffffffffffffffffff83811660008181526001602090815260408083209487168084529482529182902085905590518481527f8c5be1e5ebec7d5bd14f71427d1e84f3dd0314c0f7b2291e5b200ac8c7c3b92591015b60405180910390a3505050565b73ffffffffffffffffffffffffffffffffffffffff8216610be25760405162461bcd60e51b815260206004820152602160248201527f45524332303a206275726e2066726f6d20746865207a65726f2061646472657360448201527f7300000000000000000000000000000000000000000000000000000000000000606482015260840161042c565b73ffffffffffffffffffffffffffffffffffffffff821660009081526020819052604090205481811015610c7e5760405162461bcd60e51b815260206004820152602260248201527f45524332303a206275726e20616d6f756e7420657863656564732062616c616e60448201527f6365000000000000000000000000000000000000000000000000000000000000606482015260840161042c565b73ffffffffffffffffffffffffffffffffffffffff83166000908152602081905260408120838303905560028054849290610cba90849061166a565b909155505060405182815260009073ffffffffffffffffffffffffffffffffffffffff8516907fddf252ad1be2c89b69c2b068fc378daa952ba7f163c4a11628f55a4df523b3ef90602001610b4c565b73ffffffffffffffffffffffffffffffffffffffff8316610d935760405162461bcd60e51b815260206004820152602560248201527f45524332303a207472616e736665722066726f6d20746865207a65726f20616460448201527f6472657373000000000000000000000000000000000000000000000000000000606482015260840161042c565b73ffffffffffffffffffffffffffffffffffffffff8216610e1c5760405162461bcd60e51b815260206004820152602360248201527f45524332303a207472616e7366657220746f20746865207a65726f206164647260448201527f6573730000000000000000000000000000000000000000000000000000000000606482015260840161042c565b73ffffffffffffffffffffffffffffffffffffffff831660009081526020819052604090205481811015610eb85760405162461bcd60e51b815260206004820152602660248201527f45524332303a207472616e7366657220616d6f756e742065786365656473206260448201527f616c616e63650000000000000000000000000000000000000000000000000000606482015260840161042c565b73ffffffffffffffffffffffffffffffffffffffff808516600090815260208190526040808220858503905591851681529081208054849290610efc908490611652565b925050819055508273ffffffffffffffffffffffffffffffffffffffff168473ffffffffffffffffffffffffffffffffffffffff167fddf252ad1be2c89b69c2b068fc378daa952ba7f163c4a11628f55a4df523b3ef84604051610f6291815260200190565b60405180910390a350505050565b60007f0000000000000000000000000000000000000000000000000000000000000000461415610fbf57507f000000000000000000000000000000000000000000000000000000000000000090565b50604080517f00000000000000000000000000000000000000000000000000000000000000006020808301919091527f0000000000000000000000000000000000000000000000000000000000000000828401527f000000000000000000000000000000000000000000000000000000000000000060608301524660808301523060a0808401919091528351808403909101815260c0909201909252805191012090565b6006805473ffffffffffffffffffffffffffffffffffffffff8381167fffffffffffffffffffffffff0000000000000000000000000000000000000000831681179093556040519116919082907f8be0079c531659141344cd1fd0a4f28419497f9722a3daafe3b4186f6b6457e090600090a35050565b73ffffffffffffffffffffffffffffffffffffffff821661113d5760405162461bcd60e51b815260206004820152601f60248201527f45524332303a206d696e7420746f20746865207a65726f206164647265737300604482015260640161042c565b806002600082825461114f9190611652565b909155505073ffffffffffffffffffffffffffffffffffffffff821660009081526020819052604081208054839290611189908490611652565b909155505060405181815273ffffffffffffffffffffffffffffffffffffffff8316906000907fddf252ad1be2c89b69c2b068fc378daa952ba7f163c4a11628f55a4df523b3ef9060200160405180910390a35050565b73ffffffffffffffffffffffffffffffffffffffff811660009081526005602052604090208054600181018255905b50919050565b6000610601611222610f70565b836040517f19010000000000000000000000000000000000000000000000000000000000006020820152602281018390526042810182905260009060620160405160208183030381529060405280519060200120905092915050565b60007f7fffffffffffffffffffffffffffffff5d576e7357a4501ddfe92f46681b20a08211156113165760405162461bcd60e51b815260206004820152602260248201527f45434453413a20696e76616c6964207369676e6174757265202773272076616c60448201527f7565000000000000000000000000000000000000000000000000000000000000606482015260840161042c565b8360ff16601b148061132b57508360ff16601c145b61139d5760405162461bcd60e51b815260206004820152602260248201527f45434453413a20696e76616c6964207369676e6174757265202776272076616c60448201527f7565000000000000000000000000000000000000000000000000000000000000606482015260840161042c565b6040805160008082526020820180845288905260ff871692820192909252606081018590526080810184905260019060a0016020604051602081039080840390855afa1580156113f1573d6000803e3d6000fd5b50506040517fffffffffffffffffffffffffffffffffffffffffffffffffffffffffffffffe0015191505073ffffffffffffffffffffffffffffffffffffffff811661147f5760405162461bcd60e51b815260206004820152601860248201527f45434453413a20696e76616c6964207369676e61747572650000000000000000604482015260640161042c565b95945050505050565b803573ffffffffffffffffffffffffffffffffffffffff811681146114ac57600080fd5b919050565b6000602082840312156114c357600080fd5b6114cc82611488565b9392505050565b600080604083850312156114e657600080fd5b6114ef83611488565b91506114fd60208401611488565b90509250929050565b60008060006060848603121561151b57600080fd5b61152484611488565b925061153260208501611488565b9150604084013590509250925092565b600080600080600080600060e0888a03121561155d57600080fd5b61156688611488565b965061157460208901611488565b95506040880135945060608801359350608088013560ff8116811461159857600080fd5b9699959850939692959460a0840135945060c09093013592915050565b600080604083850312156115c857600080fd5b6115d183611488565b946020939093013593505050565b600060208083528351808285015260005b8181101561160c578581018301518582016040015282016115f0565b8181111561161e576000604083870101525b50601f017fffffffffffffffffffffffffffffffffffffffffffffffffffffffffffffffe016929092016040019392505050565b60008219821115611665576116656116cf565b500190565b60008282101561167c5761167c6116cf565b500390565b600181811c9082168061169557607f821691505b6020821081141561120f577f4e487b7100000000000000000000000000000000000000000000000000000000600052602260045260246000fd5b7f4e487b7100000000000000000000000000000000000000000000000000000000600052601160045260246000fdfea2646970667358221220ec2ba990e968b0e3fe16a46d334d35f73606c5e44306bd3f3cf04b8a8c045fde64736f6c63430008060033a264697066735822122022db20663a4b161d51a668c48ab3f1c7030dbc25a71616c707e35722f1381ffb64736f6c63430008060033",
  "devdoc": {
    "details": "Tickets can be either represented internally staked, or as unstaked ERC-20s. This contract manages these two representations and the conversion between the two.The total supply of a project's tickets and the balance of each account are calculated in this contract.",
    "kind": "dev",
    "methods": {
      "balanceOf(address,uint256)": {
        "params": {
          "_holder": "The ticket holder to get a balance for.",
          "_projectId": "The project to get the `_hodler`s balance of."
        },
        "returns": {
          "balance": "The balance."
        }
      },
      "constructor": {
        "params": {
          "_operatorStore": "A contract storing operator assignments.",
          "_projects": "A Projects contract which mints ERC-721's that represent project ownership and transfers.",
          "_terminalDirectory": "A directory of a project's current Juicebox terminal to receive payments in."
        }
      },
      "issue(uint256,string,string)": {
        "details": " Deploys an owner's Ticket ERC-20 token contract.",
        "params": {
          "_name": "The ERC-20's name. \" Juicebox ticket\" will be appended.",
          "_projectId": "The ID of the project being issued tickets.",
          "_symbol": "The ERC-20's symbol. \"j\" will be prepended."
        }
      },
      "lock(address,uint256,uint256)": {
        "details": "Only a ticket holder or an operator can lock its tickets.",
        "params": {
          "_amount": "The amount of tickets to lock.",
          "_holder": "The holder to lock tickets from.",
          "_projectId": "The ID of the project whos tickets are being locked."
        }
      },
      "print(address,uint256,uint256,bool)": {
        "details": "Only a project's current terminal can print its tickets.",
        "params": {
          "_amount": "The amount to print.",
          "_holder": "The address receiving the new tickets.",
          "_preferUnstakedTickets": "Whether ERC20's should be converted automatically if they have been issued.",
          "_projectId": "The project to which the tickets belong."
        }
      },
      "redeem(address,uint256,uint256,bool)": {
        "details": "Only a project's current terminal can redeem its tickets.",
        "params": {
          "_amount": "The amount of tickets being redeemed.",
          "_holder": "The address that owns the tickets being redeemed.",
          "_preferUnstaked": "If the preference is to redeem tickets that have been converted to ERC-20s.",
          "_projectId": "The ID of the project of the tickets being redeemed."
        }
      },
      "stake(address,uint256,uint256)": {
        "details": "Only a ticket holder or an operator can stake its tickets.",
        "params": {
          "_amount": "The amount of tickets to stake.",
          "_holder": "The owner of the tickets to stake.",
          "_projectId": "The ID of the project whos tickets are being staked."
        }
      },
      "totalSupplyOf(uint256)": {
        "params": {
          "_projectId": "The ID of the project to get the total supply of."
        },
        "returns": {
          "supply": "The total supply."
        }
      },
      "transfer(address,uint256,uint256,address)": {
        "details": "Only a ticket holder or an operator can transfer its tickets.",
        "params": {
          "_amount": "The amount of tickets to transfer.",
          "_holder": "The holder to transfer tickets from.",
          "_projectId": "The ID of the project whos tickets are being transfered.",
          "_recipient": "The recipient of the tickets."
        }
      },
      "unlock(address,uint256,uint256)": {
        "details": "The address that locked the tickets must be the address that unlocks the tickets.",
        "params": {
          "_amount": "The amount of tickets to unlock.",
          "_holder": "The holder to unlock tickets from.",
          "_projectId": "The ID of the project whos tickets are being unlocked."
        }
      },
      "unstake(address,uint256,uint256)": {
        "details": "Only a ticket holder or an operator can unstake its tickets.",
        "params": {
          "_amount": "The amount of tickets to unstake.",
          "_holder": "The owner of the tickets to unstake.",
          "_projectId": "The ID of the project whos tickets are being unstaked."
        }
      }
    },
    "version": 1
  },
  "userdoc": {
    "kind": "user",
    "methods": {
      "balanceOf(address,uint256)": {
        "notice": " The total balance of tickets a holder has for a specified project, including staked and unstaked tickets."
      },
      "issue(uint256,string,string)": {
        "notice": " Issues an owner's ERC-20 Tickets that'll be used when unstaking tickets."
      },
      "lock(address,uint256,uint256)": {
        "notice": " Lock a project's tickets, preventing them from being redeemed and from converting to ERC20s."
      },
      "operatorStore()": {
        "notice": "A contract storing operator assignments."
      },
      "print(address,uint256,uint256,bool)": {
        "notice": " Print new tickets."
      },
      "projects()": {
        "notice": "The Projects contract which mints ERC-721's that represent project ownership and transfers."
      },
      "redeem(address,uint256,uint256,bool)": {
        "notice": " Redeems tickets."
      },
      "stake(address,uint256,uint256)": {
        "notice": " Stakes ERC20 tickets by burning their supply and creating an internal staked version."
      },
      "terminalDirectory()": {
        "notice": "The direct deposit terminals."
      },
      "totalSupplyOf(uint256)": {
        "notice": " The total supply of tickets for each project, including staked and unstaked tickets."
      },
      "transfer(address,uint256,uint256,address)": {
        "notice": " Allows a ticket holder to transfer its tickets to another account, without unstaking to ERC-20s."
      },
      "unlock(address,uint256,uint256)": {
        "notice": " Unlock a project's tickets."
      },
      "unstake(address,uint256,uint256)": {
        "notice": " Unstakes internal tickets by creating and distributing ERC20 tickets."
      }
    },
    "notice": " Manage Ticket printing, redemption, and account balances.",
    "version": 1
  },
  "storageLayout": {
    "storage": [
      {
        "astId": 14044,
        "contract": "contracts/TicketBooth.sol:TicketBooth",
        "label": "ticketsOf",
        "offset": 0,
        "slot": "0",
        "type": "t_mapping(t_uint256,t_contract(ITickets)18255)"
      },
      {
        "astId": 14051,
        "contract": "contracts/TicketBooth.sol:TicketBooth",
        "label": "stakedBalanceOf",
        "offset": 0,
        "slot": "1",
        "type": "t_mapping(t_address,t_mapping(t_uint256,t_uint256))"
      },
      {
        "astId": 14056,
        "contract": "contracts/TicketBooth.sol:TicketBooth",
        "label": "stakedTotalSupplyOf",
        "offset": 0,
        "slot": "2",
        "type": "t_mapping(t_uint256,t_uint256)"
      },
      {
        "astId": 14063,
        "contract": "contracts/TicketBooth.sol:TicketBooth",
        "label": "lockedBalanceOf",
        "offset": 0,
        "slot": "3",
        "type": "t_mapping(t_address,t_mapping(t_uint256,t_uint256))"
      },
      {
        "astId": 14072,
        "contract": "contracts/TicketBooth.sol:TicketBooth",
        "label": "lockedBalanceBy",
        "offset": 0,
        "slot": "4",
        "type": "t_mapping(t_address,t_mapping(t_address,t_mapping(t_uint256,t_uint256)))"
      }
    ],
    "types": {
      "t_address": {
        "encoding": "inplace",
        "label": "address",
        "numberOfBytes": "20"
      },
      "t_contract(ITickets)18255": {
        "encoding": "inplace",
        "label": "contract ITickets",
        "numberOfBytes": "20"
      },
      "t_mapping(t_address,t_mapping(t_address,t_mapping(t_uint256,t_uint256)))": {
        "encoding": "mapping",
        "key": "t_address",
        "label": "mapping(address => mapping(address => mapping(uint256 => uint256)))",
        "numberOfBytes": "32",
        "value": "t_mapping(t_address,t_mapping(t_uint256,t_uint256))"
      },
      "t_mapping(t_address,t_mapping(t_uint256,t_uint256))": {
        "encoding": "mapping",
        "key": "t_address",
        "label": "mapping(address => mapping(uint256 => uint256))",
        "numberOfBytes": "32",
        "value": "t_mapping(t_uint256,t_uint256)"
      },
      "t_mapping(t_uint256,t_contract(ITickets)18255)": {
        "encoding": "mapping",
        "key": "t_uint256",
        "label": "mapping(uint256 => contract ITickets)",
        "numberOfBytes": "32",
        "value": "t_contract(ITickets)18255"
      },
      "t_mapping(t_uint256,t_uint256)": {
        "encoding": "mapping",
        "key": "t_uint256",
        "label": "mapping(uint256 => uint256)",
        "numberOfBytes": "32",
        "value": "t_uint256"
      },
      "t_uint256": {
        "encoding": "inplace",
        "label": "uint256",
        "numberOfBytes": "32"
      }
    }
  }
}