{
  "address": "0x86b8833A776139725115623eCE989C51C9E3eEA8",
  "abi": [
    {
      "inputs": [
        {
          "internalType": "contract IProjects",
          "name": "_projects",
          "type": "address"
        },
        {
          "internalType": "contract IFundingCycles",
          "name": "_fundingCycles",
          "type": "address"
        },
        {
          "internalType": "contract ITicketBooth",
          "name": "_ticketBooth",
          "type": "address"
        },
        {
          "internalType": "contract IOperatorStore",
          "name": "_operatorStore",
          "type": "address"
        },
        {
          "internalType": "contract ITerminalDirectory",
          "name": "_terminalDirectory",
          "type": "address"
        },
        {
          "internalType": "address",
          "name": "_owner",
          "type": "address"
        }
      ],
      "stateMutability": "nonpayable",
      "type": "constructor"
    },
    {
      "anonymous": false,
      "inputs": [
        {
          "indexed": true,
          "internalType": "uint256",
          "name": "projectId",
          "type": "uint256"
        },
        {
          "indexed": false,
          "internalType": "uint256",
          "name": "value",
          "type": "uint256"
        },
        {
          "indexed": false,
          "internalType": "address",
          "name": "caller",
          "type": "address"
        }
      ],
      "name": "AddToBalance",
      "type": "event"
    },
    {
      "anonymous": false,
      "inputs": [
        {
          "indexed": true,
          "internalType": "address",
          "name": "previousOwner",
          "type": "address"
        },
        {
          "indexed": true,
          "internalType": "address",
          "name": "newOwner",
          "type": "address"
        }
      ],
      "name": "OwnershipTransferred",
      "type": "event"
    },
    {
      "anonymous": false,
      "inputs": [
        {
          "indexed": true,
          "internalType": "uint256",
          "name": "projectId",
          "type": "uint256"
        },
        {
          "indexed": true,
          "internalType": "address",
          "name": "beneficiary",
          "type": "address"
        },
        {
          "indexed": false,
          "internalType": "uint256",
          "name": "amount",
          "type": "uint256"
        },
        {
          "indexed": false,
          "internalType": "string",
          "name": "memo",
          "type": "string"
        },
        {
          "indexed": false,
          "internalType": "address",
          "name": "caller",
          "type": "address"
        }
      ],
      "name": "PrintTickets",
      "type": "event"
    },
    {
      "anonymous": false,
      "inputs": [
        {
          "indexed": false,
          "internalType": "uint256",
          "name": "projectId",
          "type": "uint256"
        },
        {
          "indexed": false,
          "internalType": "address",
          "name": "beneficiary",
          "type": "address"
        },
        {
          "indexed": false,
          "internalType": "uint256",
          "name": "originalBalance",
          "type": "uint256"
        },
        {
          "indexed": false,
          "internalType": "uint256",
          "name": "amount",
          "type": "uint256"
        },
        {
          "indexed": false,
          "internalType": "address",
          "name": "caller",
          "type": "address"
        }
      ],
      "name": "Rescued",
      "type": "event"
    },
    {
      "anonymous": false,
      "inputs": [
        {
          "indexed": false,
          "internalType": "uint256",
          "name": "projectId",
          "type": "uint256"
        },
        {
          "indexed": false,
          "internalType": "bool",
          "name": "newValue",
          "type": "bool"
        },
        {
          "indexed": false,
          "internalType": "address",
          "name": "caller",
          "type": "address"
        }
      ],
      "name": "ToggleRescue",
      "type": "event"
    },
    {
      "inputs": [
        {
          "internalType": "uint256",
          "name": "_projectId",
          "type": "uint256"
        }
      ],
      "name": "addToBalance",
      "outputs": [],
      "stateMutability": "payable",
      "type": "function"
    },
    {
      "inputs": [
        {
          "internalType": "contract ITerminal",
          "name": "",
          "type": "address"
        }
      ],
      "name": "allowMigration",
      "outputs": [],
      "stateMutability": "pure",
      "type": "function"
    },
    {
      "inputs": [
        {
          "internalType": "uint256",
          "name": "",
          "type": "uint256"
        }
      ],
      "name": "balanceOf",
      "outputs": [
        {
          "internalType": "uint256",
          "name": "",
          "type": "uint256"
        }
      ],
      "stateMutability": "view",
      "type": "function"
    },
    {
      "inputs": [],
      "name": "fundingCycles",
      "outputs": [
        {
          "internalType": "contract IFundingCycles",
          "name": "",
          "type": "address"
        }
      ],
      "stateMutability": "view",
      "type": "function"
    },
    {
      "inputs": [
        {
          "internalType": "uint256",
          "name": "",
          "type": "uint256"
        },
        {
          "internalType": "contract ITerminal",
          "name": "",
          "type": "address"
        }
      ],
      "name": "migrate",
      "outputs": [],
      "stateMutability": "pure",
      "type": "function"
    },
    {
      "inputs": [
        {
          "internalType": "contract ITerminal",
          "name": "",
          "type": "address"
        }
      ],
      "name": "migrationIsAllowed",
      "outputs": [
        {
          "internalType": "bool",
          "name": "",
          "type": "bool"
        }
      ],
      "stateMutability": "view",
      "type": "function"
    },
    {
      "inputs": [],
      "name": "operatorStore",
      "outputs": [
        {
          "internalType": "contract IOperatorStore",
          "name": "",
          "type": "address"
        }
      ],
      "stateMutability": "view",
      "type": "function"
    },
    {
      "inputs": [],
      "name": "owner",
      "outputs": [
        {
          "internalType": "address",
          "name": "",
          "type": "address"
        }
      ],
      "stateMutability": "view",
      "type": "function"
    },
    {
      "inputs": [
        {
          "internalType": "uint256",
          "name": "",
          "type": "uint256"
        },
        {
          "internalType": "address",
          "name": "",
          "type": "address"
        },
        {
          "internalType": "string",
          "name": "",
          "type": "string"
        },
        {
          "internalType": "bool",
          "name": "",
          "type": "bool"
        }
      ],
      "name": "pay",
      "outputs": [
        {
          "internalType": "uint256",
          "name": "",
          "type": "uint256"
        }
      ],
      "stateMutability": "payable",
      "type": "function"
    },
    {
      "inputs": [
        {
          "internalType": "uint256",
          "name": "_projectId",
          "type": "uint256"
        },
        {
          "internalType": "uint256",
          "name": "_amount",
          "type": "uint256"
        },
        {
          "internalType": "address",
          "name": "_beneficiary",
          "type": "address"
        },
        {
          "internalType": "string",
          "name": "_memo",
          "type": "string"
        },
        {
          "internalType": "bool",
          "name": "_preferUnstakedTickets",
          "type": "bool"
        }
      ],
      "name": "printTickets",
      "outputs": [],
      "stateMutability": "nonpayable",
      "type": "function"
    },
    {
      "inputs": [],
      "name": "projects",
      "outputs": [
        {
          "internalType": "contract IProjects",
          "name": "",
          "type": "address"
        }
      ],
      "stateMutability": "view",
      "type": "function"
    },
    {
      "inputs": [],
      "name": "renounceOwnership",
      "outputs": [],
      "stateMutability": "nonpayable",
      "type": "function"
    },
    {
      "inputs": [
        {
          "internalType": "uint256",
          "name": "_projectId",
          "type": "uint256"
        },
        {
          "internalType": "address payable",
          "name": "_beneficiary",
          "type": "address"
        },
        {
          "internalType": "uint256",
          "name": "_amount",
          "type": "uint256"
        }
      ],
      "name": "rescue",
      "outputs": [],
      "stateMutability": "nonpayable",
      "type": "function"
    },
    {
      "inputs": [
        {
          "internalType": "uint256",
          "name": "",
          "type": "uint256"
        }
      ],
      "name": "rescueAllowed",
      "outputs": [
        {
          "internalType": "bool",
          "name": "",
          "type": "bool"
        }
      ],
      "stateMutability": "view",
      "type": "function"
    },
    {
      "inputs": [],
      "name": "terminalDirectory",
      "outputs": [
        {
          "internalType": "contract ITerminalDirectory",
          "name": "",
          "type": "address"
        }
      ],
      "stateMutability": "view",
      "type": "function"
    },
    {
      "inputs": [],
      "name": "ticketBooth",
      "outputs": [
        {
          "internalType": "contract ITicketBooth",
          "name": "",
          "type": "address"
        }
      ],
      "stateMutability": "view",
      "type": "function"
    },
    {
      "inputs": [
        {
          "internalType": "uint256",
          "name": "_projectId",
          "type": "uint256"
        }
      ],
      "name": "toggleRescue",
      "outputs": [],
      "stateMutability": "nonpayable",
      "type": "function"
    },
    {
      "inputs": [
        {
          "internalType": "address",
          "name": "newOwner",
          "type": "address"
        }
      ],
      "name": "transferOwnership",
      "outputs": [],
      "stateMutability": "nonpayable",
      "type": "function"
    }
  ],
  "transactionHash": "0x101ba5243c43d84e4b740fc80cdae1d8a9be26664bdb01619b67607731c509e8",
  "args": [
    "0x34A1d33e49907ADFE05fb4E21411a06a8c4300eE",
    "0x234985c467E90483bA42fB2C7C2f71A1874D805D",
    "0x0d038636a670E8bd8cF7D56BC4626f2a6446cF11",
    "0x5dA2E4Ba83569fb7A22a4aDE14bBEf1236168406",
    "0x88d8c9E98E6EdE75252c2473abc9724965fe7474",
    "0xAF28bcB48C40dBC86f52D459A6562F658fc94B1e"
  ],
  "solcInputHash": "b611a48ccf636fef65065ee937e0c17d",
  "bytecode": "0x6101206040523480156200001257600080fd5b5060405162001b1438038062001b1483398101604081905262000035916200025d565b606083901b6001600160601b031916608052600160005562000057336200013a565b6001600160a01b038616158015906200007857506001600160a01b03851615155b80156200008d57506001600160a01b03841615155b8015620000a257506001600160a01b03821615155b8015620000b757506001600160a01b03811615155b620000f85760405162461bcd60e51b815260206004820152600c60248201526b7a65726f206164647265737360a01b60448201526064015b60405180910390fd5b6001600160601b0319606087811b821660a05286811b821660c05285811b821660e05283901b16610100526200012e816200018c565b50505050505062000307565b600180546001600160a01b038381166001600160a01b0319831681179093556040519116919082907f8be0079c531659141344cd1fd0a4f28419497f9722a3daafe3b4186f6b6457e090600090a35050565b6001546001600160a01b03163314620001e85760405162461bcd60e51b815260206004820181905260248201527f4f776e61626c653a2063616c6c6572206973206e6f7420746865206f776e65726044820152606401620000ef565b6001600160a01b0381166200024f5760405162461bcd60e51b815260206004820152602660248201527f4f776e61626c653a206e6577206f776e657220697320746865207a65726f206160448201526564647265737360d01b6064820152608401620000ef565b6200025a816200013a565b50565b60008060008060008060c087890312156200027757600080fd5b86516200028481620002f1565b60208801519096506200029781620002f1565b6040880151909550620002aa81620002f1565b6060880151909450620002bd81620002f1565b6080880151909350620002d081620002f1565b60a0880151909250620002e381620002f1565b809150509295509295509295565b6001600160a01b03811681146200025a57600080fd5b60805160601c60a05160601c60c05160601c60e05160601c6101005160601c6117966200037e60003960006101c80152600081816102fc0152610de1015260008181610236015261079901526000818161027d015281816105510152610b5301526000818161039d0152610c5d01526117966000f3fe6080604052600436106101295760003560e01c80638da5cb5b116100a5578063a84673b411610074578063b423262711610059578063b4232627146103bf578063b9f11091146103df578063f2fde38b1461040f57600080fd5b8063a84673b41461034b578063ad007d631461038b57600080fd5b80638da5cb5b1461029f5780639713eea6146102ca5780639b602d60146102ea5780639cc7f7081461031e57600080fd5b80636abcf8e3116100fc578063882af667116100e1578063882af667146102245780638a19e355146102585780638b79543c1461026b57600080fd5b80636abcf8e3146101b6578063715018a61461020f57600080fd5b806302c8986f1461012e578063308a20ad146101545780633483b3a614610176578063405b84fa14610196575b600080fd5b61014161013c3660046113d3565b61042f565b6040519081526020015b60405180910390f35b34801561016057600080fd5b5061017461016f36600461123e565b61047f565b005b34801561018257600080fd5b5061017461019136600461139b565b6104ca565b3480156101a257600080fd5b506101746101b1366004611477565b61099e565b3480156101c257600080fd5b506101ea7f000000000000000000000000000000000000000000000000000000000000000081565b60405173ffffffffffffffffffffffffffffffffffffffff909116815260200161014b565b34801561021b57600080fd5b506101746109e6565b34801561023057600080fd5b506101ea7f000000000000000000000000000000000000000000000000000000000000000081565b610174610266366004611369565b610a59565b34801561027757600080fd5b506101ea7f000000000000000000000000000000000000000000000000000000000000000081565b3480156102ab57600080fd5b5060015473ffffffffffffffffffffffffffffffffffffffff166101ea565b3480156102d657600080fd5b506101746102e53660046114a7565b610b24565b3480156102f657600080fd5b506101ea7f000000000000000000000000000000000000000000000000000000000000000081565b34801561032a57600080fd5b50610141610339366004611369565b60026020526000908152604090205481565b34801561035757600080fd5b5061037b610366366004611369565b60036020526000908152604090205460ff1681565b604051901515815260200161014b565b34801561039757600080fd5b506101ea7f000000000000000000000000000000000000000000000000000000000000000081565b3480156103cb57600080fd5b506101746103da366004611369565b610e9a565b3480156103eb57600080fd5b5061037b6103fa36600461123e565b60046020526000908152604090205460ff1681565b34801561041b57600080fd5b5061017461042a36600461123e565b610f88565b60405162461bcd60e51b815260206004820152600860248201527f63616e742070617900000000000000000000000000000000000000000000000060448201526000906064015b60405180910390fd5b60405162461bcd60e51b815260206004820152601460248201527f63616e7420616c6c6f77206d6967726174696f6e0000000000000000000000006044820152606401610476565b50565b6002600054141561051d5760405162461bcd60e51b815260206004820152601f60248201527f5265656e7472616e637947756172643a207265656e7472616e742063616c6c006044820152606401610476565b60026000556040517f6352211e000000000000000000000000000000000000000000000000000000008152600481018490527f000000000000000000000000000000000000000000000000000000000000000073ffffffffffffffffffffffffffffffffffffffff1690636352211e9060240160206040518083038186803b1580156105a857600080fd5b505afa1580156105bc573d6000803e3d6000fd5b505050506040513d601f19601f820116820180604052508101906105e09190611262565b73ffffffffffffffffffffffffffffffffffffffff163373ffffffffffffffffffffffffffffffffffffffff161461065a5760405162461bcd60e51b815260206004820152600960248201527f6e6f74206f776e657200000000000000000000000000000000000000000000006044820152606401610476565b60008381526003602052604090205460ff166106b85760405162461bcd60e51b815260206004820152600b60248201527f6e6f7420616c6c6f7765640000000000000000000000000000000000000000006044820152606401610476565b600081116107085760405162461bcd60e51b815260206004820152601a60248201527f6d757374206265207265736375696e6720736f6d657468696e670000000000006044820152606401610476565b600083815260026020526040902054818110156107675760405162461bcd60e51b815260206004820152601460248201527f6e6f7420656e6f75676820746f207265736375650000000000000000000000006044820152606401610476565b6040517fcdce9b2b000000000000000000000000000000000000000000000000000000008152600481018590526000907f000000000000000000000000000000000000000000000000000000000000000073ffffffffffffffffffffffffffffffffffffffff1690639507d39a90829063cdce9b2b9060240160206040518083038186803b1580156107f857600080fd5b505afa15801561080c573d6000803e3d6000fd5b505050506040513d601f19601f820116820180604052508101906108309190611382565b6040518263ffffffff1660e01b815260040161084e91815260200190565b6102006040518083038186803b15801561086757600080fd5b505afa15801561087b573d6000803e3d6000fd5b505050506040513d601f19601f8201168201806040525081019061089f919061129c565b9050806101a0015160c9146108f65760405162461bcd60e51b815260206004820152600b60248201527f63616e74207265736375650000000000000000000000000000000000000000006044820152606401610476565b6000858152600260205260409020546109109084906116bb565b600086815260026020526040902055821561092f5761092f8484611081565b6040805186815273ffffffffffffffffffffffffffffffffffffffff86166020820152908101839052606081018490523360808201527f7ec66f89b3c67a6d09dcaa2e204935e4d5ea53840d0be6e62d83bb1af0c3377d9060a00160405180910390a150506001600055505050565b60405162461bcd60e51b815260206004820152600c60248201527f63616e74206d69677261746500000000000000000000000000000000000000006044820152606401610476565b60015473ffffffffffffffffffffffffffffffffffffffff163314610a4d5760405162461bcd60e51b815260206004820181905260248201527f4f776e61626c653a2063616c6c6572206973206e6f7420746865206f776e65726044820152606401610476565b610a5760006111ac565b565b60008181526003602052604090205460ff16610ab75760405162461bcd60e51b815260206004820152600b60248201527f6e6f7420616c6c6f7765640000000000000000000000000000000000000000006044820152606401610476565b600081815260026020526040902054610ad19034906116a3565b600082815260026020908152604091829020929092558051348152339281019290925282917f08534c4f6026a713959f9286d994e8430e6d0fd11045360abf782bacaa288d43910160405180910390a250565b6040517f6352211e000000000000000000000000000000000000000000000000000000008152600481018690527f000000000000000000000000000000000000000000000000000000000000000073ffffffffffffffffffffffffffffffffffffffff1690636352211e9060240160206040518083038186803b158015610baa57600080fd5b505afa158015610bbe573d6000803e3d6000fd5b505050506040513d601f19601f82011682018060405250810190610be29190611262565b8560113373ffffffffffffffffffffffffffffffffffffffff84161480610cd757506040517fc161c93f00000000000000000000000000000000000000000000000000000000815233600482015273ffffffffffffffffffffffffffffffffffffffff848116602483015260448201849052606482018390527f0000000000000000000000000000000000000000000000000000000000000000169063c161c93f9060840160206040518083038186803b158015610c9f57600080fd5b505afa158015610cb3573d6000803e3d6000fd5b505050506040513d601f19601f82011682018060405250810190610cd7919061127f565b610d235760405162461bcd60e51b815260206004820152601860248201527f4f706572617461626c653a20554e415554484f52495a454400000000000000006044820152606401610476565b73ffffffffffffffffffffffffffffffffffffffff8616610d865760405162461bcd60e51b815260206004820152600c60248201527f7a65726f206164647265737300000000000000000000000000000000000000006044820152606401610476565b6040517fe0826c8900000000000000000000000000000000000000000000000000000000815273ffffffffffffffffffffffffffffffffffffffff8781166004830152602482018a90526044820189905285151560648301527f0000000000000000000000000000000000000000000000000000000000000000169063e0826c8990608401600060405180830381600087803b158015610e2557600080fd5b505af1158015610e39573d6000803e3d6000fd5b505050508573ffffffffffffffffffffffffffffffffffffffff16887fb745c0ba548003047e8dc09b0dbf5eaed8ae262b5fe0221b4439af8cc4019905898833604051610e8893929190611591565b60405180910390a35050505050505050565b60015473ffffffffffffffffffffffffffffffffffffffff163314610f015760405162461bcd60e51b815260206004820181905260248201527f4f776e61626c653a2063616c6c6572206973206e6f7420746865206f776e65726044820152606401610476565b60008181526003602090815260409182902080547fffffffffffffffffffffffffffffffffffffffffffffffffffffffffffffff00811660ff9182161590811790925583518581529116151591810191909152338183015290517ffb0ae25af3bb35883efb31c3b77816b9c9cd80ed6c07526b320ab0bd1427139a9181900360600190a150565b60015473ffffffffffffffffffffffffffffffffffffffff163314610fef5760405162461bcd60e51b815260206004820181905260248201527f4f776e61626c653a2063616c6c6572206973206e6f7420746865206f776e65726044820152606401610476565b73ffffffffffffffffffffffffffffffffffffffff81166110785760405162461bcd60e51b815260206004820152602660248201527f4f776e61626c653a206e6577206f776e657220697320746865207a65726f206160448201527f64647265737300000000000000000000000000000000000000000000000000006064820152608401610476565b6104c7816111ac565b804710156110d15760405162461bcd60e51b815260206004820152601d60248201527f416464726573733a20696e73756666696369656e742062616c616e63650000006044820152606401610476565b60008273ffffffffffffffffffffffffffffffffffffffff168260405160006040518083038185875af1925050503d806000811461112b576040519150601f19603f3d011682016040523d82523d6000602084013e611130565b606091505b50509050806111a75760405162461bcd60e51b815260206004820152603a60248201527f416464726573733a20756e61626c6520746f2073656e642076616c75652c207260448201527f6563697069656e74206d617920686176652072657665727465640000000000006064820152608401610476565b505050565b6001805473ffffffffffffffffffffffffffffffffffffffff8381167fffffffffffffffffffffffff0000000000000000000000000000000000000000831681179093556040519116919082907f8be0079c531659141344cd1fd0a4f28419497f9722a3daafe3b4186f6b6457e090600090a35050565b803561122e81611752565b919050565b805161122e81611730565b60006020828403121561125057600080fd5b813561125b81611730565b9392505050565b60006020828403121561127457600080fd5b815161125b81611730565b60006020828403121561129157600080fd5b815161125b81611752565b600061020082840312156112af57600080fd5b6112b761162a565b825181526020830151602082015260408301516040820152606083015160608201526080830151608082015260a083015160a082015260c083015160c082015261130360e08401611233565b60e0820152610100838101519082015261012080840151908201526101408084015190820152610160808401519082015261018080840151908201526101a080840151908201526101c080840151908201526101e0928301519281019290925250919050565b60006020828403121561137b57600080fd5b5035919050565b60006020828403121561139457600080fd5b5051919050565b6000806000606084860312156113b057600080fd5b8335925060208401356113c281611730565b929592945050506040919091013590565b6000806000806000608086880312156113eb57600080fd5b8535945060208601356113fd81611730565b9350604086013567ffffffffffffffff8082111561141a57600080fd5b818801915088601f83011261142e57600080fd5b81358181111561143d57600080fd5b89602082850101111561144f57600080fd5b602083019550809450505050606086013561146981611752565b809150509295509295909350565b6000806040838503121561148a57600080fd5b82359150602083013561149c81611730565b809150509250929050565b600080600080600060a086880312156114bf57600080fd5b85359450602080870135945060408701356114d981611730565b9350606087013567ffffffffffffffff808211156114f657600080fd5b818901915089601f83011261150a57600080fd5b81358181111561151c5761151c611701565b61154c847fffffffffffffffffffffffffffffffffffffffffffffffffffffffffffffffe0601f84011601611654565b91508082528a8482850101111561156257600080fd5b808484018584013760008482840101525080945050505061158560808701611223565b90509295509295909350565b83815260006020606081840152845180606085015260005b818110156115c5578681018301518582016080015282016115a9565b818111156115d7576000608083870101525b5073ffffffffffffffffffffffffffffffffffffffff9490941660408401525050601f919091017fffffffffffffffffffffffffffffffffffffffffffffffffffffffffffffffe0160160800192915050565b604051610200810167ffffffffffffffff8111828210171561164e5761164e611701565b60405290565b604051601f82017fffffffffffffffffffffffffffffffffffffffffffffffffffffffffffffffe016810167ffffffffffffffff8111828210171561169b5761169b611701565b604052919050565b600082198211156116b6576116b66116d2565b500190565b6000828210156116cd576116cd6116d2565b500390565b7f4e487b7100000000000000000000000000000000000000000000000000000000600052601160045260246000fd5b7f4e487b7100000000000000000000000000000000000000000000000000000000600052604160045260246000fd5b73ffffffffffffffffffffffffffffffffffffffff811681146104c757600080fd5b80151581146104c757600080fdfea26469706673582212208282875ce6f85655c110ff88c2e37d93dc98aff8b17d9ac66a9118622d806b6664736f6c63430008060033",
  "devdoc": {
    "kind": "dev",
    "methods": {
      "addToBalance(uint256)": {
        "params": {
          "_projectId": "The ID of the project to which the funds received belong."
        }
      },
      "constructor": {
        "params": {
          "_fundingCycles": "A funding cycle configuration store.",
          "_operatorStore": "A contract storing operator assignments.",
          "_projects": "A Projects contract which mints ERC-721's that represent project ownership and transfers.",
          "_terminalDirectory": "A directory of a project's current Juicebox terminal to receive payments in.",
          "_ticketBooth": "A contract that manages Ticket printing and redeeming."
        }
      },
      "owner()": {
        "details": "Returns the address of the current owner."
      },
      "printTickets(uint256,uint256,address,string,bool)": {
        "details": "Only a project's owner or a designated operator can print tickets.",
        "params": {
          "_amount": "The amount of tickets to print.",
          "_beneficiary": "The address to send the printed tickets to.",
          "_memo": "A memo to leave with the printing.",
          "_preferUnstakedTickets": "If there is a preference to unstake the printed tickets.",
          "_projectId": "The ID of the project to print tickets for."
        }
      },
      "renounceOwnership()": {
        "details": "Leaves the contract without owner. It will not be possible to call `onlyOwner` functions anymore. Can only be called by the current owner. NOTE: Renouncing ownership will leave the contract without an owner, thereby removing any functionality that is only available to the owner."
      },
      "rescue(uint256,address,uint256)": {
        "details": "Callable only by project owner, if rescue is allowed by the projectId, if the project's current funding cycle is non recurring.",
        "params": {
          "_amount": "The amount to rescue as a fixed point number.",
          "_beneficiary": "The recipient of the resucued funds.",
          "_projectId": "The ID of the project whose ETH is being resued."
        }
      },
      "toggleRescue(uint256)": {
        "params": {
          "_projectId": "The ID of the project to allow rescuing."
        }
      },
      "transferOwnership(address)": {
        "details": "Transfers ownership of the contract to a new account (`newOwner`). Can only be called by the current owner."
      }
    },
    "version": 1
  },
  "userdoc": {
    "kind": "user",
    "methods": {
      "addToBalance(uint256)": {
        "notice": " Receives and allocates funds belonging to the specified project."
      },
      "allowMigration(address)": {
        "notice": " NO-OP"
      },
      "balanceOf(uint256)": {
        "notice": "The amount of ETH that each project is responsible for."
      },
      "fundingCycles()": {
        "notice": "The contract storing all funding cycle configurations."
      },
      "migrate(uint256,address)": {
        "notice": " NO-OP"
      },
      "operatorStore()": {
        "notice": "A contract storing operator assignments."
      },
      "pay(uint256,address,string,bool)": {
        "notice": " NO-OP"
      },
      "printTickets(uint256,uint256,address,string,bool)": {
        "notice": " Allows a project to print tickets for a specified beneficiary."
      },
      "projects()": {
        "notice": "The Projects contract which mints ERC-721's that represent project ownership and transfers."
      },
      "rescue(uint256,address,uint256)": {
        "notice": "A function that burns the supply of the dead address for a project. "
      },
      "rescueAllowed(uint256)": {
        "notice": "The addresses that are allowed to be rescued."
      },
      "terminalDirectory()": {
        "notice": "The directory of terminals."
      },
      "ticketBooth()": {
        "notice": "The contract that manages Ticket printing and redeeming."
      },
      "toggleRescue(uint256)": {
        "notice": " Allows certain projects to migrate to have funds rescued."
      }
    },
    "notice": " Terminal allowing allow listed projects with one-time funding cycles to rescue stuck ETH.",
    "version": 1
  },
  "storageLayout": {
    "storage": [
      {
        "astId": 160,
        "contract": "contracts/TerminalV1Rescue.sol:TerminalV1Rescue",
        "label": "_status",
        "offset": 0,
        "slot": "0",
        "type": "t_uint256"
      },
      {
        "astId": 53,
        "contract": "contracts/TerminalV1Rescue.sol:TerminalV1Rescue",
        "label": "_owner",
        "offset": 0,
        "slot": "1",
        "type": "t_address"
      },
      {
        "astId": 11366,
        "contract": "contracts/TerminalV1Rescue.sol:TerminalV1Rescue",
        "label": "balanceOf",
        "offset": 0,
        "slot": "2",
        "type": "t_mapping(t_uint256,t_uint256)"
      },
      {
        "astId": 11372,
        "contract": "contracts/TerminalV1Rescue.sol:TerminalV1Rescue",
        "label": "rescueAllowed",
        "offset": 0,
        "slot": "3",
        "type": "t_mapping(t_uint256,t_bool)"
      },
      {
        "astId": 11378,
        "contract": "contracts/TerminalV1Rescue.sol:TerminalV1Rescue",
        "label": "migrationIsAllowed",
        "offset": 0,
        "slot": "4",
        "type": "t_mapping(t_contract(ITerminal)17036,t_bool)"
      }
    ],
    "types": {
      "t_address": {
        "encoding": "inplace",
        "label": "address",
        "numberOfBytes": "20"
      },
      "t_bool": {
        "encoding": "inplace",
        "label": "bool",
        "numberOfBytes": "1"
      },
      "t_contract(ITerminal)17036": {
        "encoding": "inplace",
        "label": "contract ITerminal",
        "numberOfBytes": "20"
      },
      "t_mapping(t_contract(ITerminal)17036,t_bool)": {
        "encoding": "mapping",
        "key": "t_contract(ITerminal)17036",
        "label": "mapping(contract ITerminal => bool)",
        "numberOfBytes": "32",
        "value": "t_bool"
      },
      "t_mapping(t_uint256,t_bool)": {
        "encoding": "mapping",
        "key": "t_uint256",
        "label": "mapping(uint256 => bool)",
        "numberOfBytes": "32",
        "value": "t_bool"
      },
      "t_mapping(t_uint256,t_uint256)": {
        "encoding": "mapping",
        "key": "t_uint256",
        "label": "mapping(uint256 => uint256)",
        "numberOfBytes": "32",
        "value": "t_uint256"
      },
      "t_uint256": {
        "encoding": "inplace",
        "label": "uint256",
        "numberOfBytes": "32"
      }
    }
  }
}